{
  "_format": "hh-sol-artifact-1",
  "contractName": "OmikujiNFT",
  "sourceName": "contracts/OmikujiNFT.sol",
  "abi": [
    {
      "inputs": [
        {
          "internalType": "string[5]",
          "name": "_uris",
          "type": "string[5]"
        },
        {
          "internalType": "address",
          "name": "vrfCoordinator",
          "type": "address"
        },
        {
          "internalType": "uint256",
          "name": "subscriptionId",
          "type": "uint256"
        },
        {
          "internalType": "bytes32",
          "name": "_keyHash",
          "type": "bytes32"
        }
      ],
      "stateMutability": "nonpayable",
      "type": "constructor"
    },
    {
      "inputs": [
        {
          "internalType": "address",
          "name": "sender",
          "type": "address"
        },
        {
          "internalType": "uint256",
          "name": "tokenId",
          "type": "uint256"
        },
        {
          "internalType": "address",
          "name": "owner",
          "type": "address"
        }
      ],
      "name": "ERC721IncorrectOwner",
      "type": "error"
    },
    {
      "inputs": [
        {
          "internalType": "address",
          "name": "operator",
          "type": "address"
        },
        {
          "internalType": "uint256",
          "name": "tokenId",
          "type": "uint256"
        }
      ],
      "name": "ERC721InsufficientApproval",
      "type": "error"
    },
    {
      "inputs": [
        {
          "internalType": "address",
          "name": "approver",
          "type": "address"
        }
      ],
      "name": "ERC721InvalidApprover",
      "type": "error"
    },
    {
      "inputs": [
        {
          "internalType": "address",
          "name": "operator",
          "type": "address"
        }
      ],
      "name": "ERC721InvalidOperator",
      "type": "error"
    },
    {
      "inputs": [
        {
          "internalType": "address",
          "name": "owner",
          "type": "address"
        }
      ],
      "name": "ERC721InvalidOwner",
      "type": "error"
    },
    {
      "inputs": [
        {
          "internalType": "address",
          "name": "receiver",
          "type": "address"
        }
      ],
      "name": "ERC721InvalidReceiver",
      "type": "error"
    },
    {
      "inputs": [
        {
          "internalType": "address",
          "name": "sender",
          "type": "address"
        }
      ],
      "name": "ERC721InvalidSender",
      "type": "error"
    },
    {
      "inputs": [
        {
          "internalType": "uint256",
          "name": "tokenId",
          "type": "uint256"
        }
      ],
      "name": "ERC721NonexistentToken",
      "type": "error"
    },
    {
      "inputs": [],
      "name": "EmptyCid",
      "type": "error"
    },
    {
      "inputs": [
        {
          "internalType": "uint256",
          "name": "index",
          "type": "uint256"
        }
      ],
      "name": "EmptyUri",
      "type": "error"
    },
    {
      "inputs": [
        {
          "internalType": "uint256",
          "name": "index",
          "type": "uint256"
        }
      ],
      "name": "InvalidIndex",
      "type": "error"
    },
    {
      "inputs": [
        {
          "internalType": "address",
          "name": "have",
          "type": "address"
        },
        {
          "internalType": "address",
          "name": "want",
          "type": "address"
        }
      ],
      "name": "OnlyCoordinatorCanFulfill",
      "type": "error"
    },
    {
      "inputs": [
        {
          "internalType": "address",
          "name": "have",
          "type": "address"
        },
        {
          "internalType": "address",
          "name": "owner",
          "type": "address"
        },
        {
          "internalType": "address",
          "name": "coordinator",
          "type": "address"
        }
      ],
      "name": "OnlyOwnerOrCoordinator",
      "type": "error"
    },
    {
      "inputs": [],
      "name": "ZeroAddress",
      "type": "error"
    },
    {
      "anonymous": false,
      "inputs": [
        {
          "indexed": true,
          "internalType": "address",
          "name": "owner",
          "type": "address"
        },
        {
          "indexed": true,
          "internalType": "address",
          "name": "approved",
          "type": "address"
        },
        {
          "indexed": true,
          "internalType": "uint256",
          "name": "tokenId",
          "type": "uint256"
        }
      ],
      "name": "Approval",
      "type": "event"
    },
    {
      "anonymous": false,
      "inputs": [
        {
          "indexed": true,
          "internalType": "address",
          "name": "owner",
          "type": "address"
        },
        {
          "indexed": true,
          "internalType": "address",
          "name": "operator",
          "type": "address"
        },
        {
          "indexed": false,
          "internalType": "bool",
          "name": "approved",
          "type": "bool"
        }
      ],
      "name": "ApprovalForAll",
      "type": "event"
    },
    {
      "anonymous": false,
      "inputs": [
        {
          "indexed": false,
          "internalType": "uint256",
          "name": "_fromTokenId",
          "type": "uint256"
        },
        {
          "indexed": false,
          "internalType": "uint256",
          "name": "_toTokenId",
          "type": "uint256"
        }
      ],
      "name": "BatchMetadataUpdate",
      "type": "event"
    },
    {
      "anonymous": false,
      "inputs": [
        {
          "indexed": false,
          "internalType": "address",
          "name": "vrfCoordinator",
          "type": "address"
        }
      ],
      "name": "CoordinatorSet",
      "type": "event"
    },
    {
      "anonymous": false,
      "inputs": [
        {
          "indexed": false,
          "internalType": "string",
          "name": "cid",
          "type": "string"
        }
      ],
      "name": "IpfsCidUpdated",
      "type": "event"
    },
    {
      "anonymous": false,
      "inputs": [
        {
          "indexed": true,
          "internalType": "uint256",
          "name": "index",
          "type": "uint256"
        },
        {
          "indexed": false,
          "internalType": "string",
          "name": "uri",
          "type": "string"
        }
      ],
      "name": "IpfsUriUpdated",
      "type": "event"
    },
    {
      "anonymous": false,
      "inputs": [
        {
          "indexed": false,
          "internalType": "string[5]",
          "name": "uris",
          "type": "string[5]"
        }
      ],
      "name": "IpfsUrisUpdated",
      "type": "event"
    },
    {
      "anonymous": false,
      "inputs": [
        {
          "indexed": false,
          "internalType": "uint256",
          "name": "_tokenId",
          "type": "uint256"
        }
      ],
      "name": "MetadataUpdate",
      "type": "event"
    },
    {
      "anonymous": false,
      "inputs": [
        {
          "indexed": true,
          "internalType": "address",
          "name": "from",
          "type": "address"
        },
        {
          "indexed": true,
          "internalType": "address",
          "name": "to",
          "type": "address"
        }
      ],
      "name": "OwnershipTransferRequested",
      "type": "event"
    },
    {
      "anonymous": false,
      "inputs": [
        {
          "indexed": true,
          "internalType": "address",
          "name": "from",
          "type": "address"
        },
        {
          "indexed": true,
          "internalType": "address",
          "name": "to",
          "type": "address"
        }
      ],
      "name": "OwnershipTransferred",
      "type": "event"
    },
    {
      "anonymous": false,
      "inputs": [
        {
          "indexed": true,
          "internalType": "address",
          "name": "from",
          "type": "address"
        },
        {
          "indexed": true,
          "internalType": "address",
          "name": "to",
          "type": "address"
        },
        {
          "indexed": true,
          "internalType": "uint256",
          "name": "tokenId",
          "type": "uint256"
        }
      ],
      "name": "Transfer",
      "type": "event"
    },
    {
      "inputs": [],
      "name": "acceptOwnership",
      "outputs": [],
      "stateMutability": "nonpayable",
      "type": "function"
    },
    {
      "inputs": [
        {
          "internalType": "address",
          "name": "to",
          "type": "address"
        },
        {
          "internalType": "uint256",
          "name": "tokenId",
          "type": "uint256"
        }
      ],
      "name": "approve",
      "outputs": [],
      "stateMutability": "nonpayable",
      "type": "function"
    },
    {
      "inputs": [
        {
          "internalType": "address",
          "name": "owner",
          "type": "address"
        }
      ],
      "name": "balanceOf",
      "outputs": [
        {
          "internalType": "uint256",
          "name": "",
          "type": "uint256"
        }
      ],
      "stateMutability": "view",
      "type": "function"
    },
    {
      "inputs": [],
      "name": "callbackGasLimit",
      "outputs": [
        {
          "internalType": "uint32",
          "name": "",
          "type": "uint32"
        }
      ],
      "stateMutability": "view",
      "type": "function"
    },
    {
      "inputs": [
        {
          "internalType": "uint256",
          "name": "tokenId",
          "type": "uint256"
        }
      ],
      "name": "getApproved",
      "outputs": [
        {
          "internalType": "address",
          "name": "",
          "type": "address"
        }
      ],
      "stateMutability": "view",
      "type": "function"
    },
    {
      "inputs": [
        {
          "internalType": "address",
          "name": "owner",
          "type": "address"
        },
        {
          "internalType": "address",
          "name": "operator",
          "type": "address"
        }
      ],
      "name": "isApprovedForAll",
      "outputs": [
        {
          "internalType": "bool",
          "name": "",
          "type": "bool"
        }
      ],
      "stateMutability": "view",
      "type": "function"
    },
    {
      "inputs": [],
      "name": "keyHash",
      "outputs": [
        {
          "internalType": "bytes32",
          "name": "",
          "type": "bytes32"
        }
      ],
      "stateMutability": "view",
      "type": "function"
    },
    {
      "inputs": [],
      "name": "mintOmikuji",
      "outputs": [
        {
          "internalType": "uint256",
          "name": "requestId",
          "type": "uint256"
        }
      ],
      "stateMutability": "nonpayable",
      "type": "function"
    },
    {
      "inputs": [],
      "name": "name",
      "outputs": [
        {
          "internalType": "string",
          "name": "",
          "type": "string"
        }
      ],
      "stateMutability": "view",
      "type": "function"
    },
    {
      "inputs": [],
      "name": "numWords",
      "outputs": [
        {
          "internalType": "uint32",
          "name": "",
          "type": "uint32"
        }
      ],
      "stateMutability": "view",
      "type": "function"
    },
    {
      "inputs": [],
      "name": "owner",
      "outputs": [
        {
          "internalType": "address",
          "name": "",
          "type": "address"
        }
      ],
      "stateMutability": "view",
      "type": "function"
    },
    {
      "inputs": [
        {
          "internalType": "uint256",
          "name": "tokenId",
          "type": "uint256"
        }
      ],
      "name": "ownerOf",
      "outputs": [
        {
          "internalType": "address",
          "name": "",
          "type": "address"
        }
      ],
      "stateMutability": "view",
      "type": "function"
    },
    {
      "inputs": [
        {
          "internalType": "uint256",
          "name": "requestId",
          "type": "uint256"
        },
        {
          "internalType": "uint256[]",
          "name": "randomWords",
          "type": "uint256[]"
        }
      ],
      "name": "rawFulfillRandomWords",
      "outputs": [],
      "stateMutability": "nonpayable",
      "type": "function"
    },
    {
      "inputs": [],
      "name": "requestConfirmations",
      "outputs": [
        {
          "internalType": "uint16",
          "name": "",
          "type": "uint16"
        }
      ],
      "stateMutability": "view",
      "type": "function"
    },
    {
      "inputs": [
        {
          "internalType": "uint256",
          "name": "",
          "type": "uint256"
        }
      ],
      "name": "requestToSender",
      "outputs": [
        {
          "internalType": "address",
          "name": "",
          "type": "address"
        }
      ],
      "stateMutability": "view",
      "type": "function"
    },
    {
      "inputs": [],
      "name": "s_subscriptionId",
      "outputs": [
        {
          "internalType": "uint256",
          "name": "",
          "type": "uint256"
        }
      ],
      "stateMutability": "view",
      "type": "function"
    },
    {
      "inputs": [],
      "name": "s_vrfCoordinator",
      "outputs": [
        {
          "internalType": "contract IVRFCoordinatorV2Plus",
          "name": "",
          "type": "address"
        }
      ],
      "stateMutability": "view",
      "type": "function"
    },
    {
      "inputs": [
        {
          "internalType": "address",
          "name": "from",
          "type": "address"
        },
        {
          "internalType": "address",
          "name": "to",
          "type": "address"
        },
        {
          "internalType": "uint256",
          "name": "tokenId",
          "type": "uint256"
        }
      ],
      "name": "safeTransferFrom",
      "outputs": [],
      "stateMutability": "nonpayable",
      "type": "function"
    },
    {
      "inputs": [
        {
          "internalType": "address",
          "name": "from",
          "type": "address"
        },
        {
          "internalType": "address",
          "name": "to",
          "type": "address"
        },
        {
          "internalType": "uint256",
          "name": "tokenId",
          "type": "uint256"
        },
        {
          "internalType": "bytes",
          "name": "data",
          "type": "bytes"
        }
      ],
      "name": "safeTransferFrom",
      "outputs": [],
      "stateMutability": "nonpayable",
      "type": "function"
    },
    {
      "inputs": [
        {
          "internalType": "address",
          "name": "operator",
          "type": "address"
        },
        {
          "internalType": "bool",
          "name": "approved",
          "type": "bool"
        }
      ],
      "name": "setApprovalForAll",
      "outputs": [],
      "stateMutability": "nonpayable",
      "type": "function"
    },
    {
      "inputs": [
        {
          "internalType": "address",
          "name": "_vrfCoordinator",
          "type": "address"
        }
      ],
      "name": "setCoordinator",
      "outputs": [],
      "stateMutability": "nonpayable",
      "type": "function"
    },
    {
      "inputs": [
        {
          "internalType": "string",
          "name": "cid",
          "type": "string"
        }
      ],
      "name": "setIpfsCid",
      "outputs": [],
      "stateMutability": "nonpayable",
      "type": "function"
    },
    {
      "inputs": [
        {
          "internalType": "string[5]",
          "name": "newUris",
          "type": "string[5]"
        }
      ],
      "name": "setIpfsUris",
      "outputs": [],
      "stateMutability": "nonpayable",
      "type": "function"
    },
    {
      "inputs": [
        {
          "internalType": "bytes4",
          "name": "interfaceId",
          "type": "bytes4"
        }
      ],
      "name": "supportsInterface",
      "outputs": [
        {
          "internalType": "bool",
          "name": "",
          "type": "bool"
        }
      ],
      "stateMutability": "view",
      "type": "function"
    },
    {
      "inputs": [],
      "name": "symbol",
      "outputs": [
        {
          "internalType": "string",
          "name": "",
          "type": "string"
        }
      ],
      "stateMutability": "view",
      "type": "function"
    },
    {
      "inputs": [],
      "name": "tokenCounter",
      "outputs": [
        {
          "internalType": "uint256",
          "name": "",
          "type": "uint256"
        }
      ],
      "stateMutability": "view",
      "type": "function"
    },
    {
      "inputs": [
        {
          "internalType": "uint256",
          "name": "tokenId",
          "type": "uint256"
        }
      ],
      "name": "tokenURI",
      "outputs": [
        {
          "internalType": "string",
          "name": "",
          "type": "string"
        }
      ],
      "stateMutability": "view",
      "type": "function"
    },
    {
      "inputs": [
        {
          "internalType": "address",
          "name": "from",
          "type": "address"
        },
        {
          "internalType": "address",
          "name": "to",
          "type": "address"
        },
        {
          "internalType": "uint256",
          "name": "tokenId",
          "type": "uint256"
        }
      ],
      "name": "transferFrom",
      "outputs": [],
      "stateMutability": "nonpayable",
      "type": "function"
    },
    {
      "inputs": [
        {
          "internalType": "address",
          "name": "to",
          "type": "address"
        }
      ],
      "name": "transferOwnership",
      "outputs": [],
      "stateMutability": "nonpayable",
      "type": "function"
    },
    {
      "inputs": [
        {
          "internalType": "uint256",
          "name": "index",
          "type": "uint256"
        },
        {
          "internalType": "string",
          "name": "newUri",
          "type": "string"
        }
      ],
      "name": "updateIpfsUri",
      "outputs": [],
      "stateMutability": "nonpayable",
      "type": "function"
    },
    {
      "inputs": [
        {
          "internalType": "uint256",
          "name": "",
          "type": "uint256"
        }
      ],
      "name": "uris",
      "outputs": [
        {
          "internalType": "string",
          "name": "",
          "type": "string"
        }
      ],
      "stateMutability": "view",
      "type": "function"
    }
  ],
  "bytecode": "0x6080604052622625a0600c60006101000a81548163ffffffff021916908363ffffffff1602179055506003600c60046101000a81548161ffff021916908361ffff1602179055506001600c60066101000a81548163ffffffff021916908363ffffffff16021790555034801561007457600080fd5b50604051614deb380380614deb83398181016040528101906100969190610807565b82338060006040518060400160405280600a81526020017f4f6d696b756a694e4654000000000000000000000000000000000000000000008152506040518060400160405280600381526020017f4f4d4b000000000000000000000000000000000000000000000000000000000081525081600090816101169190610aa1565b5080600190816101269190610aa1565b505050600073ffffffffffffffffffffffffffffffffffffffff168273ffffffffffffffffffffffffffffffffffffffff1603610198576040517f08c379a000000000000000000000000000000000000000000000000000000000815260040161018f90610bd0565b60405180910390fd5b81600760006101000a81548173ffffffffffffffffffffffffffffffffffffffff021916908373ffffffffffffffffffffffffffffffffffffffff160217905550600073ffffffffffffffffffffffffffffffffffffffff168173ffffffffffffffffffffffffffffffffffffffff161461021d5761021c816102f960201b60201c565b5b505050600073ffffffffffffffffffffffffffffffffffffffff168173ffffffffffffffffffffffffffffffffffffffff1603610286576040517fd92e233d00000000000000000000000000000000000000000000000000000000815260040160405180910390fd5b80600960006101000a81548173ffffffffffffffffffffffffffffffffffffffff021916908373ffffffffffffffffffffffffffffffffffffffff1602179055505083600f9060056102d9929190610427565b5081600a8190555080600b819055506000600e8190555050505050610c5c565b3373ffffffffffffffffffffffffffffffffffffffff168173ffffffffffffffffffffffffffffffffffffffff1603610367576040517f08c379a000000000000000000000000000000000000000000000000000000000815260040161035e90610c3c565b60405180910390fd5b80600860006101000a81548173ffffffffffffffffffffffffffffffffffffffff021916908373ffffffffffffffffffffffffffffffffffffffff1602179055508073ffffffffffffffffffffffffffffffffffffffff16600760009054906101000a900473ffffffffffffffffffffffffffffffffffffffff1673ffffffffffffffffffffffffffffffffffffffff167fed8889f560326eb138920d842192f0eb3dd22b4f139c87a2c57538e05bae127860405160405180910390a350565b8260058101928215610462579160200282015b828111156104615782518290816104519190610aa1565b509160200191906001019061043a565b5b50905061046f9190610473565b5090565b5b80821115610493576000818161048a9190610497565b50600101610474565b5090565b5080546104a3906108c4565b6000825580601f106104b557506104d4565b601f0160209004906000526020600020908101906104d391906104d7565b5b50565b5b808211156104f05760008160009055506001016104d8565b5090565b6000604051905090565b600080fd5b600080fd5b600080fd5b6000601f19601f8301169050919050565b7f4e487b7100000000000000000000000000000000000000000000000000000000600052604160045260246000fd5b6105568261050d565b810181811067ffffffffffffffff821117156105755761057461051e565b5b80604052505050565b60006105886104f4565b9050610594828261054d565b919050565b600067ffffffffffffffff8211156105b4576105b361051e565b5b602082029050919050565b600080fd5b600080fd5b600067ffffffffffffffff8211156105e4576105e361051e565b5b6105ed8261050d565b9050602081019050919050565b60005b838110156106185780820151818401526020810190506105fd565b60008484015250505050565b6000610637610632846105c9565b61057e565b905082815260208101848484011115610653576106526105c4565b5b61065e8482856105fa565b509392505050565b600082601f83011261067b5761067a610508565b5b815161068b848260208601610624565b91505092915050565b60006106a76106a284610599565b61057e565b905080602084028301858111156106c1576106c06105bf565b5b835b8181101561070857805167ffffffffffffffff8111156106e6576106e5610508565b5b8086016106f38982610666565b855260208501945050506020810190506106c3565b5050509392505050565b600082601f83011261072757610726610508565b5b6005610734848285610694565b91505092915050565b600073ffffffffffffffffffffffffffffffffffffffff82169050919050565b60006107688261073d565b9050919050565b6107788161075d565b811461078357600080fd5b50565b6000815190506107958161076f565b92915050565b6000819050919050565b6107ae8161079b565b81146107b957600080fd5b50565b6000815190506107cb816107a5565b92915050565b6000819050919050565b6107e4816107d1565b81146107ef57600080fd5b50565b600081519050610801816107db565b92915050565b60008060008060808587031215610821576108206104fe565b5b600085015167ffffffffffffffff81111561083f5761083e610503565b5b61084b87828801610712565b945050602061085c87828801610786565b935050604061086d878288016107bc565b925050606061087e878288016107f2565b91505092959194509250565b600081519050919050565b7f4e487b7100000000000000000000000000000000000000000000000000000000600052602260045260246000fd5b600060028204905060018216806108dc57607f821691505b6020821081036108ef576108ee610895565b5b50919050565b60008190508160005260206000209050919050565b60006020601f8301049050919050565b600082821b905092915050565b6000600883026109577fffffffffffffffffffffffffffffffffffffffffffffffffffffffffffffffff8261091a565b610961868361091a565b95508019841693508086168417925050509392505050565b6000819050919050565b600061099e6109996109948461079b565b610979565b61079b565b9050919050565b6000819050919050565b6109b883610983565b6109cc6109c4826109a5565b848454610927565b825550505050565b600090565b6109e16109d4565b6109ec8184846109af565b505050565b5b81811015610a1057610a056000826109d9565b6001810190506109f2565b5050565b601f821115610a5557610a26816108f5565b610a2f8461090a565b81016020851015610a3e578190505b610a52610a4a8561090a565b8301826109f1565b50505b505050565b600082821c905092915050565b6000610a7860001984600802610a5a565b1980831691505092915050565b6000610a918383610a67565b9150826002028217905092915050565b610aaa8261088a565b67ffffffffffffffff811115610ac357610ac261051e565b5b610acd82546108c4565b610ad8828285610a14565b600060209050601f831160018114610b0b5760008415610af9578287015190505b610b038582610a85565b865550610b6b565b601f198416610b19866108f5565b60005b82811015610b4157848901518255600182019150602085019450602081019050610b1c565b86831015610b5e5784890151610b5a601f891682610a67565b8355505b6001600288020188555050505b505050505050565b600082825260208201905092915050565b7f43616e6e6f7420736574206f776e657220746f207a65726f0000000000000000600082015250565b6000610bba601883610b73565b9150610bc582610b84565b602082019050919050565b60006020820190508181036000830152610be981610bad565b9050919050565b7f43616e6e6f74207472616e7366657220746f2073656c66000000000000000000600082015250565b6000610c26601783610b73565b9150610c3182610bf0565b602082019050919050565b60006020820190508181036000830152610c5581610c19565b9050919050565b61418080610c6b6000396000f3fe608060405234801561001057600080fd5b50600436106101e55760003560e01c806379ba50971161010f578063b0fb162f116100a2578063d082e38111610071578063d082e3811461056c578063d16830f11461058a578063e985e9c5146105a6578063f2fde38b146105d6576101e5565b8063b0fb162f146104d2578063b678647a146104f0578063b88d4fde14610520578063c87b56dd1461053c576101e5565b80638ea98117116100de5780638ea981171461045e57806395d89b411461047a5780639eccacf614610498578063a22cb465146104b6576101e5565b806379ba5097146103fa5780637ccfd7fc146104045780638ac00021146104225780638da5cb5b14610440576101e5565b806324f74697116101875780635dc97b86116101565780635dc97b861461036057806361728f391461037c5780636352211e1461039a57806370a08231146103ca576101e5565b806324f74697146102ec5780632e557e6a1461030a57806333ce46471461032857806342842e0e14610344576101e5565b8063095ea7b3116101c3578063095ea7b3146102685780631253c546146102845780631fe543e3146102b457806323b872dd146102d0576101e5565b806301ffc9a7146101ea57806306fdde031461021a578063081812fc14610238575b600080fd5b61020460048036038101906101ff91906129ca565b6105f2565b6040516102119190612a12565b60405180910390f35b610222610653565b60405161022f9190612abd565b60405180910390f35b610252600480360381019061024d9190612b15565b6106e5565b60405161025f9190612b83565b60405180910390f35b610282600480360381019061027d9190612bca565b610701565b005b61029e60048036038101906102999190612b15565b610717565b6040516102ab9190612abd565b60405180910390f35b6102ce60048036038101906102c99190612c6f565b6107ba565b005b6102ea60048036038101906102e59190612ccf565b610880565b005b6102f4610982565b6040516103019190612d41565b60405180910390f35b610312610998565b60405161031f9190612d6b565b60405180910390f35b610342600480360381019061033d9190612da8565b610b21565b005b61035e60048036038101906103599190612ccf565b610c2c565b005b61037a60048036038101906103759190612e47565b610c4c565b005b610384610d45565b6040516103919190612ec0565b60405180910390f35b6103b460048036038101906103af9190612b15565b610d4b565b6040516103c19190612b83565b60405180910390f35b6103e460048036038101906103df9190612edb565b610d5d565b6040516103f19190612d6b565b60405180910390f35b610402610e17565b005b61040c610fae565b6040516104199190612d41565b60405180910390f35b61042a610fc4565b6040516104379190612d6b565b60405180910390f35b610448610fca565b6040516104559190612b83565b60405180910390f35b61047860048036038101906104739190612edb565b610ff4565b005b6104826111d5565b60405161048f9190612abd565b60405180910390f35b6104a0611267565b6040516104ad9190612f67565b60405180910390f35b6104d060048036038101906104cb9190612fae565b61128d565b005b6104da6112a3565b6040516104e7919061300b565b60405180910390f35b61050a60048036038101906105059190612b15565b6112b7565b6040516105179190612b83565b60405180910390f35b61053a60048036038101906105359190613156565b6112ea565b005b61055660048036038101906105519190612b15565b61130f565b6040516105639190612abd565b60405180910390f35b610574611422565b6040516105819190612d6b565b60405180910390f35b6105a4600480360381019061059f91906131d9565b611428565b005b6105c060048036038101906105bb9190613226565b611603565b6040516105cd9190612a12565b60405180910390f35b6105f060048036038101906105eb9190612edb565b611697565b005b6000634906490660e01b7bffffffffffffffffffffffffffffffffffffffffffffffffffffffff1916827bffffffffffffffffffffffffffffffffffffffffffffffffffffffff1916148061064c575061064b826116ab565b5b9050919050565b60606000805461066290613295565b80601f016020809104026020016040519081016040528092919081815260200182805461068e90613295565b80156106db5780601f106106b0576101008083540402835291602001916106db565b820191906000526020600020905b8154815290600101906020018083116106be57829003601f168201915b5050505050905090565b60006106f08261178d565b506106fa82611815565b9050919050565b610713828261070e611852565b61185a565b5050565b600f816005811061072757600080fd5b01600091509050805461073990613295565b80601f016020809104026020016040519081016040528092919081815260200182805461076590613295565b80156107b25780601f10610787576101008083540402835291602001916107b2565b820191906000526020600020905b81548152906001019060200180831161079557829003601f168201915b505050505081565b600960009054906101000a900473ffffffffffffffffffffffffffffffffffffffff1673ffffffffffffffffffffffffffffffffffffffff163373ffffffffffffffffffffffffffffffffffffffff16146108705733600960009054906101000a900473ffffffffffffffffffffffffffffffffffffffff166040517f1cf993f40000000000000000000000000000000000000000000000000000000081526004016108679291906132c6565b60405180910390fd5b61087b83838361186c565b505050565b600073ffffffffffffffffffffffffffffffffffffffff168273ffffffffffffffffffffffffffffffffffffffff16036108f25760006040517f64a0ae920000000000000000000000000000000000000000000000000000000081526004016108e99190612b83565b60405180910390fd5b60006109068383610901611852565b6119a3565b90508373ffffffffffffffffffffffffffffffffffffffff168173ffffffffffffffffffffffffffffffffffffffff161461097c578382826040517f64283d7b000000000000000000000000000000000000000000000000000000008152600401610973939291906132ef565b60405180910390fd5b50505050565b600c60009054906101000a900463ffffffff1681565b6000806040518060c00160405280600b548152602001600a548152602001600c60049054906101000a900461ffff1661ffff168152602001600c60009054906101000a900463ffffffff1663ffffffff168152602001600c60069054906101000a900463ffffffff1663ffffffff168152602001610a26604051806020016040528060001515815250611bbd565b8152509050600960009054906101000a900473ffffffffffffffffffffffffffffffffffffffff1673ffffffffffffffffffffffffffffffffffffffff16639b1c385e826040518263ffffffff1660e01b8152600401610a869190613440565b6020604051808303816000875af1158015610aa5573d6000803e3d6000fd5b505050506040513d601f19601f82011682018060405250810190610ac99190613477565b915033600d600084815260200190815260200160002060006101000a81548173ffffffffffffffffffffffffffffffffffffffff021916908373ffffffffffffffffffffffffffffffffffffffff1602179055505090565b610b29611c55565b60005b6005811015610bf1576000828260058110610b4a57610b496134a4565b5b602002810190610b5a91906134e2565b905003610b9e57806040517f8786cfa1000000000000000000000000000000000000000000000000000000008152600401610b959190612d6b565b60405180910390fd5b818160058110610bb157610bb06134a4565b5b602002810190610bc191906134e2565b600f8360058110610bd557610bd46134a4565b5b019182610be39291906136f2565b508080600101915050610b2c565b507f2cfe96f98d5a1270c81eefdcb32462510018754c8cc702481f3f91da6ce260c281604051610c219190613934565b60405180910390a150565b610c47838383604051806020016040528060008152506112ea565b505050565b610c54611c55565b60058310610c9957826040517f08545ce2000000000000000000000000000000000000000000000000000000008152600401610c909190612d6b565b60405180910390fd5b60008282905003610ce157826040517f8786cfa1000000000000000000000000000000000000000000000000000000008152600401610cd89190612d6b565b60405180910390fd5b8181600f8560058110610cf757610cf66134a4565b5b019182610d059291906136f2565b50827fe75f0e009ac1581883ba0b0cd7b120da421f070e9301d5d5c0c4d45c770de78b8383604051610d38929190613983565b60405180910390a2505050565b600b5481565b6000610d568261178d565b9050919050565b60008073ffffffffffffffffffffffffffffffffffffffff168273ffffffffffffffffffffffffffffffffffffffff1603610dd05760006040517f89c62b64000000000000000000000000000000000000000000000000000000008152600401610dc79190612b83565b60405180910390fd5b600360008373ffffffffffffffffffffffffffffffffffffffff1673ffffffffffffffffffffffffffffffffffffffff168152602001908152602001600020549050919050565b600860009054906101000a900473ffffffffffffffffffffffffffffffffffffffff1673ffffffffffffffffffffffffffffffffffffffff163373ffffffffffffffffffffffffffffffffffffffff1614610ea7576040517f08c379a0000000000000000000000000000000000000000000000000000000008152600401610e9e906139f3565b60405180910390fd5b6000600760009054906101000a900473ffffffffffffffffffffffffffffffffffffffff16905033600760006101000a81548173ffffffffffffffffffffffffffffffffffffffff021916908373ffffffffffffffffffffffffffffffffffffffff1602179055506000600860006101000a81548173ffffffffffffffffffffffffffffffffffffffff021916908373ffffffffffffffffffffffffffffffffffffffff1602179055503373ffffffffffffffffffffffffffffffffffffffff168173ffffffffffffffffffffffffffffffffffffffff167f8be0079c531659141344cd1fd0a4f28419497f9722a3daafe3b4186f6b6457e060405160405180910390a350565b600c60069054906101000a900463ffffffff1681565b600a5481565b6000600760009054906101000a900473ffffffffffffffffffffffffffffffffffffffff16905090565b610ffc610fca565b73ffffffffffffffffffffffffffffffffffffffff163373ffffffffffffffffffffffffffffffffffffffff16141580156110855750600960009054906101000a900473ffffffffffffffffffffffffffffffffffffffff1673ffffffffffffffffffffffffffffffffffffffff163373ffffffffffffffffffffffffffffffffffffffff1614155b156110f45733611093610fca565b600960009054906101000a900473ffffffffffffffffffffffffffffffffffffffff166040517f061db9c10000000000000000000000000000000000000000000000000000000081526004016110eb93929190613a13565b60405180910390fd5b600073ffffffffffffffffffffffffffffffffffffffff168173ffffffffffffffffffffffffffffffffffffffff160361115a576040517fd92e233d00000000000000000000000000000000000000000000000000000000815260040160405180910390fd5b80600960006101000a81548173ffffffffffffffffffffffffffffffffffffffff021916908373ffffffffffffffffffffffffffffffffffffffff1602179055507fd1a6a14209a385a964d036e404cb5cfb71f4000cdb03c9366292430787261be6816040516111ca9190612b83565b60405180910390a150565b6060600180546111e490613295565b80601f016020809104026020016040519081016040528092919081815260200182805461121090613295565b801561125d5780601f106112325761010080835404028352916020019161125d565b820191906000526020600020905b81548152906001019060200180831161124057829003601f168201915b5050505050905090565b600960009054906101000a900473ffffffffffffffffffffffffffffffffffffffff1681565b61129f611298611852565b8383611ce7565b5050565b600c60049054906101000a900461ffff1681565b600d6020528060005260406000206000915054906101000a900473ffffffffffffffffffffffffffffffffffffffff1681565b6112f5848484610880565b611309611300611852565b85858585611e56565b50505050565b606061131a8261178d565b50600060066000848152602001908152602001600020805461133b90613295565b80601f016020809104026020016040519081016040528092919081815260200182805461136790613295565b80156113b45780601f10611389576101008083540402835291602001916113b4565b820191906000526020600020905b81548152906001019060200180831161139757829003601f168201915b5050505050905060006113c5612007565b905060008151036113da57819250505061141d565b60008251111561140f5780826040516020016113f7929190613a86565b6040516020818303038152906040529250505061141d565b6114188461201e565b925050505b919050565b600e5481565b611430611c55565b6000828290500361146d576040517f6d91186300000000000000000000000000000000000000000000000000000000815260040160405180910390fd5b8181604051602001611480929190613b67565b604051602081830303815290604052600f6000600581106114a4576114a36134a4565b5b0190816114b19190613b96565b5081816040516020016114c5929190613cb4565b604051602081830303815290604052600f6001600581106114e9576114e86134a4565b5b0190816114f69190613b96565b50818160405160200161150a929190613d2f565b604051602081830303815290604052600f60026005811061152e5761152d6134a4565b5b01908161153b9190613b96565b50818160405160200161154f929190613daa565b604051602081830303815290604052600f600360058110611573576115726134a4565b5b0190816115809190613b96565b508181604051602001611594929190613e25565b604051602081830303815290604052600f6004600581106115b8576115b76134a4565b5b0190816115c59190613b96565b507f1ec0f99bce1b9793eb7bcf5c5d4f719ff0ae8cf6109f01c42f6aeecb4a022a3782826040516115f7929190613983565b60405180910390a15050565b6000600560008473ffffffffffffffffffffffffffffffffffffffff1673ffffffffffffffffffffffffffffffffffffffff16815260200190815260200160002060008373ffffffffffffffffffffffffffffffffffffffff1673ffffffffffffffffffffffffffffffffffffffff16815260200190815260200160002060009054906101000a900460ff16905092915050565b61169f611c55565b6116a881612087565b50565b60007f80ac58cd000000000000000000000000000000000000000000000000000000007bffffffffffffffffffffffffffffffffffffffffffffffffffffffff1916827bffffffffffffffffffffffffffffffffffffffffffffffffffffffff1916148061177657507f5b5e139f000000000000000000000000000000000000000000000000000000007bffffffffffffffffffffffffffffffffffffffffffffffffffffffff1916827bffffffffffffffffffffffffffffffffffffffffffffffffffffffff1916145b806117865750611785826121b5565b5b9050919050565b6000806117998361221f565b9050600073ffffffffffffffffffffffffffffffffffffffff168173ffffffffffffffffffffffffffffffffffffffff160361180c57826040517f7e2732890000000000000000000000000000000000000000000000000000000081526004016118039190612d6b565b60405180910390fd5b80915050919050565b60006004600083815260200190815260200160002060009054906101000a900473ffffffffffffffffffffffffffffffffffffffff169050919050565b600033905090565b611867838383600161225c565b505050565b6000600d600085815260200190815260200160002060009054906101000a900473ffffffffffffffffffffffffffffffffffffffff16905060006005848460008181106118bc576118bb6134a4565b5b905060200201356118cd9190613e83565b90506118db82600e54612421565b611984600e54600f83600581106118f5576118f46134a4565b5b01805461190190613295565b80601f016020809104026020016040519081016040528092919081815260200182805461192d90613295565b801561197a5780601f1061194f5761010080835404028352916020019161197a565b820191906000526020600020905b81548152906001019060200180831161195d57829003601f168201915b505050505061243f565b600e600081548092919061199790613ee3565b91905055505050505050565b6000806119af8461221f565b9050600073ffffffffffffffffffffffffffffffffffffffff168373ffffffffffffffffffffffffffffffffffffffff16146119f1576119f081848661249b565b5b600073ffffffffffffffffffffffffffffffffffffffff168173ffffffffffffffffffffffffffffffffffffffff1614611a8257611a3360008560008061225c565b6001600360008373ffffffffffffffffffffffffffffffffffffffff1673ffffffffffffffffffffffffffffffffffffffff168152602001908152602001600020600082825403925050819055505b600073ffffffffffffffffffffffffffffffffffffffff168573ffffffffffffffffffffffffffffffffffffffff1614611b05576001600360008773ffffffffffffffffffffffffffffffffffffffff1673ffffffffffffffffffffffffffffffffffffffff168152602001908152602001600020600082825401925050819055505b846002600086815260200190815260200160002060006101000a81548173ffffffffffffffffffffffffffffffffffffffff021916908373ffffffffffffffffffffffffffffffffffffffff160217905550838573ffffffffffffffffffffffffffffffffffffffff168273ffffffffffffffffffffffffffffffffffffffff167fddf252ad1be2c89b69c2b068fc378daa952ba7f163c4a11628f55a4df523b3ef60405160405180910390a4809150509392505050565b60607f92fd13387c7fe7befbc38d303d6468778fb9731bc4583f17d92989c6fcfdeaaa82604051602401611bf19190613f56565b604051602081830303815290604052907bffffffffffffffffffffffffffffffffffffffffffffffffffffffff19166020820180517bffffffffffffffffffffffffffffffffffffffffffffffffffffffff83818316178352505050509050919050565b600760009054906101000a900473ffffffffffffffffffffffffffffffffffffffff1673ffffffffffffffffffffffffffffffffffffffff163373ffffffffffffffffffffffffffffffffffffffff1614611ce5576040517f08c379a0000000000000000000000000000000000000000000000000000000008152600401611cdc90613fbd565b60405180910390fd5b565b600073ffffffffffffffffffffffffffffffffffffffff168273ffffffffffffffffffffffffffffffffffffffff1603611d5857816040517f5b08ba18000000000000000000000000000000000000000000000000000000008152600401611d4f9190612b83565b60405180910390fd5b80600560008573ffffffffffffffffffffffffffffffffffffffff1673ffffffffffffffffffffffffffffffffffffffff16815260200190815260200160002060008473ffffffffffffffffffffffffffffffffffffffff1673ffffffffffffffffffffffffffffffffffffffff16815260200190815260200160002060006101000a81548160ff0219169083151502179055508173ffffffffffffffffffffffffffffffffffffffff168373ffffffffffffffffffffffffffffffffffffffff167f17307eab39ab6107e8899845ad3d59bd9653f200f220920489ca2b5937696c3183604051611e499190612a12565b60405180910390a3505050565b60008373ffffffffffffffffffffffffffffffffffffffff163b1115612000578273ffffffffffffffffffffffffffffffffffffffff1663150b7a02868685856040518563ffffffff1660e01b8152600401611eb59493929190614027565b6020604051808303816000875af1925050508015611ef157506040513d601f19601f82011682018060405250810190611eee9190614088565b60015b611f75573d8060008114611f21576040519150601f19603f3d011682016040523d82523d6000602084013e611f26565b606091505b506000815103611f6d57836040517f64a0ae92000000000000000000000000000000000000000000000000000000008152600401611f649190612b83565b60405180910390fd5b805181602001fd5b63150b7a0260e01b7bffffffffffffffffffffffffffffffffffffffffffffffffffffffff1916817bffffffffffffffffffffffffffffffffffffffffffffffffffffffff191614611ffe57836040517f64a0ae92000000000000000000000000000000000000000000000000000000008152600401611ff59190612b83565b60405180910390fd5b505b5050505050565b606060405180602001604052806000815250905090565b60606120298261178d565b506000612034612007565b90506000815111612054576040518060200160405280600081525061207f565b8061205e8461255f565b60405160200161206f929190613a86565b6040516020818303038152906040525b915050919050565b3373ffffffffffffffffffffffffffffffffffffffff168173ffffffffffffffffffffffffffffffffffffffff16036120f5576040517f08c379a00000000000000000000000000000000000000000000000000000000081526004016120ec90614101565b60405180910390fd5b80600860006101000a81548173ffffffffffffffffffffffffffffffffffffffff021916908373ffffffffffffffffffffffffffffffffffffffff1602179055508073ffffffffffffffffffffffffffffffffffffffff16600760009054906101000a900473ffffffffffffffffffffffffffffffffffffffff1673ffffffffffffffffffffffffffffffffffffffff167fed8889f560326eb138920d842192f0eb3dd22b4f139c87a2c57538e05bae127860405160405180910390a350565b60007f01ffc9a7000000000000000000000000000000000000000000000000000000007bffffffffffffffffffffffffffffffffffffffffffffffffffffffff1916827bffffffffffffffffffffffffffffffffffffffffffffffffffffffff1916149050919050565b60006002600083815260200190815260200160002060009054906101000a900473ffffffffffffffffffffffffffffffffffffffff169050919050565b80806122955750600073ffffffffffffffffffffffffffffffffffffffff168273ffffffffffffffffffffffffffffffffffffffff1614155b156123c95760006122a58461178d565b9050600073ffffffffffffffffffffffffffffffffffffffff168373ffffffffffffffffffffffffffffffffffffffff161415801561231057508273ffffffffffffffffffffffffffffffffffffffff168173ffffffffffffffffffffffffffffffffffffffff1614155b801561232357506123218184611603565b155b1561236557826040517fa9fbf51f00000000000000000000000000000000000000000000000000000000815260040161235c9190612b83565b60405180910390fd5b81156123c757838573ffffffffffffffffffffffffffffffffffffffff168273ffffffffffffffffffffffffffffffffffffffff167f8c5be1e5ebec7d5bd14f71427d1e84f3dd0314c0f7b2291e5b200ac8c7c3b92560405160405180910390a45b505b836004600085815260200190815260200160002060006101000a81548173ffffffffffffffffffffffffffffffffffffffff021916908373ffffffffffffffffffffffffffffffffffffffff16021790555050505050565b61243b82826040518060200160405280600081525061262d565b5050565b8060066000848152602001908152602001600020908161245f9190613b96565b507ff8e1a15aba9398e019f0b49df1a4fde98ee17ae345cb5f6b5e2c27f5033e8ce78260405161248f9190612d6b565b60405180910390a15050565b6124a6838383612651565b61255a57600073ffffffffffffffffffffffffffffffffffffffff168373ffffffffffffffffffffffffffffffffffffffff160361251b57806040517f7e2732890000000000000000000000000000000000000000000000000000000081526004016125129190612d6b565b60405180910390fd5b81816040517f177e802f000000000000000000000000000000000000000000000000000000008152600401612551929190614121565b60405180910390fd5b505050565b60606000600161256e84612712565b01905060008167ffffffffffffffff81111561258d5761258c61302b565b5b6040519080825280601f01601f1916602001820160405280156125bf5781602001600182028036833780820191505090505b509050600082602001820190505b600115612622578080600190039150507f3031323334353637383961626364656600000000000000000000000000000000600a86061a8153600a858161261657612615613e54565b5b049450600085036125cd575b819350505050919050565b6126378383612865565b61264c612642611852565b6000858585611e56565b505050565b60008073ffffffffffffffffffffffffffffffffffffffff168373ffffffffffffffffffffffffffffffffffffffff161415801561270957508273ffffffffffffffffffffffffffffffffffffffff168473ffffffffffffffffffffffffffffffffffffffff1614806126ca57506126c98484611603565b5b8061270857508273ffffffffffffffffffffffffffffffffffffffff166126f083611815565b73ffffffffffffffffffffffffffffffffffffffff16145b5b90509392505050565b600080600090507a184f03e93ff9f4daa797ed6e38ed64bf6a1f0100000000000000008310612770577a184f03e93ff9f4daa797ed6e38ed64bf6a1f010000000000000000838161276657612765613e54565b5b0492506040810190505b6d04ee2d6d415b85acef810000000083106127ad576d04ee2d6d415b85acef810000000083816127a3576127a2613e54565b5b0492506020810190505b662386f26fc1000083106127dc57662386f26fc1000083816127d2576127d1613e54565b5b0492506010810190505b6305f5e1008310612805576305f5e10083816127fb576127fa613e54565b5b0492506008810190505b612710831061282a5761271083816128205761281f613e54565b5b0492506004810190505b6064831061284d576064838161284357612842613e54565b5b0492506002810190505b600a831061285c576001810190505b80915050919050565b600073ffffffffffffffffffffffffffffffffffffffff168273ffffffffffffffffffffffffffffffffffffffff16036128d75760006040517f64a0ae920000000000000000000000000000000000000000000000000000000081526004016128ce9190612b83565b60405180910390fd5b60006128e5838360006119a3565b9050600073ffffffffffffffffffffffffffffffffffffffff168173ffffffffffffffffffffffffffffffffffffffff16146129595760006040517f73c6ac6e0000000000000000000000000000000000000000000000000000000081526004016129509190612b83565b60405180910390fd5b505050565b6000604051905090565b600080fd5b600080fd5b60007fffffffff0000000000000000000000000000000000000000000000000000000082169050919050565b6129a781612972565b81146129b257600080fd5b50565b6000813590506129c48161299e565b92915050565b6000602082840312156129e0576129df612968565b5b60006129ee848285016129b5565b91505092915050565b60008115159050919050565b612a0c816129f7565b82525050565b6000602082019050612a276000830184612a03565b92915050565b600081519050919050565b600082825260208201905092915050565b60005b83811015612a67578082015181840152602081019050612a4c565b60008484015250505050565b6000601f19601f8301169050919050565b6000612a8f82612a2d565b612a998185612a38565b9350612aa9818560208601612a49565b612ab281612a73565b840191505092915050565b60006020820190508181036000830152612ad78184612a84565b905092915050565b6000819050919050565b612af281612adf565b8114612afd57600080fd5b50565b600081359050612b0f81612ae9565b92915050565b600060208284031215612b2b57612b2a612968565b5b6000612b3984828501612b00565b91505092915050565b600073ffffffffffffffffffffffffffffffffffffffff82169050919050565b6000612b6d82612b42565b9050919050565b612b7d81612b62565b82525050565b6000602082019050612b986000830184612b74565b92915050565b612ba781612b62565b8114612bb257600080fd5b50565b600081359050612bc481612b9e565b92915050565b60008060408385031215612be157612be0612968565b5b6000612bef85828601612bb5565b9250506020612c0085828601612b00565b9150509250929050565b600080fd5b600080fd5b600080fd5b60008083601f840112612c2f57612c2e612c0a565b5b8235905067ffffffffffffffff811115612c4c57612c4b612c0f565b5b602083019150836020820283011115612c6857612c67612c14565b5b9250929050565b600080600060408486031215612c8857612c87612968565b5b6000612c9686828701612b00565b935050602084013567ffffffffffffffff811115612cb757612cb661296d565b5b612cc386828701612c19565b92509250509250925092565b600080600060608486031215612ce857612ce7612968565b5b6000612cf686828701612bb5565b9350506020612d0786828701612bb5565b9250506040612d1886828701612b00565b9150509250925092565b600063ffffffff82169050919050565b612d3b81612d22565b82525050565b6000602082019050612d566000830184612d32565b92915050565b612d6581612adf565b82525050565b6000602082019050612d806000830184612d5c565b92915050565b600081905082602060050282011115612da257612da1612c14565b5b92915050565b600060208284031215612dbe57612dbd612968565b5b600082013567ffffffffffffffff811115612ddc57612ddb61296d565b5b612de884828501612d86565b91505092915050565b60008083601f840112612e0757612e06612c0a565b5b8235905067ffffffffffffffff811115612e2457612e23612c0f565b5b602083019150836001820283011115612e4057612e3f612c14565b5b9250929050565b600080600060408486031215612e6057612e5f612968565b5b6000612e6e86828701612b00565b935050602084013567ffffffffffffffff811115612e8f57612e8e61296d565b5b612e9b86828701612df1565b92509250509250925092565b6000819050919050565b612eba81612ea7565b82525050565b6000602082019050612ed56000830184612eb1565b92915050565b600060208284031215612ef157612ef0612968565b5b6000612eff84828501612bb5565b91505092915050565b6000819050919050565b6000612f2d612f28612f2384612b42565b612f08565b612b42565b9050919050565b6000612f3f82612f12565b9050919050565b6000612f5182612f34565b9050919050565b612f6181612f46565b82525050565b6000602082019050612f7c6000830184612f58565b92915050565b612f8b816129f7565b8114612f9657600080fd5b50565b600081359050612fa881612f82565b92915050565b60008060408385031215612fc557612fc4612968565b5b6000612fd385828601612bb5565b9250506020612fe485828601612f99565b9150509250929050565b600061ffff82169050919050565b61300581612fee565b82525050565b60006020820190506130206000830184612ffc565b92915050565b600080fd5b7f4e487b7100000000000000000000000000000000000000000000000000000000600052604160045260246000fd5b61306382612a73565b810181811067ffffffffffffffff821117156130825761308161302b565b5b80604052505050565b600061309561295e565b90506130a1828261305a565b919050565b600067ffffffffffffffff8211156130c1576130c061302b565b5b6130ca82612a73565b9050602081019050919050565b82818337600083830152505050565b60006130f96130f4846130a6565b61308b565b90508281526020810184848401111561311557613114613026565b5b6131208482856130d7565b509392505050565b600082601f83011261313d5761313c612c0a565b5b813561314d8482602086016130e6565b91505092915050565b600080600080608085870312156131705761316f612968565b5b600061317e87828801612bb5565b945050602061318f87828801612bb5565b93505060406131a087828801612b00565b925050606085013567ffffffffffffffff8111156131c1576131c061296d565b5b6131cd87828801613128565b91505092959194509250565b600080602083850312156131f0576131ef612968565b5b600083013567ffffffffffffffff81111561320e5761320d61296d565b5b61321a85828601612df1565b92509250509250929050565b6000806040838503121561323d5761323c612968565b5b600061324b85828601612bb5565b925050602061325c85828601612bb5565b9150509250929050565b7f4e487b7100000000000000000000000000000000000000000000000000000000600052602260045260246000fd5b600060028204905060018216806132ad57607f821691505b6020821081036132c0576132bf613266565b5b50919050565b60006040820190506132db6000830185612b74565b6132e86020830184612b74565b9392505050565b60006060820190506133046000830186612b74565b6133116020830185612d5c565b61331e6040830184612b74565b949350505050565b61332f81612ea7565b82525050565b61333e81612adf565b82525050565b61334d81612fee565b82525050565b61335c81612d22565b82525050565b600081519050919050565b600082825260208201905092915050565b600061338982613362565b613393818561336d565b93506133a3818560208601612a49565b6133ac81612a73565b840191505092915050565b600060c0830160008301516133cf6000860182613326565b5060208301516133e26020860182613335565b5060408301516133f56040860182613344565b5060608301516134086060860182613353565b50608083015161341b6080860182613353565b5060a083015184820360a0860152613433828261337e565b9150508091505092915050565b6000602082019050818103600083015261345a81846133b7565b905092915050565b60008151905061347181612ae9565b92915050565b60006020828403121561348d5761348c612968565b5b600061349b84828501613462565b91505092915050565b7f4e487b7100000000000000000000000000000000000000000000000000000000600052603260045260246000fd5b600080fd5b600080fd5b600080fd5b600080833560016020038436030381126134ff576134fe6134d3565b5b80840192508235915067ffffffffffffffff821115613521576135206134d8565b5b60208301925060018202360383131561353d5761353c6134dd565b5b509250929050565b600082905092915050565b60008190508160005260206000209050919050565b60006020601f8301049050919050565b600082821b905092915050565b6000600883026135b27fffffffffffffffffffffffffffffffffffffffffffffffffffffffffffffffff82613575565b6135bc8683613575565b95508019841693508086168417925050509392505050565b60006135ef6135ea6135e584612adf565b612f08565b612adf565b9050919050565b6000819050919050565b613609836135d4565b61361d613615826135f6565b848454613582565b825550505050565b600090565b613632613625565b61363d818484613600565b505050565b5b818110156136615761365660008261362a565b600181019050613643565b5050565b601f8211156136a65761367781613550565b61368084613565565b8101602085101561368f578190505b6136a361369b85613565565b830182613642565b50505b505050565b600082821c905092915050565b60006136c9600019846008026136ab565b1980831691505092915050565b60006136e283836136b8565b9150826002028217905092915050565b6136fc8383613545565b67ffffffffffffffff8111156137155761371461302b565b5b61371f8254613295565b61372a828285613665565b6000601f8311600181146137595760008415613747578287013590505b61375185826136d6565b8655506137b9565b601f19841661376786613550565b60005b8281101561378f5784890135825560018201915060208501945060208101905061376a565b868310156137ac57848901356137a8601f8916826136b8565b8355505b6001600288020188555050505b50505050505050565b600060059050919050565b600081905092915050565b6000819050919050565b600082825260208201905092915050565b60006137ff83856137e2565b935061380c8385846130d7565b61381583612a73565b840190509392505050565b600061382d8484846137f3565b90509392505050565b600080fd5b600080fd5b600080fd5b6000808335600160200384360303811261386257613861613840565b5b83810192508235915060208301925067ffffffffffffffff82111561388a57613889613836565b5b6001820236038313156138a05761389f61383b565b5b509250929050565b6000602082019050919050565b60006138c0826137c2565b6138ca81856137cd565b9350836020820285016138dc856137d8565b8060005b858110156139225784840389526138f78284613845565b613902868284613820565b955061390d846138a8565b935060208b019a5050506001810190506138e0565b50829750879550505050505092915050565b6000602082019050818103600083015261394e81846138b5565b905092915050565b60006139628385612a38565b935061396f8385846130d7565b61397883612a73565b840190509392505050565b6000602082019050818103600083015261399e818486613956565b90509392505050565b7f4d7573742062652070726f706f736564206f776e657200000000000000000000600082015250565b60006139dd601683612a38565b91506139e8826139a7565b602082019050919050565b60006020820190508181036000830152613a0c816139d0565b9050919050565b6000606082019050613a286000830186612b74565b613a356020830185612b74565b613a426040830184612b74565b949350505050565b600081905092915050565b6000613a6082612a2d565b613a6a8185613a4a565b9350613a7a818560208601612a49565b80840191505092915050565b6000613a928285613a55565b9150613a9e8284613a55565b91508190509392505050565b7f697066733a2f2f00000000000000000000000000000000000000000000000000600082015250565b6000613ae0600783613a4a565b9150613aeb82613aaa565b600782019050919050565b6000613b028385613a4a565b9350613b0f8385846130d7565b82840190509392505050565b7f2f6461696b696368692e6a736f6e000000000000000000000000000000000000600082015250565b6000613b51600e83613a4a565b9150613b5c82613b1b565b600e82019050919050565b6000613b7282613ad3565b9150613b7f828486613af6565b9150613b8a82613b44565b91508190509392505050565b613b9f82612a2d565b67ffffffffffffffff811115613bb857613bb761302b565b5b613bc28254613295565b613bcd828285613665565b600060209050601f831160018114613c005760008415613bee578287015190505b613bf885826136d6565b865550613c60565b601f198416613c0e86613550565b60005b82811015613c3657848901518255600182019150602085019450602081019050613c11565b86831015613c535784890151613c4f601f8916826136b8565b8355505b6001600288020188555050505b505050505050565b7f2f6b696368692e6a736f6e000000000000000000000000000000000000000000600082015250565b6000613c9e600b83613a4a565b9150613ca982613c68565b600b82019050919050565b6000613cbf82613ad3565b9150613ccc828486613af6565b9150613cd782613c91565b91508190509392505050565b7f2f636875756b696368692e6a736f6e0000000000000000000000000000000000600082015250565b6000613d19600f83613a4a565b9150613d2482613ce3565b600f82019050919050565b6000613d3a82613ad3565b9150613d47828486613af6565b9150613d5282613d0c565b91508190509392505050565b7f2f73796f756b696368692e6a736f6e0000000000000000000000000000000000600082015250565b6000613d94600f83613a4a565b9150613d9f82613d5e565b600f82019050919050565b6000613db582613ad3565b9150613dc2828486613af6565b9150613dcd82613d87565b91508190509392505050565b7f2f6b796f752e6a736f6e00000000000000000000000000000000000000000000600082015250565b6000613e0f600a83613a4a565b9150613e1a82613dd9565b600a82019050919050565b6000613e3082613ad3565b9150613e3d828486613af6565b9150613e4882613e02565b91508190509392505050565b7f4e487b7100000000000000000000000000000000000000000000000000000000600052601260045260246000fd5b6000613e8e82612adf565b9150613e9983612adf565b925082613ea957613ea8613e54565b5b828206905092915050565b7f4e487b7100000000000000000000000000000000000000000000000000000000600052601160045260246000fd5b6000613eee82612adf565b91507fffffffffffffffffffffffffffffffffffffffffffffffffffffffffffffffff8203613f2057613f1f613eb4565b5b600182019050919050565b613f34816129f7565b82525050565b602082016000820151613f506000850182613f2b565b50505050565b6000602082019050613f6b6000830184613f3a565b92915050565b7f4f6e6c792063616c6c61626c65206279206f776e657200000000000000000000600082015250565b6000613fa7601683612a38565b9150613fb282613f71565b602082019050919050565b60006020820190508181036000830152613fd681613f9a565b9050919050565b600082825260208201905092915050565b6000613ff982613362565b6140038185613fdd565b9350614013818560208601612a49565b61401c81612a73565b840191505092915050565b600060808201905061403c6000830187612b74565b6140496020830186612b74565b6140566040830185612d5c565b81810360608301526140688184613fee565b905095945050505050565b6000815190506140828161299e565b92915050565b60006020828403121561409e5761409d612968565b5b60006140ac84828501614073565b91505092915050565b7f43616e6e6f74207472616e7366657220746f2073656c66000000000000000000600082015250565b60006140eb601783612a38565b91506140f6826140b5565b602082019050919050565b6000602082019050818103600083015261411a816140de565b9050919050565b60006040820190506141366000830185612b74565b6141436020830184612d5c565b939250505056fea2646970667358221220550835f0b6ca4ed113f11798d00f00e499a7b6e7e81a4d606f83d6f6e09be7f964736f6c634300081c0033",
  "linkReferences": {},
  "deployedLinkReferences": {}
}