{
  "_format": "hh-sol-artifact-1",
  "contractName": "OmikujiNFT",
  "sourceName": "contracts/OmikujiNFT.sol",
  "abi": [
    {
      "inputs": [
        {
          "internalType": "string[5]",
          "name": "_uris",
          "type": "string[5]"
        },
        {
          "internalType": "address",
          "name": "vrfCoordinator",
          "type": "address"
        },
        {
          "internalType": "uint256",
          "name": "subscriptionId",
          "type": "uint256"
        },
        {
          "internalType": "bytes32",
          "name": "_keyHash",
          "type": "bytes32"
        }
      ],
      "stateMutability": "nonpayable",
      "type": "constructor"
    },
    {
      "inputs": [
        {
          "internalType": "address",
          "name": "sender",
          "type": "address"
        },
        {
          "internalType": "uint256",
          "name": "tokenId",
          "type": "uint256"
        },
        {
          "internalType": "address",
          "name": "owner",
          "type": "address"
        }
      ],
      "name": "ERC721IncorrectOwner",
      "type": "error"
    },
    {
      "inputs": [
        {
          "internalType": "address",
          "name": "operator",
          "type": "address"
        },
        {
          "internalType": "uint256",
          "name": "tokenId",
          "type": "uint256"
        }
      ],
      "name": "ERC721InsufficientApproval",
      "type": "error"
    },
    {
      "inputs": [
        {
          "internalType": "address",
          "name": "approver",
          "type": "address"
        }
      ],
      "name": "ERC721InvalidApprover",
      "type": "error"
    },
    {
      "inputs": [
        {
          "internalType": "address",
          "name": "operator",
          "type": "address"
        }
      ],
      "name": "ERC721InvalidOperator",
      "type": "error"
    },
    {
      "inputs": [
        {
          "internalType": "address",
          "name": "owner",
          "type": "address"
        }
      ],
      "name": "ERC721InvalidOwner",
      "type": "error"
    },
    {
      "inputs": [
        {
          "internalType": "address",
          "name": "receiver",
          "type": "address"
        }
      ],
      "name": "ERC721InvalidReceiver",
      "type": "error"
    },
    {
      "inputs": [
        {
          "internalType": "address",
          "name": "sender",
          "type": "address"
        }
      ],
      "name": "ERC721InvalidSender",
      "type": "error"
    },
    {
      "inputs": [
        {
          "internalType": "uint256",
          "name": "tokenId",
          "type": "uint256"
        }
      ],
      "name": "ERC721NonexistentToken",
      "type": "error"
    },
    {
      "inputs": [
        {
          "internalType": "address",
          "name": "have",
          "type": "address"
        },
        {
          "internalType": "address",
          "name": "want",
          "type": "address"
        }
      ],
      "name": "OnlyCoordinatorCanFulfill",
      "type": "error"
    },
    {
      "inputs": [
        {
          "internalType": "address",
          "name": "have",
          "type": "address"
        },
        {
          "internalType": "address",
          "name": "owner",
          "type": "address"
        },
        {
          "internalType": "address",
          "name": "coordinator",
          "type": "address"
        }
      ],
      "name": "OnlyOwnerOrCoordinator",
      "type": "error"
    },
    {
      "inputs": [],
      "name": "ZeroAddress",
      "type": "error"
    },
    {
      "anonymous": false,
      "inputs": [
        {
          "indexed": true,
          "internalType": "address",
          "name": "owner",
          "type": "address"
        },
        {
          "indexed": true,
          "internalType": "address",
          "name": "approved",
          "type": "address"
        },
        {
          "indexed": true,
          "internalType": "uint256",
          "name": "tokenId",
          "type": "uint256"
        }
      ],
      "name": "Approval",
      "type": "event"
    },
    {
      "anonymous": false,
      "inputs": [
        {
          "indexed": true,
          "internalType": "address",
          "name": "owner",
          "type": "address"
        },
        {
          "indexed": true,
          "internalType": "address",
          "name": "operator",
          "type": "address"
        },
        {
          "indexed": false,
          "internalType": "bool",
          "name": "approved",
          "type": "bool"
        }
      ],
      "name": "ApprovalForAll",
      "type": "event"
    },
    {
      "anonymous": false,
      "inputs": [
        {
          "indexed": false,
          "internalType": "uint256",
          "name": "_fromTokenId",
          "type": "uint256"
        },
        {
          "indexed": false,
          "internalType": "uint256",
          "name": "_toTokenId",
          "type": "uint256"
        }
      ],
      "name": "BatchMetadataUpdate",
      "type": "event"
    },
    {
      "anonymous": false,
      "inputs": [
        {
          "indexed": false,
          "internalType": "address",
          "name": "vrfCoordinator",
          "type": "address"
        }
      ],
      "name": "CoordinatorSet",
      "type": "event"
    },
    {
      "anonymous": false,
      "inputs": [
        {
          "indexed": false,
          "internalType": "uint256",
          "name": "_tokenId",
          "type": "uint256"
        }
      ],
      "name": "MetadataUpdate",
      "type": "event"
    },
    {
      "anonymous": false,
      "inputs": [
        {
          "indexed": true,
          "internalType": "address",
          "name": "from",
          "type": "address"
        },
        {
          "indexed": true,
          "internalType": "address",
          "name": "to",
          "type": "address"
        }
      ],
      "name": "OwnershipTransferRequested",
      "type": "event"
    },
    {
      "anonymous": false,
      "inputs": [
        {
          "indexed": true,
          "internalType": "address",
          "name": "from",
          "type": "address"
        },
        {
          "indexed": true,
          "internalType": "address",
          "name": "to",
          "type": "address"
        }
      ],
      "name": "OwnershipTransferred",
      "type": "event"
    },
    {
      "anonymous": false,
      "inputs": [
        {
          "indexed": true,
          "internalType": "address",
          "name": "from",
          "type": "address"
        },
        {
          "indexed": true,
          "internalType": "address",
          "name": "to",
          "type": "address"
        },
        {
          "indexed": true,
          "internalType": "uint256",
          "name": "tokenId",
          "type": "uint256"
        }
      ],
      "name": "Transfer",
      "type": "event"
    },
    {
      "inputs": [],
      "name": "acceptOwnership",
      "outputs": [],
      "stateMutability": "nonpayable",
      "type": "function"
    },
    {
      "inputs": [
        {
          "internalType": "address",
          "name": "to",
          "type": "address"
        },
        {
          "internalType": "uint256",
          "name": "tokenId",
          "type": "uint256"
        }
      ],
      "name": "approve",
      "outputs": [],
      "stateMutability": "nonpayable",
      "type": "function"
    },
    {
      "inputs": [
        {
          "internalType": "address",
          "name": "owner",
          "type": "address"
        }
      ],
      "name": "balanceOf",
      "outputs": [
        {
          "internalType": "uint256",
          "name": "",
          "type": "uint256"
        }
      ],
      "stateMutability": "view",
      "type": "function"
    },
    {
      "inputs": [],
      "name": "callbackGasLimit",
      "outputs": [
        {
          "internalType": "uint32",
          "name": "",
          "type": "uint32"
        }
      ],
      "stateMutability": "view",
      "type": "function"
    },
    {
      "inputs": [
        {
          "internalType": "uint256",
          "name": "tokenId",
          "type": "uint256"
        }
      ],
      "name": "getApproved",
      "outputs": [
        {
          "internalType": "address",
          "name": "",
          "type": "address"
        }
      ],
      "stateMutability": "view",
      "type": "function"
    },
    {
      "inputs": [
        {
          "internalType": "address",
          "name": "owner",
          "type": "address"
        },
        {
          "internalType": "address",
          "name": "operator",
          "type": "address"
        }
      ],
      "name": "isApprovedForAll",
      "outputs": [
        {
          "internalType": "bool",
          "name": "",
          "type": "bool"
        }
      ],
      "stateMutability": "view",
      "type": "function"
    },
    {
      "inputs": [],
      "name": "keyHash",
      "outputs": [
        {
          "internalType": "bytes32",
          "name": "",
          "type": "bytes32"
        }
      ],
      "stateMutability": "view",
      "type": "function"
    },
    {
      "inputs": [],
      "name": "mintOmikuji",
      "outputs": [
        {
          "internalType": "uint256",
          "name": "requestId",
          "type": "uint256"
        }
      ],
      "stateMutability": "nonpayable",
      "type": "function"
    },
    {
      "inputs": [],
      "name": "name",
      "outputs": [
        {
          "internalType": "string",
          "name": "",
          "type": "string"
        }
      ],
      "stateMutability": "view",
      "type": "function"
    },
    {
      "inputs": [],
      "name": "numWords",
      "outputs": [
        {
          "internalType": "uint32",
          "name": "",
          "type": "uint32"
        }
      ],
      "stateMutability": "view",
      "type": "function"
    },
    {
      "inputs": [],
      "name": "owner",
      "outputs": [
        {
          "internalType": "address",
          "name": "",
          "type": "address"
        }
      ],
      "stateMutability": "view",
      "type": "function"
    },
    {
      "inputs": [
        {
          "internalType": "uint256",
          "name": "tokenId",
          "type": "uint256"
        }
      ],
      "name": "ownerOf",
      "outputs": [
        {
          "internalType": "address",
          "name": "",
          "type": "address"
        }
      ],
      "stateMutability": "view",
      "type": "function"
    },
    {
      "inputs": [
        {
          "internalType": "uint256",
          "name": "requestId",
          "type": "uint256"
        },
        {
          "internalType": "uint256[]",
          "name": "randomWords",
          "type": "uint256[]"
        }
      ],
      "name": "rawFulfillRandomWords",
      "outputs": [],
      "stateMutability": "nonpayable",
      "type": "function"
    },
    {
      "inputs": [],
      "name": "requestConfirmations",
      "outputs": [
        {
          "internalType": "uint16",
          "name": "",
          "type": "uint16"
        }
      ],
      "stateMutability": "view",
      "type": "function"
    },
    {
      "inputs": [
        {
          "internalType": "uint256",
          "name": "",
          "type": "uint256"
        }
      ],
      "name": "requestToSender",
      "outputs": [
        {
          "internalType": "address",
          "name": "",
          "type": "address"
        }
      ],
      "stateMutability": "view",
      "type": "function"
    },
    {
      "inputs": [],
      "name": "s_subscriptionId",
      "outputs": [
        {
          "internalType": "uint256",
          "name": "",
          "type": "uint256"
        }
      ],
      "stateMutability": "view",
      "type": "function"
    },
    {
      "inputs": [],
      "name": "s_vrfCoordinator",
      "outputs": [
        {
          "internalType": "contract IVRFCoordinatorV2Plus",
          "name": "",
          "type": "address"
        }
      ],
      "stateMutability": "view",
      "type": "function"
    },
    {
      "inputs": [
        {
          "internalType": "address",
          "name": "from",
          "type": "address"
        },
        {
          "internalType": "address",
          "name": "to",
          "type": "address"
        },
        {
          "internalType": "uint256",
          "name": "tokenId",
          "type": "uint256"
        }
      ],
      "name": "safeTransferFrom",
      "outputs": [],
      "stateMutability": "nonpayable",
      "type": "function"
    },
    {
      "inputs": [
        {
          "internalType": "address",
          "name": "from",
          "type": "address"
        },
        {
          "internalType": "address",
          "name": "to",
          "type": "address"
        },
        {
          "internalType": "uint256",
          "name": "tokenId",
          "type": "uint256"
        },
        {
          "internalType": "bytes",
          "name": "data",
          "type": "bytes"
        }
      ],
      "name": "safeTransferFrom",
      "outputs": [],
      "stateMutability": "nonpayable",
      "type": "function"
    },
    {
      "inputs": [
        {
          "internalType": "address",
          "name": "operator",
          "type": "address"
        },
        {
          "internalType": "bool",
          "name": "approved",
          "type": "bool"
        }
      ],
      "name": "setApprovalForAll",
      "outputs": [],
      "stateMutability": "nonpayable",
      "type": "function"
    },
    {
      "inputs": [
        {
          "internalType": "address",
          "name": "_vrfCoordinator",
          "type": "address"
        }
      ],
      "name": "setCoordinator",
      "outputs": [],
      "stateMutability": "nonpayable",
      "type": "function"
    },
    {
      "inputs": [
        {
          "internalType": "string",
          "name": "cid",
          "type": "string"
        }
      ],
      "name": "setIpfsCid",
      "outputs": [],
      "stateMutability": "nonpayable",
      "type": "function"
    },
    {
      "inputs": [
        {
          "internalType": "string[5]",
          "name": "newUris",
          "type": "string[5]"
        }
      ],
      "name": "setIpfsUris",
      "outputs": [],
      "stateMutability": "nonpayable",
      "type": "function"
    },
    {
      "inputs": [
        {
          "internalType": "bytes4",
          "name": "interfaceId",
          "type": "bytes4"
        }
      ],
      "name": "supportsInterface",
      "outputs": [
        {
          "internalType": "bool",
          "name": "",
          "type": "bool"
        }
      ],
      "stateMutability": "view",
      "type": "function"
    },
    {
      "inputs": [],
      "name": "symbol",
      "outputs": [
        {
          "internalType": "string",
          "name": "",
          "type": "string"
        }
      ],
      "stateMutability": "view",
      "type": "function"
    },
    {
      "inputs": [],
      "name": "tokenCounter",
      "outputs": [
        {
          "internalType": "uint256",
          "name": "",
          "type": "uint256"
        }
      ],
      "stateMutability": "view",
      "type": "function"
    },
    {
      "inputs": [
        {
          "internalType": "uint256",
          "name": "tokenId",
          "type": "uint256"
        }
      ],
      "name": "tokenURI",
      "outputs": [
        {
          "internalType": "string",
          "name": "",
          "type": "string"
        }
      ],
      "stateMutability": "view",
      "type": "function"
    },
    {
      "inputs": [
        {
          "internalType": "address",
          "name": "from",
          "type": "address"
        },
        {
          "internalType": "address",
          "name": "to",
          "type": "address"
        },
        {
          "internalType": "uint256",
          "name": "tokenId",
          "type": "uint256"
        }
      ],
      "name": "transferFrom",
      "outputs": [],
      "stateMutability": "nonpayable",
      "type": "function"
    },
    {
      "inputs": [
        {
          "internalType": "address",
          "name": "to",
          "type": "address"
        }
      ],
      "name": "transferOwnership",
      "outputs": [],
      "stateMutability": "nonpayable",
      "type": "function"
    },
    {
      "inputs": [
        {
          "internalType": "uint256",
          "name": "index",
          "type": "uint256"
        },
        {
          "internalType": "string",
          "name": "newUri",
          "type": "string"
        }
      ],
      "name": "updateIpfsUri",
      "outputs": [],
      "stateMutability": "nonpayable",
      "type": "function"
    },
    {
      "inputs": [
        {
          "internalType": "uint256",
          "name": "",
          "type": "uint256"
        }
      ],
      "name": "uris",
      "outputs": [
        {
          "internalType": "string",
          "name": "",
          "type": "string"
        }
      ],
      "stateMutability": "view",
      "type": "function"
    }
  ],
  "bytecode": "0x6080604052622625a0600c60006101000a81548163ffffffff021916908363ffffffff1602179055506003600c60046101000a81548161ffff021916908361ffff1602179055506001600c60066101000a81548163ffffffff021916908363ffffffff16021790555034801561007457600080fd5b50604051614ad8380380614ad883398181016040528101906100969190610807565b82338060006040518060400160405280600a81526020017f4f6d696b756a694e4654000000000000000000000000000000000000000000008152506040518060400160405280600381526020017f4f4d4b000000000000000000000000000000000000000000000000000000000081525081600090816101169190610aa1565b5080600190816101269190610aa1565b505050600073ffffffffffffffffffffffffffffffffffffffff168273ffffffffffffffffffffffffffffffffffffffff1603610198576040517f08c379a000000000000000000000000000000000000000000000000000000000815260040161018f90610bd0565b60405180910390fd5b81600760006101000a81548173ffffffffffffffffffffffffffffffffffffffff021916908373ffffffffffffffffffffffffffffffffffffffff160217905550600073ffffffffffffffffffffffffffffffffffffffff168173ffffffffffffffffffffffffffffffffffffffff161461021d5761021c816102f960201b60201c565b5b505050600073ffffffffffffffffffffffffffffffffffffffff168173ffffffffffffffffffffffffffffffffffffffff1603610286576040517fd92e233d00000000000000000000000000000000000000000000000000000000815260040160405180910390fd5b80600960006101000a81548173ffffffffffffffffffffffffffffffffffffffff021916908373ffffffffffffffffffffffffffffffffffffffff1602179055505083600f9060056102d9929190610427565b5081600a8190555080600b819055506000600e8190555050505050610c5c565b3373ffffffffffffffffffffffffffffffffffffffff168173ffffffffffffffffffffffffffffffffffffffff1603610367576040517f08c379a000000000000000000000000000000000000000000000000000000000815260040161035e90610c3c565b60405180910390fd5b80600860006101000a81548173ffffffffffffffffffffffffffffffffffffffff021916908373ffffffffffffffffffffffffffffffffffffffff1602179055508073ffffffffffffffffffffffffffffffffffffffff16600760009054906101000a900473ffffffffffffffffffffffffffffffffffffffff1673ffffffffffffffffffffffffffffffffffffffff167fed8889f560326eb138920d842192f0eb3dd22b4f139c87a2c57538e05bae127860405160405180910390a350565b8260058101928215610462579160200282015b828111156104615782518290816104519190610aa1565b509160200191906001019061043a565b5b50905061046f9190610473565b5090565b5b80821115610493576000818161048a9190610497565b50600101610474565b5090565b5080546104a3906108c4565b6000825580601f106104b557506104d4565b601f0160209004906000526020600020908101906104d391906104d7565b5b50565b5b808211156104f05760008160009055506001016104d8565b5090565b6000604051905090565b600080fd5b600080fd5b600080fd5b6000601f19601f8301169050919050565b7f4e487b7100000000000000000000000000000000000000000000000000000000600052604160045260246000fd5b6105568261050d565b810181811067ffffffffffffffff821117156105755761057461051e565b5b80604052505050565b60006105886104f4565b9050610594828261054d565b919050565b600067ffffffffffffffff8211156105b4576105b361051e565b5b602082029050919050565b600080fd5b600080fd5b600067ffffffffffffffff8211156105e4576105e361051e565b5b6105ed8261050d565b9050602081019050919050565b60005b838110156106185780820151818401526020810190506105fd565b60008484015250505050565b6000610637610632846105c9565b61057e565b905082815260208101848484011115610653576106526105c4565b5b61065e8482856105fa565b509392505050565b600082601f83011261067b5761067a610508565b5b815161068b848260208601610624565b91505092915050565b60006106a76106a284610599565b61057e565b905080602084028301858111156106c1576106c06105bf565b5b835b8181101561070857805167ffffffffffffffff8111156106e6576106e5610508565b5b8086016106f38982610666565b855260208501945050506020810190506106c3565b5050509392505050565b600082601f83011261072757610726610508565b5b6005610734848285610694565b91505092915050565b600073ffffffffffffffffffffffffffffffffffffffff82169050919050565b60006107688261073d565b9050919050565b6107788161075d565b811461078357600080fd5b50565b6000815190506107958161076f565b92915050565b6000819050919050565b6107ae8161079b565b81146107b957600080fd5b50565b6000815190506107cb816107a5565b92915050565b6000819050919050565b6107e4816107d1565b81146107ef57600080fd5b50565b600081519050610801816107db565b92915050565b60008060008060808587031215610821576108206104fe565b5b600085015167ffffffffffffffff81111561083f5761083e610503565b5b61084b87828801610712565b945050602061085c87828801610786565b935050604061086d878288016107bc565b925050606061087e878288016107f2565b91505092959194509250565b600081519050919050565b7f4e487b7100000000000000000000000000000000000000000000000000000000600052602260045260246000fd5b600060028204905060018216806108dc57607f821691505b6020821081036108ef576108ee610895565b5b50919050565b60008190508160005260206000209050919050565b60006020601f8301049050919050565b600082821b905092915050565b6000600883026109577fffffffffffffffffffffffffffffffffffffffffffffffffffffffffffffffff8261091a565b610961868361091a565b95508019841693508086168417925050509392505050565b6000819050919050565b600061099e6109996109948461079b565b610979565b61079b565b9050919050565b6000819050919050565b6109b883610983565b6109cc6109c4826109a5565b848454610927565b825550505050565b600090565b6109e16109d4565b6109ec8184846109af565b505050565b5b81811015610a1057610a056000826109d9565b6001810190506109f2565b5050565b601f821115610a5557610a26816108f5565b610a2f8461090a565b81016020851015610a3e578190505b610a52610a4a8561090a565b8301826109f1565b50505b505050565b600082821c905092915050565b6000610a7860001984600802610a5a565b1980831691505092915050565b6000610a918383610a67565b9150826002028217905092915050565b610aaa8261088a565b67ffffffffffffffff811115610ac357610ac261051e565b5b610acd82546108c4565b610ad8828285610a14565b600060209050601f831160018114610b0b5760008415610af9578287015190505b610b038582610a85565b865550610b6b565b601f198416610b19866108f5565b60005b82811015610b4157848901518255600182019150602085019450602081019050610b1c565b86831015610b5e5784890151610b5a601f891682610a67565b8355505b6001600288020188555050505b505050505050565b600082825260208201905092915050565b7f43616e6e6f7420736574206f776e657220746f207a65726f0000000000000000600082015250565b6000610bba601883610b73565b9150610bc582610b84565b602082019050919050565b60006020820190508181036000830152610be981610bad565b9050919050565b7f43616e6e6f74207472616e7366657220746f2073656c66000000000000000000600082015250565b6000610c26601783610b73565b9150610c3182610bf0565b602082019050919050565b60006020820190508181036000830152610c5581610c19565b9050919050565b613e6d80610c6b6000396000f3fe608060405234801561001057600080fd5b50600436106101e55760003560e01c806379ba50971161010f578063b0fb162f116100a2578063d082e38111610071578063d082e3811461056c578063d16830f11461058a578063e985e9c5146105a6578063f2fde38b146105d6576101e5565b8063b0fb162f146104d2578063b678647a146104f0578063b88d4fde14610520578063c87b56dd1461053c576101e5565b80638ea98117116100de5780638ea981171461045e57806395d89b411461047a5780639eccacf614610498578063a22cb465146104b6576101e5565b806379ba5097146103fa5780637ccfd7fc146104045780638ac00021146104225780638da5cb5b14610440576101e5565b806324f74697116101875780635dc97b86116101565780635dc97b861461036057806361728f391461037c5780636352211e1461039a57806370a08231146103ca576101e5565b806324f74697146102ec5780632e557e6a1461030a57806333ce46471461032857806342842e0e14610344576101e5565b8063095ea7b3116101c3578063095ea7b3146102685780631253c546146102845780631fe543e3146102b457806323b872dd146102d0576101e5565b806301ffc9a7146101ea57806306fdde031461021a578063081812fc14610238575b600080fd5b61020460048036038101906101ff9190612830565b6105f2565b6040516102119190612878565b60405180910390f35b610222610653565b60405161022f9190612923565b60405180910390f35b610252600480360381019061024d919061297b565b6106e5565b60405161025f91906129e9565b60405180910390f35b610282600480360381019061027d9190612a30565b610701565b005b61029e6004803603810190610299919061297b565b610717565b6040516102ab9190612923565b60405180910390f35b6102ce60048036038101906102c99190612ad5565b6107ba565b005b6102ea60048036038101906102e59190612b35565b610880565b005b6102f4610982565b6040516103019190612ba7565b60405180910390f35b610312610998565b60405161031f9190612bd1565b60405180910390f35b610342600480360381019061033d9190612c0e565b610b21565b005b61035e60048036038101906103599190612b35565b610b8c565b005b61037a60048036038101906103759190612cad565b610bac565b005b610384610c21565b6040516103919190612d26565b60405180910390f35b6103b460048036038101906103af919061297b565b610c27565b6040516103c191906129e9565b60405180910390f35b6103e460048036038101906103df9190612d41565b610c39565b6040516103f19190612bd1565b60405180910390f35b610402610cf3565b005b61040c610e8a565b6040516104199190612ba7565b60405180910390f35b61042a610ea0565b6040516104379190612bd1565b60405180910390f35b610448610ea6565b60405161045591906129e9565b60405180910390f35b61047860048036038101906104739190612d41565b610ed0565b005b6104826110b1565b60405161048f9190612923565b60405180910390f35b6104a0611143565b6040516104ad9190612dcd565b60405180910390f35b6104d060048036038101906104cb9190612e14565b611169565b005b6104da61117f565b6040516104e79190612e71565b60405180910390f35b61050a6004803603810190610505919061297b565b611193565b60405161051791906129e9565b60405180910390f35b61053a60048036038101906105359190612fbc565b6111c6565b005b6105566004803603810190610551919061297b565b6111eb565b6040516105639190612923565b60405180910390f35b6105746112fe565b6040516105819190612bd1565b60405180910390f35b6105a4600480360381019061059f919061303f565b611304565b005b6105c060048036038101906105bb919061308c565b611469565b6040516105cd9190612878565b60405180910390f35b6105f060048036038101906105eb9190612d41565b6114fd565b005b6000634906490660e01b7bffffffffffffffffffffffffffffffffffffffffffffffffffffffff1916827bffffffffffffffffffffffffffffffffffffffffffffffffffffffff1916148061064c575061064b82611511565b5b9050919050565b606060008054610662906130fb565b80601f016020809104026020016040519081016040528092919081815260200182805461068e906130fb565b80156106db5780601f106106b0576101008083540402835291602001916106db565b820191906000526020600020905b8154815290600101906020018083116106be57829003601f168201915b5050505050905090565b60006106f0826115f3565b506106fa8261167b565b9050919050565b610713828261070e6116b8565b6116c0565b5050565b600f816005811061072757600080fd5b016000915090508054610739906130fb565b80601f0160208091040260200160405190810160405280929190818152602001828054610765906130fb565b80156107b25780601f10610787576101008083540402835291602001916107b2565b820191906000526020600020905b81548152906001019060200180831161079557829003601f168201915b505050505081565b600960009054906101000a900473ffffffffffffffffffffffffffffffffffffffff1673ffffffffffffffffffffffffffffffffffffffff163373ffffffffffffffffffffffffffffffffffffffff16146108705733600960009054906101000a900473ffffffffffffffffffffffffffffffffffffffff166040517f1cf993f400000000000000000000000000000000000000000000000000000000815260040161086792919061312c565b60405180910390fd5b61087b8383836116d2565b505050565b600073ffffffffffffffffffffffffffffffffffffffff168273ffffffffffffffffffffffffffffffffffffffff16036108f25760006040517f64a0ae920000000000000000000000000000000000000000000000000000000081526004016108e991906129e9565b60405180910390fd5b600061090683836109016116b8565b611809565b90508373ffffffffffffffffffffffffffffffffffffffff168173ffffffffffffffffffffffffffffffffffffffff161461097c578382826040517f64283d7b00000000000000000000000000000000000000000000000000000000815260040161097393929190613155565b60405180910390fd5b50505050565b600c60009054906101000a900463ffffffff1681565b6000806040518060c00160405280600b548152602001600a548152602001600c60049054906101000a900461ffff1661ffff168152602001600c60009054906101000a900463ffffffff1663ffffffff168152602001600c60069054906101000a900463ffffffff1663ffffffff168152602001610a26604051806020016040528060001515815250611a23565b8152509050600960009054906101000a900473ffffffffffffffffffffffffffffffffffffffff1673ffffffffffffffffffffffffffffffffffffffff16639b1c385e826040518263ffffffff1660e01b8152600401610a8691906132a6565b6020604051808303816000875af1158015610aa5573d6000803e3d6000fd5b505050506040513d601f19601f82011682018060405250810190610ac991906132dd565b915033600d600084815260200190815260200160002060006101000a81548173ffffffffffffffffffffffffffffffffffffffff021916908373ffffffffffffffffffffffffffffffffffffffff1602179055505090565b610b29611abb565b60005b6005811015610b8857818160058110610b4857610b4761330a565b5b602002810190610b589190613348565b600f8360058110610b6c57610b6b61330a565b5b019182610b7a929190613558565b508080600101915050610b2c565b5050565b610ba7838383604051806020016040528060008152506111c6565b505050565b610bb4611abb565b60058310610bf7576040517f08c379a0000000000000000000000000000000000000000000000000000000008152600401610bee90613674565b60405180910390fd5b8181600f8560058110610c0d57610c0c61330a565b5b019182610c1b929190613558565b50505050565b600b5481565b6000610c32826115f3565b9050919050565b60008073ffffffffffffffffffffffffffffffffffffffff168273ffffffffffffffffffffffffffffffffffffffff1603610cac5760006040517f89c62b64000000000000000000000000000000000000000000000000000000008152600401610ca391906129e9565b60405180910390fd5b600360008373ffffffffffffffffffffffffffffffffffffffff1673ffffffffffffffffffffffffffffffffffffffff168152602001908152602001600020549050919050565b600860009054906101000a900473ffffffffffffffffffffffffffffffffffffffff1673ffffffffffffffffffffffffffffffffffffffff163373ffffffffffffffffffffffffffffffffffffffff1614610d83576040517f08c379a0000000000000000000000000000000000000000000000000000000008152600401610d7a906136e0565b60405180910390fd5b6000600760009054906101000a900473ffffffffffffffffffffffffffffffffffffffff16905033600760006101000a81548173ffffffffffffffffffffffffffffffffffffffff021916908373ffffffffffffffffffffffffffffffffffffffff1602179055506000600860006101000a81548173ffffffffffffffffffffffffffffffffffffffff021916908373ffffffffffffffffffffffffffffffffffffffff1602179055503373ffffffffffffffffffffffffffffffffffffffff168173ffffffffffffffffffffffffffffffffffffffff167f8be0079c531659141344cd1fd0a4f28419497f9722a3daafe3b4186f6b6457e060405160405180910390a350565b600c60069054906101000a900463ffffffff1681565b600a5481565b6000600760009054906101000a900473ffffffffffffffffffffffffffffffffffffffff16905090565b610ed8610ea6565b73ffffffffffffffffffffffffffffffffffffffff163373ffffffffffffffffffffffffffffffffffffffff1614158015610f615750600960009054906101000a900473ffffffffffffffffffffffffffffffffffffffff1673ffffffffffffffffffffffffffffffffffffffff163373ffffffffffffffffffffffffffffffffffffffff1614155b15610fd05733610f6f610ea6565b600960009054906101000a900473ffffffffffffffffffffffffffffffffffffffff166040517f061db9c1000000000000000000000000000000000000000000000000000000008152600401610fc793929190613700565b60405180910390fd5b600073ffffffffffffffffffffffffffffffffffffffff168173ffffffffffffffffffffffffffffffffffffffff1603611036576040517fd92e233d00000000000000000000000000000000000000000000000000000000815260040160405180910390fd5b80600960006101000a81548173ffffffffffffffffffffffffffffffffffffffff021916908373ffffffffffffffffffffffffffffffffffffffff1602179055507fd1a6a14209a385a964d036e404cb5cfb71f4000cdb03c9366292430787261be6816040516110a691906129e9565b60405180910390a150565b6060600180546110c0906130fb565b80601f01602080910402602001604051908101604052809291908181526020018280546110ec906130fb565b80156111395780601f1061110e57610100808354040283529160200191611139565b820191906000526020600020905b81548152906001019060200180831161111c57829003601f168201915b5050505050905090565b600960009054906101000a900473ffffffffffffffffffffffffffffffffffffffff1681565b61117b6111746116b8565b8383611b4d565b5050565b600c60049054906101000a900461ffff1681565b600d6020528060005260406000206000915054906101000a900473ffffffffffffffffffffffffffffffffffffffff1681565b6111d1848484610880565b6111e56111dc6116b8565b85858585611cbc565b50505050565b60606111f6826115f3565b506000600660008481526020019081526020016000208054611217906130fb565b80601f0160208091040260200160405190810160405280929190818152602001828054611243906130fb565b80156112905780601f1061126557610100808354040283529160200191611290565b820191906000526020600020905b81548152906001019060200180831161127357829003601f168201915b5050505050905060006112a1611e6d565b905060008151036112b65781925050506112f9565b6000825111156112eb5780826040516020016112d3929190613773565b604051602081830303815290604052925050506112f9565b6112f484611e84565b925050505b919050565b600e5481565b61130c611abb565b818160405160200161131f929190613854565b604051602081830303815290604052600f6000600581106113435761134261330a565b5b0190816113509190613883565b5081816040516020016113649291906139a1565b604051602081830303815290604052600f6001600581106113885761138761330a565b5b0190816113959190613883565b5081816040516020016113a9929190613a1c565b604051602081830303815290604052600f6002600581106113cd576113cc61330a565b5b0190816113da9190613883565b5081816040516020016113ee929190613a97565b604051602081830303815290604052600f6003600581106114125761141161330a565b5b01908161141f9190613883565b508181604051602001611433929190613b12565b604051602081830303815290604052600f6004600581106114575761145661330a565b5b0190816114649190613883565b505050565b6000600560008473ffffffffffffffffffffffffffffffffffffffff1673ffffffffffffffffffffffffffffffffffffffff16815260200190815260200160002060008373ffffffffffffffffffffffffffffffffffffffff1673ffffffffffffffffffffffffffffffffffffffff16815260200190815260200160002060009054906101000a900460ff16905092915050565b611505611abb565b61150e81611eed565b50565b60007f80ac58cd000000000000000000000000000000000000000000000000000000007bffffffffffffffffffffffffffffffffffffffffffffffffffffffff1916827bffffffffffffffffffffffffffffffffffffffffffffffffffffffff191614806115dc57507f5b5e139f000000000000000000000000000000000000000000000000000000007bffffffffffffffffffffffffffffffffffffffffffffffffffffffff1916827bffffffffffffffffffffffffffffffffffffffffffffffffffffffff1916145b806115ec57506115eb8261201b565b5b9050919050565b6000806115ff83612085565b9050600073ffffffffffffffffffffffffffffffffffffffff168173ffffffffffffffffffffffffffffffffffffffff160361167257826040517f7e2732890000000000000000000000000000000000000000000000000000000081526004016116699190612bd1565b60405180910390fd5b80915050919050565b60006004600083815260200190815260200160002060009054906101000a900473ffffffffffffffffffffffffffffffffffffffff169050919050565b600033905090565b6116cd83838360016120c2565b505050565b6000600d600085815260200190815260200160002060009054906101000a900473ffffffffffffffffffffffffffffffffffffffff16905060006005848460008181106117225761172161330a565b5b905060200201356117339190613b70565b905061174182600e54612287565b6117ea600e54600f836005811061175b5761175a61330a565b5b018054611767906130fb565b80601f0160208091040260200160405190810160405280929190818152602001828054611793906130fb565b80156117e05780601f106117b5576101008083540402835291602001916117e0565b820191906000526020600020905b8154815290600101906020018083116117c357829003601f168201915b50505050506122a5565b600e60008154809291906117fd90613bd0565b91905055505050505050565b60008061181584612085565b9050600073ffffffffffffffffffffffffffffffffffffffff168373ffffffffffffffffffffffffffffffffffffffff161461185757611856818486612301565b5b600073ffffffffffffffffffffffffffffffffffffffff168173ffffffffffffffffffffffffffffffffffffffff16146118e8576118996000856000806120c2565b6001600360008373ffffffffffffffffffffffffffffffffffffffff1673ffffffffffffffffffffffffffffffffffffffff168152602001908152602001600020600082825403925050819055505b600073ffffffffffffffffffffffffffffffffffffffff168573ffffffffffffffffffffffffffffffffffffffff161461196b576001600360008773ffffffffffffffffffffffffffffffffffffffff1673ffffffffffffffffffffffffffffffffffffffff168152602001908152602001600020600082825401925050819055505b846002600086815260200190815260200160002060006101000a81548173ffffffffffffffffffffffffffffffffffffffff021916908373ffffffffffffffffffffffffffffffffffffffff160217905550838573ffffffffffffffffffffffffffffffffffffffff168273ffffffffffffffffffffffffffffffffffffffff167fddf252ad1be2c89b69c2b068fc378daa952ba7f163c4a11628f55a4df523b3ef60405160405180910390a4809150509392505050565b60607f92fd13387c7fe7befbc38d303d6468778fb9731bc4583f17d92989c6fcfdeaaa82604051602401611a579190613c43565b604051602081830303815290604052907bffffffffffffffffffffffffffffffffffffffffffffffffffffffff19166020820180517bffffffffffffffffffffffffffffffffffffffffffffffffffffffff83818316178352505050509050919050565b600760009054906101000a900473ffffffffffffffffffffffffffffffffffffffff1673ffffffffffffffffffffffffffffffffffffffff163373ffffffffffffffffffffffffffffffffffffffff1614611b4b576040517f08c379a0000000000000000000000000000000000000000000000000000000008152600401611b4290613caa565b60405180910390fd5b565b600073ffffffffffffffffffffffffffffffffffffffff168273ffffffffffffffffffffffffffffffffffffffff1603611bbe57816040517f5b08ba18000000000000000000000000000000000000000000000000000000008152600401611bb591906129e9565b60405180910390fd5b80600560008573ffffffffffffffffffffffffffffffffffffffff1673ffffffffffffffffffffffffffffffffffffffff16815260200190815260200160002060008473ffffffffffffffffffffffffffffffffffffffff1673ffffffffffffffffffffffffffffffffffffffff16815260200190815260200160002060006101000a81548160ff0219169083151502179055508173ffffffffffffffffffffffffffffffffffffffff168373ffffffffffffffffffffffffffffffffffffffff167f17307eab39ab6107e8899845ad3d59bd9653f200f220920489ca2b5937696c3183604051611caf9190612878565b60405180910390a3505050565b60008373ffffffffffffffffffffffffffffffffffffffff163b1115611e66578273ffffffffffffffffffffffffffffffffffffffff1663150b7a02868685856040518563ffffffff1660e01b8152600401611d1b9493929190613d14565b6020604051808303816000875af1925050508015611d5757506040513d601f19601f82011682018060405250810190611d549190613d75565b60015b611ddb573d8060008114611d87576040519150601f19603f3d011682016040523d82523d6000602084013e611d8c565b606091505b506000815103611dd357836040517f64a0ae92000000000000000000000000000000000000000000000000000000008152600401611dca91906129e9565b60405180910390fd5b805181602001fd5b63150b7a0260e01b7bffffffffffffffffffffffffffffffffffffffffffffffffffffffff1916817bffffffffffffffffffffffffffffffffffffffffffffffffffffffff191614611e6457836040517f64a0ae92000000000000000000000000000000000000000000000000000000008152600401611e5b91906129e9565b60405180910390fd5b505b5050505050565b606060405180602001604052806000815250905090565b6060611e8f826115f3565b506000611e9a611e6d565b90506000815111611eba5760405180602001604052806000815250611ee5565b80611ec4846123c5565b604051602001611ed5929190613773565b6040516020818303038152906040525b915050919050565b3373ffffffffffffffffffffffffffffffffffffffff168173ffffffffffffffffffffffffffffffffffffffff1603611f5b576040517f08c379a0000000000000000000000000000000000000000000000000000000008152600401611f5290613dee565b60405180910390fd5b80600860006101000a81548173ffffffffffffffffffffffffffffffffffffffff021916908373ffffffffffffffffffffffffffffffffffffffff1602179055508073ffffffffffffffffffffffffffffffffffffffff16600760009054906101000a900473ffffffffffffffffffffffffffffffffffffffff1673ffffffffffffffffffffffffffffffffffffffff167fed8889f560326eb138920d842192f0eb3dd22b4f139c87a2c57538e05bae127860405160405180910390a350565b60007f01ffc9a7000000000000000000000000000000000000000000000000000000007bffffffffffffffffffffffffffffffffffffffffffffffffffffffff1916827bffffffffffffffffffffffffffffffffffffffffffffffffffffffff1916149050919050565b60006002600083815260200190815260200160002060009054906101000a900473ffffffffffffffffffffffffffffffffffffffff169050919050565b80806120fb5750600073ffffffffffffffffffffffffffffffffffffffff168273ffffffffffffffffffffffffffffffffffffffff1614155b1561222f57600061210b846115f3565b9050600073ffffffffffffffffffffffffffffffffffffffff168373ffffffffffffffffffffffffffffffffffffffff161415801561217657508273ffffffffffffffffffffffffffffffffffffffff168173ffffffffffffffffffffffffffffffffffffffff1614155b801561218957506121878184611469565b155b156121cb57826040517fa9fbf51f0000000000000000000000000000000000000000000000000000000081526004016121c291906129e9565b60405180910390fd5b811561222d57838573ffffffffffffffffffffffffffffffffffffffff168273ffffffffffffffffffffffffffffffffffffffff167f8c5be1e5ebec7d5bd14f71427d1e84f3dd0314c0f7b2291e5b200ac8c7c3b92560405160405180910390a45b505b836004600085815260200190815260200160002060006101000a81548173ffffffffffffffffffffffffffffffffffffffff021916908373ffffffffffffffffffffffffffffffffffffffff16021790555050505050565b6122a1828260405180602001604052806000815250612493565b5050565b806006600084815260200190815260200160002090816122c59190613883565b507ff8e1a15aba9398e019f0b49df1a4fde98ee17ae345cb5f6b5e2c27f5033e8ce7826040516122f59190612bd1565b60405180910390a15050565b61230c8383836124b7565b6123c057600073ffffffffffffffffffffffffffffffffffffffff168373ffffffffffffffffffffffffffffffffffffffff160361238157806040517f7e2732890000000000000000000000000000000000000000000000000000000081526004016123789190612bd1565b60405180910390fd5b81816040517f177e802f0000000000000000000000000000000000000000000000000000000081526004016123b7929190613e0e565b60405180910390fd5b505050565b6060600060016123d484612578565b01905060008167ffffffffffffffff8111156123f3576123f2612e91565b5b6040519080825280601f01601f1916602001820160405280156124255781602001600182028036833780820191505090505b509050600082602001820190505b600115612488578080600190039150507f3031323334353637383961626364656600000000000000000000000000000000600a86061a8153600a858161247c5761247b613b41565b5b04945060008503612433575b819350505050919050565b61249d83836126cb565b6124b26124a86116b8565b6000858585611cbc565b505050565b60008073ffffffffffffffffffffffffffffffffffffffff168373ffffffffffffffffffffffffffffffffffffffff161415801561256f57508273ffffffffffffffffffffffffffffffffffffffff168473ffffffffffffffffffffffffffffffffffffffff161480612530575061252f8484611469565b5b8061256e57508273ffffffffffffffffffffffffffffffffffffffff166125568361167b565b73ffffffffffffffffffffffffffffffffffffffff16145b5b90509392505050565b600080600090507a184f03e93ff9f4daa797ed6e38ed64bf6a1f01000000000000000083106125d6577a184f03e93ff9f4daa797ed6e38ed64bf6a1f01000000000000000083816125cc576125cb613b41565b5b0492506040810190505b6d04ee2d6d415b85acef81000000008310612613576d04ee2d6d415b85acef8100000000838161260957612608613b41565b5b0492506020810190505b662386f26fc10000831061264257662386f26fc10000838161263857612637613b41565b5b0492506010810190505b6305f5e100831061266b576305f5e100838161266157612660613b41565b5b0492506008810190505b612710831061269057612710838161268657612685613b41565b5b0492506004810190505b606483106126b357606483816126a9576126a8613b41565b5b0492506002810190505b600a83106126c2576001810190505b80915050919050565b600073ffffffffffffffffffffffffffffffffffffffff168273ffffffffffffffffffffffffffffffffffffffff160361273d5760006040517f64a0ae9200000000000000000000000000000000000000000000000000000000815260040161273491906129e9565b60405180910390fd5b600061274b83836000611809565b9050600073ffffffffffffffffffffffffffffffffffffffff168173ffffffffffffffffffffffffffffffffffffffff16146127bf5760006040517f73c6ac6e0000000000000000000000000000000000000000000000000000000081526004016127b691906129e9565b60405180910390fd5b505050565b6000604051905090565b600080fd5b600080fd5b60007fffffffff0000000000000000000000000000000000000000000000000000000082169050919050565b61280d816127d8565b811461281857600080fd5b50565b60008135905061282a81612804565b92915050565b600060208284031215612846576128456127ce565b5b60006128548482850161281b565b91505092915050565b60008115159050919050565b6128728161285d565b82525050565b600060208201905061288d6000830184612869565b92915050565b600081519050919050565b600082825260208201905092915050565b60005b838110156128cd5780820151818401526020810190506128b2565b60008484015250505050565b6000601f19601f8301169050919050565b60006128f582612893565b6128ff818561289e565b935061290f8185602086016128af565b612918816128d9565b840191505092915050565b6000602082019050818103600083015261293d81846128ea565b905092915050565b6000819050919050565b61295881612945565b811461296357600080fd5b50565b6000813590506129758161294f565b92915050565b600060208284031215612991576129906127ce565b5b600061299f84828501612966565b91505092915050565b600073ffffffffffffffffffffffffffffffffffffffff82169050919050565b60006129d3826129a8565b9050919050565b6129e3816129c8565b82525050565b60006020820190506129fe60008301846129da565b92915050565b612a0d816129c8565b8114612a1857600080fd5b50565b600081359050612a2a81612a04565b92915050565b60008060408385031215612a4757612a466127ce565b5b6000612a5585828601612a1b565b9250506020612a6685828601612966565b9150509250929050565b600080fd5b600080fd5b600080fd5b60008083601f840112612a9557612a94612a70565b5b8235905067ffffffffffffffff811115612ab257612ab1612a75565b5b602083019150836020820283011115612ace57612acd612a7a565b5b9250929050565b600080600060408486031215612aee57612aed6127ce565b5b6000612afc86828701612966565b935050602084013567ffffffffffffffff811115612b1d57612b1c6127d3565b5b612b2986828701612a7f565b92509250509250925092565b600080600060608486031215612b4e57612b4d6127ce565b5b6000612b5c86828701612a1b565b9350506020612b6d86828701612a1b565b9250506040612b7e86828701612966565b9150509250925092565b600063ffffffff82169050919050565b612ba181612b88565b82525050565b6000602082019050612bbc6000830184612b98565b92915050565b612bcb81612945565b82525050565b6000602082019050612be66000830184612bc2565b92915050565b600081905082602060050282011115612c0857612c07612a7a565b5b92915050565b600060208284031215612c2457612c236127ce565b5b600082013567ffffffffffffffff811115612c4257612c416127d3565b5b612c4e84828501612bec565b91505092915050565b60008083601f840112612c6d57612c6c612a70565b5b8235905067ffffffffffffffff811115612c8a57612c89612a75565b5b602083019150836001820283011115612ca657612ca5612a7a565b5b9250929050565b600080600060408486031215612cc657612cc56127ce565b5b6000612cd486828701612966565b935050602084013567ffffffffffffffff811115612cf557612cf46127d3565b5b612d0186828701612c57565b92509250509250925092565b6000819050919050565b612d2081612d0d565b82525050565b6000602082019050612d3b6000830184612d17565b92915050565b600060208284031215612d5757612d566127ce565b5b6000612d6584828501612a1b565b91505092915050565b6000819050919050565b6000612d93612d8e612d89846129a8565b612d6e565b6129a8565b9050919050565b6000612da582612d78565b9050919050565b6000612db782612d9a565b9050919050565b612dc781612dac565b82525050565b6000602082019050612de26000830184612dbe565b92915050565b612df18161285d565b8114612dfc57600080fd5b50565b600081359050612e0e81612de8565b92915050565b60008060408385031215612e2b57612e2a6127ce565b5b6000612e3985828601612a1b565b9250506020612e4a85828601612dff565b9150509250929050565b600061ffff82169050919050565b612e6b81612e54565b82525050565b6000602082019050612e866000830184612e62565b92915050565b600080fd5b7f4e487b7100000000000000000000000000000000000000000000000000000000600052604160045260246000fd5b612ec9826128d9565b810181811067ffffffffffffffff82111715612ee857612ee7612e91565b5b80604052505050565b6000612efb6127c4565b9050612f078282612ec0565b919050565b600067ffffffffffffffff821115612f2757612f26612e91565b5b612f30826128d9565b9050602081019050919050565b82818337600083830152505050565b6000612f5f612f5a84612f0c565b612ef1565b905082815260208101848484011115612f7b57612f7a612e8c565b5b612f86848285612f3d565b509392505050565b600082601f830112612fa357612fa2612a70565b5b8135612fb3848260208601612f4c565b91505092915050565b60008060008060808587031215612fd657612fd56127ce565b5b6000612fe487828801612a1b565b9450506020612ff587828801612a1b565b935050604061300687828801612966565b925050606085013567ffffffffffffffff811115613027576130266127d3565b5b61303387828801612f8e565b91505092959194509250565b60008060208385031215613056576130556127ce565b5b600083013567ffffffffffffffff811115613074576130736127d3565b5b61308085828601612c57565b92509250509250929050565b600080604083850312156130a3576130a26127ce565b5b60006130b185828601612a1b565b92505060206130c285828601612a1b565b9150509250929050565b7f4e487b7100000000000000000000000000000000000000000000000000000000600052602260045260246000fd5b6000600282049050600182168061311357607f821691505b602082108103613126576131256130cc565b5b50919050565b600060408201905061314160008301856129da565b61314e60208301846129da565b9392505050565b600060608201905061316a60008301866129da565b6131776020830185612bc2565b61318460408301846129da565b949350505050565b61319581612d0d565b82525050565b6131a481612945565b82525050565b6131b381612e54565b82525050565b6131c281612b88565b82525050565b600081519050919050565b600082825260208201905092915050565b60006131ef826131c8565b6131f981856131d3565b93506132098185602086016128af565b613212816128d9565b840191505092915050565b600060c083016000830151613235600086018261318c565b506020830151613248602086018261319b565b50604083015161325b60408601826131aa565b50606083015161326e60608601826131b9565b50608083015161328160808601826131b9565b5060a083015184820360a086015261329982826131e4565b9150508091505092915050565b600060208201905081810360008301526132c0818461321d565b905092915050565b6000815190506132d78161294f565b92915050565b6000602082840312156132f3576132f26127ce565b5b6000613301848285016132c8565b91505092915050565b7f4e487b7100000000000000000000000000000000000000000000000000000000600052603260045260246000fd5b600080fd5b600080fd5b600080fd5b6000808335600160200384360303811261336557613364613339565b5b80840192508235915067ffffffffffffffff8211156133875761338661333e565b5b6020830192506001820236038313156133a3576133a2613343565b5b509250929050565b600082905092915050565b60008190508160005260206000209050919050565b60006020601f8301049050919050565b600082821b905092915050565b6000600883026134187fffffffffffffffffffffffffffffffffffffffffffffffffffffffffffffffff826133db565b61342286836133db565b95508019841693508086168417925050509392505050565b600061345561345061344b84612945565b612d6e565b612945565b9050919050565b6000819050919050565b61346f8361343a565b61348361347b8261345c565b8484546133e8565b825550505050565b600090565b61349861348b565b6134a3818484613466565b505050565b5b818110156134c7576134bc600082613490565b6001810190506134a9565b5050565b601f82111561350c576134dd816133b6565b6134e6846133cb565b810160208510156134f5578190505b613509613501856133cb565b8301826134a8565b50505b505050565b600082821c905092915050565b600061352f60001984600802613511565b1980831691505092915050565b6000613548838361351e565b9150826002028217905092915050565b61356283836133ab565b67ffffffffffffffff81111561357b5761357a612e91565b5b61358582546130fb565b6135908282856134cb565b6000601f8311600181146135bf57600084156135ad578287013590505b6135b7858261353c565b86555061361f565b601f1984166135cd866133b6565b60005b828110156135f5578489013582556001820191506020850194506020810190506135d0565b86831015613612578489013561360e601f89168261351e565b8355505b6001600288020188555050505b50505050505050565b7f696e76616c696420696e64657800000000000000000000000000000000000000600082015250565b600061365e600d8361289e565b915061366982613628565b602082019050919050565b6000602082019050818103600083015261368d81613651565b9050919050565b7f4d7573742062652070726f706f736564206f776e657200000000000000000000600082015250565b60006136ca60168361289e565b91506136d582613694565b602082019050919050565b600060208201905081810360008301526136f9816136bd565b9050919050565b600060608201905061371560008301866129da565b61372260208301856129da565b61372f60408301846129da565b949350505050565b600081905092915050565b600061374d82612893565b6137578185613737565b93506137678185602086016128af565b80840191505092915050565b600061377f8285613742565b915061378b8284613742565b91508190509392505050565b7f697066733a2f2f00000000000000000000000000000000000000000000000000600082015250565b60006137cd600783613737565b91506137d882613797565b600782019050919050565b60006137ef8385613737565b93506137fc838584612f3d565b82840190509392505050565b7f2f6461696b696368692e6a736f6e000000000000000000000000000000000000600082015250565b600061383e600e83613737565b915061384982613808565b600e82019050919050565b600061385f826137c0565b915061386c8284866137e3565b915061387782613831565b91508190509392505050565b61388c82612893565b67ffffffffffffffff8111156138a5576138a4612e91565b5b6138af82546130fb565b6138ba8282856134cb565b600060209050601f8311600181146138ed57600084156138db578287015190505b6138e5858261353c565b86555061394d565b601f1984166138fb866133b6565b60005b82811015613923578489015182556001820191506020850194506020810190506138fe565b86831015613940578489015161393c601f89168261351e565b8355505b6001600288020188555050505b505050505050565b7f2f6b696368692e6a736f6e000000000000000000000000000000000000000000600082015250565b600061398b600b83613737565b915061399682613955565b600b82019050919050565b60006139ac826137c0565b91506139b98284866137e3565b91506139c48261397e565b91508190509392505050565b7f2f636875756b696368692e6a736f6e0000000000000000000000000000000000600082015250565b6000613a06600f83613737565b9150613a11826139d0565b600f82019050919050565b6000613a27826137c0565b9150613a348284866137e3565b9150613a3f826139f9565b91508190509392505050565b7f2f73796f756b696368692e6a736f6e0000000000000000000000000000000000600082015250565b6000613a81600f83613737565b9150613a8c82613a4b565b600f82019050919050565b6000613aa2826137c0565b9150613aaf8284866137e3565b9150613aba82613a74565b91508190509392505050565b7f2f6b796f752e6a736f6e00000000000000000000000000000000000000000000600082015250565b6000613afc600a83613737565b9150613b0782613ac6565b600a82019050919050565b6000613b1d826137c0565b9150613b2a8284866137e3565b9150613b3582613aef565b91508190509392505050565b7f4e487b7100000000000000000000000000000000000000000000000000000000600052601260045260246000fd5b6000613b7b82612945565b9150613b8683612945565b925082613b9657613b95613b41565b5b828206905092915050565b7f4e487b7100000000000000000000000000000000000000000000000000000000600052601160045260246000fd5b6000613bdb82612945565b91507fffffffffffffffffffffffffffffffffffffffffffffffffffffffffffffffff8203613c0d57613c0c613ba1565b5b600182019050919050565b613c218161285d565b82525050565b602082016000820151613c3d6000850182613c18565b50505050565b6000602082019050613c586000830184613c27565b92915050565b7f4f6e6c792063616c6c61626c65206279206f776e657200000000000000000000600082015250565b6000613c9460168361289e565b9150613c9f82613c5e565b602082019050919050565b60006020820190508181036000830152613cc381613c87565b9050919050565b600082825260208201905092915050565b6000613ce6826131c8565b613cf08185613cca565b9350613d008185602086016128af565b613d09816128d9565b840191505092915050565b6000608082019050613d2960008301876129da565b613d3660208301866129da565b613d436040830185612bc2565b8181036060830152613d558184613cdb565b905095945050505050565b600081519050613d6f81612804565b92915050565b600060208284031215613d8b57613d8a6127ce565b5b6000613d9984828501613d60565b91505092915050565b7f43616e6e6f74207472616e7366657220746f2073656c66000000000000000000600082015250565b6000613dd860178361289e565b9150613de382613da2565b602082019050919050565b60006020820190508181036000830152613e0781613dcb565b9050919050565b6000604082019050613e2360008301856129da565b613e306020830184612bc2565b939250505056fea26469706673582212200ed6f9e07b5e153000e33f32556a7cff10dfcc0f6d05dca481c77ae5d9cb3ca564736f6c634300081c0033",
  "linkReferences": {},
  "deployedLinkReferences": {}
}