{
  "_format": "hh-sol-artifact-1",
  "contractName": "OmikujiNFT",
  "sourceName": "contracts/OmikujiNFT.sol",
  "abi": [
    {
      "inputs": [
        {
          "internalType": "string[5]",
          "name": "_uris",
          "type": "string[5]"
        },
        {
          "internalType": "address",
          "name": "vrfCoordinator",
          "type": "address"
        },
        {
          "internalType": "uint256",
          "name": "subscriptionId",
          "type": "uint256"
        },
        {
          "internalType": "bytes32",
          "name": "_keyHash",
          "type": "bytes32"
        }
      ],
      "stateMutability": "nonpayable",
      "type": "constructor"
    },
    {
      "inputs": [
        {
          "internalType": "address",
          "name": "sender",
          "type": "address"
        },
        {
          "internalType": "uint256",
          "name": "tokenId",
          "type": "uint256"
        },
        {
          "internalType": "address",
          "name": "owner",
          "type": "address"
        }
      ],
      "name": "ERC721IncorrectOwner",
      "type": "error"
    },
    {
      "inputs": [
        {
          "internalType": "address",
          "name": "operator",
          "type": "address"
        },
        {
          "internalType": "uint256",
          "name": "tokenId",
          "type": "uint256"
        }
      ],
      "name": "ERC721InsufficientApproval",
      "type": "error"
    },
    {
      "inputs": [
        {
          "internalType": "address",
          "name": "approver",
          "type": "address"
        }
      ],
      "name": "ERC721InvalidApprover",
      "type": "error"
    },
    {
      "inputs": [
        {
          "internalType": "address",
          "name": "operator",
          "type": "address"
        }
      ],
      "name": "ERC721InvalidOperator",
      "type": "error"
    },
    {
      "inputs": [
        {
          "internalType": "address",
          "name": "owner",
          "type": "address"
        }
      ],
      "name": "ERC721InvalidOwner",
      "type": "error"
    },
    {
      "inputs": [
        {
          "internalType": "address",
          "name": "receiver",
          "type": "address"
        }
      ],
      "name": "ERC721InvalidReceiver",
      "type": "error"
    },
    {
      "inputs": [
        {
          "internalType": "address",
          "name": "sender",
          "type": "address"
        }
      ],
      "name": "ERC721InvalidSender",
      "type": "error"
    },
    {
      "inputs": [
        {
          "internalType": "uint256",
          "name": "tokenId",
          "type": "uint256"
        }
      ],
      "name": "ERC721NonexistentToken",
      "type": "error"
    },
    {
      "inputs": [
        {
          "internalType": "address",
          "name": "have",
          "type": "address"
        },
        {
          "internalType": "address",
          "name": "want",
          "type": "address"
        }
      ],
      "name": "OnlyCoordinatorCanFulfill",
      "type": "error"
    },
    {
      "inputs": [
        {
          "internalType": "address",
          "name": "have",
          "type": "address"
        },
        {
          "internalType": "address",
          "name": "owner",
          "type": "address"
        },
        {
          "internalType": "address",
          "name": "coordinator",
          "type": "address"
        }
      ],
      "name": "OnlyOwnerOrCoordinator",
      "type": "error"
    },
    {
      "inputs": [],
      "name": "ZeroAddress",
      "type": "error"
    },
    {
      "anonymous": false,
      "inputs": [
        {
          "indexed": true,
          "internalType": "address",
          "name": "owner",
          "type": "address"
        },
        {
          "indexed": true,
          "internalType": "address",
          "name": "approved",
          "type": "address"
        },
        {
          "indexed": true,
          "internalType": "uint256",
          "name": "tokenId",
          "type": "uint256"
        }
      ],
      "name": "Approval",
      "type": "event"
    },
    {
      "anonymous": false,
      "inputs": [
        {
          "indexed": true,
          "internalType": "address",
          "name": "owner",
          "type": "address"
        },
        {
          "indexed": true,
          "internalType": "address",
          "name": "operator",
          "type": "address"
        },
        {
          "indexed": false,
          "internalType": "bool",
          "name": "approved",
          "type": "bool"
        }
      ],
      "name": "ApprovalForAll",
      "type": "event"
    },
    {
      "anonymous": false,
      "inputs": [
        {
          "indexed": false,
          "internalType": "uint256",
          "name": "_fromTokenId",
          "type": "uint256"
        },
        {
          "indexed": false,
          "internalType": "uint256",
          "name": "_toTokenId",
          "type": "uint256"
        }
      ],
      "name": "BatchMetadataUpdate",
      "type": "event"
    },
    {
      "anonymous": false,
      "inputs": [
        {
          "indexed": false,
          "internalType": "address",
          "name": "vrfCoordinator",
          "type": "address"
        }
      ],
      "name": "CoordinatorSet",
      "type": "event"
    },
    {
      "anonymous": false,
      "inputs": [
        {
          "indexed": false,
          "internalType": "uint256",
          "name": "_tokenId",
          "type": "uint256"
        }
      ],
      "name": "MetadataUpdate",
      "type": "event"
    },
    {
      "anonymous": false,
      "inputs": [
        {
          "indexed": true,
          "internalType": "address",
          "name": "from",
          "type": "address"
        },
        {
          "indexed": true,
          "internalType": "address",
          "name": "to",
          "type": "address"
        }
      ],
      "name": "OwnershipTransferRequested",
      "type": "event"
    },
    {
      "anonymous": false,
      "inputs": [
        {
          "indexed": true,
          "internalType": "address",
          "name": "from",
          "type": "address"
        },
        {
          "indexed": true,
          "internalType": "address",
          "name": "to",
          "type": "address"
        }
      ],
      "name": "OwnershipTransferred",
      "type": "event"
    },
    {
      "anonymous": false,
      "inputs": [
        {
          "indexed": true,
          "internalType": "address",
          "name": "from",
          "type": "address"
        },
        {
          "indexed": true,
          "internalType": "address",
          "name": "to",
          "type": "address"
        },
        {
          "indexed": true,
          "internalType": "uint256",
          "name": "tokenId",
          "type": "uint256"
        }
      ],
      "name": "Transfer",
      "type": "event"
    },
    {
      "inputs": [],
      "name": "acceptOwnership",
      "outputs": [],
      "stateMutability": "nonpayable",
      "type": "function"
    },
    {
      "inputs": [
        {
          "internalType": "address",
          "name": "to",
          "type": "address"
        },
        {
          "internalType": "uint256",
          "name": "tokenId",
          "type": "uint256"
        }
      ],
      "name": "approve",
      "outputs": [],
      "stateMutability": "nonpayable",
      "type": "function"
    },
    {
      "inputs": [
        {
          "internalType": "address",
          "name": "owner",
          "type": "address"
        }
      ],
      "name": "balanceOf",
      "outputs": [
        {
          "internalType": "uint256",
          "name": "",
          "type": "uint256"
        }
      ],
      "stateMutability": "view",
      "type": "function"
    },
    {
      "inputs": [],
      "name": "callbackGasLimit",
      "outputs": [
        {
          "internalType": "uint32",
          "name": "",
          "type": "uint32"
        }
      ],
      "stateMutability": "view",
      "type": "function"
    },
    {
      "inputs": [
        {
          "internalType": "uint256",
          "name": "tokenId",
          "type": "uint256"
        }
      ],
      "name": "getApproved",
      "outputs": [
        {
          "internalType": "address",
          "name": "",
          "type": "address"
        }
      ],
      "stateMutability": "view",
      "type": "function"
    },
    {
      "inputs": [
        {
          "internalType": "address",
          "name": "owner",
          "type": "address"
        },
        {
          "internalType": "address",
          "name": "operator",
          "type": "address"
        }
      ],
      "name": "isApprovedForAll",
      "outputs": [
        {
          "internalType": "bool",
          "name": "",
          "type": "bool"
        }
      ],
      "stateMutability": "view",
      "type": "function"
    },
    {
      "inputs": [],
      "name": "keyHash",
      "outputs": [
        {
          "internalType": "bytes32",
          "name": "",
          "type": "bytes32"
        }
      ],
      "stateMutability": "view",
      "type": "function"
    },
    {
      "inputs": [],
      "name": "mintOmikuji",
      "outputs": [
        {
          "internalType": "uint256",
          "name": "requestId",
          "type": "uint256"
        }
      ],
      "stateMutability": "nonpayable",
      "type": "function"
    },
    {
      "inputs": [],
      "name": "name",
      "outputs": [
        {
          "internalType": "string",
          "name": "",
          "type": "string"
        }
      ],
      "stateMutability": "view",
      "type": "function"
    },
    {
      "inputs": [],
      "name": "numWords",
      "outputs": [
        {
          "internalType": "uint32",
          "name": "",
          "type": "uint32"
        }
      ],
      "stateMutability": "view",
      "type": "function"
    },
    {
      "inputs": [],
      "name": "owner",
      "outputs": [
        {
          "internalType": "address",
          "name": "",
          "type": "address"
        }
      ],
      "stateMutability": "view",
      "type": "function"
    },
    {
      "inputs": [
        {
          "internalType": "uint256",
          "name": "tokenId",
          "type": "uint256"
        }
      ],
      "name": "ownerOf",
      "outputs": [
        {
          "internalType": "address",
          "name": "",
          "type": "address"
        }
      ],
      "stateMutability": "view",
      "type": "function"
    },
    {
      "inputs": [
        {
          "internalType": "uint256",
          "name": "requestId",
          "type": "uint256"
        },
        {
          "internalType": "uint256[]",
          "name": "randomWords",
          "type": "uint256[]"
        }
      ],
      "name": "rawFulfillRandomWords",
      "outputs": [],
      "stateMutability": "nonpayable",
      "type": "function"
    },
    {
      "inputs": [],
      "name": "requestConfirmations",
      "outputs": [
        {
          "internalType": "uint16",
          "name": "",
          "type": "uint16"
        }
      ],
      "stateMutability": "view",
      "type": "function"
    },
    {
      "inputs": [
        {
          "internalType": "uint256",
          "name": "",
          "type": "uint256"
        }
      ],
      "name": "requestToSender",
      "outputs": [
        {
          "internalType": "address",
          "name": "",
          "type": "address"
        }
      ],
      "stateMutability": "view",
      "type": "function"
    },
    {
      "inputs": [],
      "name": "s_subscriptionId",
      "outputs": [
        {
          "internalType": "uint256",
          "name": "",
          "type": "uint256"
        }
      ],
      "stateMutability": "view",
      "type": "function"
    },
    {
      "inputs": [],
      "name": "s_vrfCoordinator",
      "outputs": [
        {
          "internalType": "contract IVRFCoordinatorV2Plus",
          "name": "",
          "type": "address"
        }
      ],
      "stateMutability": "view",
      "type": "function"
    },
    {
      "inputs": [
        {
          "internalType": "address",
          "name": "from",
          "type": "address"
        },
        {
          "internalType": "address",
          "name": "to",
          "type": "address"
        },
        {
          "internalType": "uint256",
          "name": "tokenId",
          "type": "uint256"
        }
      ],
      "name": "safeTransferFrom",
      "outputs": [],
      "stateMutability": "nonpayable",
      "type": "function"
    },
    {
      "inputs": [
        {
          "internalType": "address",
          "name": "from",
          "type": "address"
        },
        {
          "internalType": "address",
          "name": "to",
          "type": "address"
        },
        {
          "internalType": "uint256",
          "name": "tokenId",
          "type": "uint256"
        },
        {
          "internalType": "bytes",
          "name": "data",
          "type": "bytes"
        }
      ],
      "name": "safeTransferFrom",
      "outputs": [],
      "stateMutability": "nonpayable",
      "type": "function"
    },
    {
      "inputs": [
        {
          "internalType": "address",
          "name": "operator",
          "type": "address"
        },
        {
          "internalType": "bool",
          "name": "approved",
          "type": "bool"
        }
      ],
      "name": "setApprovalForAll",
      "outputs": [],
      "stateMutability": "nonpayable",
      "type": "function"
    },
    {
      "inputs": [
        {
          "internalType": "address",
          "name": "_vrfCoordinator",
          "type": "address"
        }
      ],
      "name": "setCoordinator",
      "outputs": [],
      "stateMutability": "nonpayable",
      "type": "function"
    },
    {
      "inputs": [
        {
          "internalType": "string[5]",
          "name": "newUris",
          "type": "string[5]"
        }
      ],
      "name": "setIpfsUris",
      "outputs": [],
      "stateMutability": "nonpayable",
      "type": "function"
    },
    {
      "inputs": [
        {
          "internalType": "bytes4",
          "name": "interfaceId",
          "type": "bytes4"
        }
      ],
      "name": "supportsInterface",
      "outputs": [
        {
          "internalType": "bool",
          "name": "",
          "type": "bool"
        }
      ],
      "stateMutability": "view",
      "type": "function"
    },
    {
      "inputs": [],
      "name": "symbol",
      "outputs": [
        {
          "internalType": "string",
          "name": "",
          "type": "string"
        }
      ],
      "stateMutability": "view",
      "type": "function"
    },
    {
      "inputs": [],
      "name": "tokenCounter",
      "outputs": [
        {
          "internalType": "uint256",
          "name": "",
          "type": "uint256"
        }
      ],
      "stateMutability": "view",
      "type": "function"
    },
    {
      "inputs": [
        {
          "internalType": "uint256",
          "name": "tokenId",
          "type": "uint256"
        }
      ],
      "name": "tokenURI",
      "outputs": [
        {
          "internalType": "string",
          "name": "",
          "type": "string"
        }
      ],
      "stateMutability": "view",
      "type": "function"
    },
    {
      "inputs": [
        {
          "internalType": "address",
          "name": "from",
          "type": "address"
        },
        {
          "internalType": "address",
          "name": "to",
          "type": "address"
        },
        {
          "internalType": "uint256",
          "name": "tokenId",
          "type": "uint256"
        }
      ],
      "name": "transferFrom",
      "outputs": [],
      "stateMutability": "nonpayable",
      "type": "function"
    },
    {
      "inputs": [
        {
          "internalType": "address",
          "name": "to",
          "type": "address"
        }
      ],
      "name": "transferOwnership",
      "outputs": [],
      "stateMutability": "nonpayable",
      "type": "function"
    },
    {
      "inputs": [
        {
          "internalType": "uint256",
          "name": "index",
          "type": "uint256"
        },
        {
          "internalType": "string",
          "name": "newUri",
          "type": "string"
        }
      ],
      "name": "updateIpfsUri",
      "outputs": [],
      "stateMutability": "nonpayable",
      "type": "function"
    },
    {
      "inputs": [
        {
          "internalType": "uint256",
          "name": "",
          "type": "uint256"
        }
      ],
      "name": "uris",
      "outputs": [
        {
          "internalType": "string",
          "name": "",
          "type": "string"
        }
      ],
      "stateMutability": "view",
      "type": "function"
    }
  ],
  "bytecode": "0x6080604052622625a0600c60006101000a81548163ffffffff021916908363ffffffff1602179055506003600c60046101000a81548161ffff021916908361ffff1602179055506001600c60066101000a81548163ffffffff021916908363ffffffff16021790555034801561007457600080fd5b5060405161462738038061462783398181016040528101906100969190610807565b82338060006040518060400160405280600a81526020017f4f6d696b756a694e4654000000000000000000000000000000000000000000008152506040518060400160405280600381526020017f4f4d4b000000000000000000000000000000000000000000000000000000000081525081600090816101169190610aa1565b5080600190816101269190610aa1565b505050600073ffffffffffffffffffffffffffffffffffffffff168273ffffffffffffffffffffffffffffffffffffffff1603610198576040517f08c379a000000000000000000000000000000000000000000000000000000000815260040161018f90610bd0565b60405180910390fd5b81600760006101000a81548173ffffffffffffffffffffffffffffffffffffffff021916908373ffffffffffffffffffffffffffffffffffffffff160217905550600073ffffffffffffffffffffffffffffffffffffffff168173ffffffffffffffffffffffffffffffffffffffff161461021d5761021c816102f960201b60201c565b5b505050600073ffffffffffffffffffffffffffffffffffffffff168173ffffffffffffffffffffffffffffffffffffffff1603610286576040517fd92e233d00000000000000000000000000000000000000000000000000000000815260040160405180910390fd5b80600960006101000a81548173ffffffffffffffffffffffffffffffffffffffff021916908373ffffffffffffffffffffffffffffffffffffffff1602179055505083600f9060056102d9929190610427565b5081600a8190555080600b819055506000600e8190555050505050610c5c565b3373ffffffffffffffffffffffffffffffffffffffff168173ffffffffffffffffffffffffffffffffffffffff1603610367576040517f08c379a000000000000000000000000000000000000000000000000000000000815260040161035e90610c3c565b60405180910390fd5b80600860006101000a81548173ffffffffffffffffffffffffffffffffffffffff021916908373ffffffffffffffffffffffffffffffffffffffff1602179055508073ffffffffffffffffffffffffffffffffffffffff16600760009054906101000a900473ffffffffffffffffffffffffffffffffffffffff1673ffffffffffffffffffffffffffffffffffffffff167fed8889f560326eb138920d842192f0eb3dd22b4f139c87a2c57538e05bae127860405160405180910390a350565b8260058101928215610462579160200282015b828111156104615782518290816104519190610aa1565b509160200191906001019061043a565b5b50905061046f9190610473565b5090565b5b80821115610493576000818161048a9190610497565b50600101610474565b5090565b5080546104a3906108c4565b6000825580601f106104b557506104d4565b601f0160209004906000526020600020908101906104d391906104d7565b5b50565b5b808211156104f05760008160009055506001016104d8565b5090565b6000604051905090565b600080fd5b600080fd5b600080fd5b6000601f19601f8301169050919050565b7f4e487b7100000000000000000000000000000000000000000000000000000000600052604160045260246000fd5b6105568261050d565b810181811067ffffffffffffffff821117156105755761057461051e565b5b80604052505050565b60006105886104f4565b9050610594828261054d565b919050565b600067ffffffffffffffff8211156105b4576105b361051e565b5b602082029050919050565b600080fd5b600080fd5b600067ffffffffffffffff8211156105e4576105e361051e565b5b6105ed8261050d565b9050602081019050919050565b60005b838110156106185780820151818401526020810190506105fd565b60008484015250505050565b6000610637610632846105c9565b61057e565b905082815260208101848484011115610653576106526105c4565b5b61065e8482856105fa565b509392505050565b600082601f83011261067b5761067a610508565b5b815161068b848260208601610624565b91505092915050565b60006106a76106a284610599565b61057e565b905080602084028301858111156106c1576106c06105bf565b5b835b8181101561070857805167ffffffffffffffff8111156106e6576106e5610508565b5b8086016106f38982610666565b855260208501945050506020810190506106c3565b5050509392505050565b600082601f83011261072757610726610508565b5b6005610734848285610694565b91505092915050565b600073ffffffffffffffffffffffffffffffffffffffff82169050919050565b60006107688261073d565b9050919050565b6107788161075d565b811461078357600080fd5b50565b6000815190506107958161076f565b92915050565b6000819050919050565b6107ae8161079b565b81146107b957600080fd5b50565b6000815190506107cb816107a5565b92915050565b6000819050919050565b6107e4816107d1565b81146107ef57600080fd5b50565b600081519050610801816107db565b92915050565b60008060008060808587031215610821576108206104fe565b5b600085015167ffffffffffffffff81111561083f5761083e610503565b5b61084b87828801610712565b945050602061085c87828801610786565b935050604061086d878288016107bc565b925050606061087e878288016107f2565b91505092959194509250565b600081519050919050565b7f4e487b7100000000000000000000000000000000000000000000000000000000600052602260045260246000fd5b600060028204905060018216806108dc57607f821691505b6020821081036108ef576108ee610895565b5b50919050565b60008190508160005260206000209050919050565b60006020601f8301049050919050565b600082821b905092915050565b6000600883026109577fffffffffffffffffffffffffffffffffffffffffffffffffffffffffffffffff8261091a565b610961868361091a565b95508019841693508086168417925050509392505050565b6000819050919050565b600061099e6109996109948461079b565b610979565b61079b565b9050919050565b6000819050919050565b6109b883610983565b6109cc6109c4826109a5565b848454610927565b825550505050565b600090565b6109e16109d4565b6109ec8184846109af565b505050565b5b81811015610a1057610a056000826109d9565b6001810190506109f2565b5050565b601f821115610a5557610a26816108f5565b610a2f8461090a565b81016020851015610a3e578190505b610a52610a4a8561090a565b8301826109f1565b50505b505050565b600082821c905092915050565b6000610a7860001984600802610a5a565b1980831691505092915050565b6000610a918383610a67565b9150826002028217905092915050565b610aaa8261088a565b67ffffffffffffffff811115610ac357610ac261051e565b5b610acd82546108c4565b610ad8828285610a14565b600060209050601f831160018114610b0b5760008415610af9578287015190505b610b038582610a85565b865550610b6b565b601f198416610b19866108f5565b60005b82811015610b4157848901518255600182019150602085019450602081019050610b1c565b86831015610b5e5784890151610b5a601f891682610a67565b8355505b6001600288020188555050505b505050505050565b600082825260208201905092915050565b7f43616e6e6f7420736574206f776e657220746f207a65726f0000000000000000600082015250565b6000610bba601883610b73565b9150610bc582610b84565b602082019050919050565b60006020820190508181036000830152610be981610bad565b9050919050565b7f43616e6e6f74207472616e7366657220746f2073656c66000000000000000000600082015250565b6000610c26601783610b73565b9150610c3182610bf0565b602082019050919050565b60006020820190508181036000830152610c5581610c19565b9050919050565b6139bc80610c6b6000396000f3fe608060405234801561001057600080fd5b50600436106101da5760003560e01c806379ba509711610104578063a22cb465116100a2578063c87b56dd11610071578063c87b56dd14610531578063d082e38114610561578063e985e9c51461057f578063f2fde38b146105af576101da565b8063a22cb465146104ab578063b0fb162f146104c7578063b678647a146104e5578063b88d4fde14610515576101da565b80638da5cb5b116100de5780638da5cb5b146104355780638ea981171461045357806395d89b411461046f5780639eccacf61461048d576101da565b806379ba5097146103ef5780637ccfd7fc146103f95780638ac0002114610417576101da565b806324f746971161017c5780635dc97b861161014b5780635dc97b861461035557806361728f39146103715780636352211e1461038f57806370a08231146103bf576101da565b806324f74697146102e15780632e557e6a146102ff57806333ce46471461031d57806342842e0e14610339576101da565b8063095ea7b3116101b8578063095ea7b31461025d5780631253c546146102795780631fe543e3146102a957806323b872dd146102c5576101da565b806301ffc9a7146101df57806306fdde031461020f578063081812fc1461022d575b600080fd5b6101f960048036038101906101f491906126a4565b6105cb565b60405161020691906126ec565b60405180910390f35b61021761062c565b6040516102249190612797565b60405180910390f35b610247600480360381019061024291906127ef565b6106be565b604051610254919061285d565b60405180910390f35b610277600480360381019061027291906128a4565b6106da565b005b610293600480360381019061028e91906127ef565b6106f0565b6040516102a09190612797565b60405180910390f35b6102c360048036038101906102be9190612949565b610793565b005b6102df60048036038101906102da91906129a9565b610859565b005b6102e961095b565b6040516102f69190612a1b565b60405180910390f35b610307610971565b6040516103149190612a45565b60405180910390f35b61033760048036038101906103329190612a82565b610afa565b005b610353600480360381019061034e91906129a9565b610b65565b005b61036f600480360381019061036a9190612b21565b610b85565b005b610379610bfa565b6040516103869190612b9a565b60405180910390f35b6103a960048036038101906103a491906127ef565b610c00565b6040516103b6919061285d565b60405180910390f35b6103d960048036038101906103d49190612bb5565b610c12565b6040516103e69190612a45565b60405180910390f35b6103f7610ccc565b005b610401610e63565b60405161040e9190612a1b565b60405180910390f35b61041f610e79565b60405161042c9190612a45565b60405180910390f35b61043d610e7f565b60405161044a919061285d565b60405180910390f35b61046d60048036038101906104689190612bb5565b610ea9565b005b61047761108a565b6040516104849190612797565b60405180910390f35b61049561111c565b6040516104a29190612c41565b60405180910390f35b6104c560048036038101906104c09190612c88565b611142565b005b6104cf611158565b6040516104dc9190612ce5565b60405180910390f35b6104ff60048036038101906104fa91906127ef565b61116c565b60405161050c919061285d565b60405180910390f35b61052f600480360381019061052a9190612e30565b61119f565b005b61054b600480360381019061054691906127ef565b6111c4565b6040516105589190612797565b60405180910390f35b6105696112d7565b6040516105769190612a45565b60405180910390f35b61059960048036038101906105949190612eb3565b6112dd565b6040516105a691906126ec565b60405180910390f35b6105c960048036038101906105c49190612bb5565b611371565b005b6000634906490660e01b7bffffffffffffffffffffffffffffffffffffffffffffffffffffffff1916827bffffffffffffffffffffffffffffffffffffffffffffffffffffffff19161480610625575061062482611385565b5b9050919050565b60606000805461063b90612f22565b80601f016020809104026020016040519081016040528092919081815260200182805461066790612f22565b80156106b45780601f10610689576101008083540402835291602001916106b4565b820191906000526020600020905b81548152906001019060200180831161069757829003601f168201915b5050505050905090565b60006106c982611467565b506106d3826114ef565b9050919050565b6106ec82826106e761152c565b611534565b5050565b600f816005811061070057600080fd5b01600091509050805461071290612f22565b80601f016020809104026020016040519081016040528092919081815260200182805461073e90612f22565b801561078b5780601f106107605761010080835404028352916020019161078b565b820191906000526020600020905b81548152906001019060200180831161076e57829003601f168201915b505050505081565b600960009054906101000a900473ffffffffffffffffffffffffffffffffffffffff1673ffffffffffffffffffffffffffffffffffffffff163373ffffffffffffffffffffffffffffffffffffffff16146108495733600960009054906101000a900473ffffffffffffffffffffffffffffffffffffffff166040517f1cf993f4000000000000000000000000000000000000000000000000000000008152600401610840929190612f53565b60405180910390fd5b610854838383611546565b505050565b600073ffffffffffffffffffffffffffffffffffffffff168273ffffffffffffffffffffffffffffffffffffffff16036108cb5760006040517f64a0ae920000000000000000000000000000000000000000000000000000000081526004016108c2919061285d565b60405180910390fd5b60006108df83836108da61152c565b61167d565b90508373ffffffffffffffffffffffffffffffffffffffff168173ffffffffffffffffffffffffffffffffffffffff1614610955578382826040517f64283d7b00000000000000000000000000000000000000000000000000000000815260040161094c93929190612f7c565b60405180910390fd5b50505050565b600c60009054906101000a900463ffffffff1681565b6000806040518060c00160405280600b548152602001600a548152602001600c60049054906101000a900461ffff1661ffff168152602001600c60009054906101000a900463ffffffff1663ffffffff168152602001600c60069054906101000a900463ffffffff1663ffffffff1681526020016109ff604051806020016040528060001515815250611897565b8152509050600960009054906101000a900473ffffffffffffffffffffffffffffffffffffffff1673ffffffffffffffffffffffffffffffffffffffff16639b1c385e826040518263ffffffff1660e01b8152600401610a5f91906130cd565b6020604051808303816000875af1158015610a7e573d6000803e3d6000fd5b505050506040513d601f19601f82011682018060405250810190610aa29190613104565b915033600d600084815260200190815260200160002060006101000a81548173ffffffffffffffffffffffffffffffffffffffff021916908373ffffffffffffffffffffffffffffffffffffffff1602179055505090565b610b0261192f565b60005b6005811015610b6157818160058110610b2157610b20613131565b5b602002810190610b31919061316f565b600f8360058110610b4557610b44613131565b5b019182610b5392919061337f565b508080600101915050610b05565b5050565b610b808383836040518060200160405280600081525061119f565b505050565b610b8d61192f565b60058310610bd0576040517f08c379a0000000000000000000000000000000000000000000000000000000008152600401610bc79061349b565b60405180910390fd5b8181600f8560058110610be657610be5613131565b5b019182610bf492919061337f565b50505050565b600b5481565b6000610c0b82611467565b9050919050565b60008073ffffffffffffffffffffffffffffffffffffffff168273ffffffffffffffffffffffffffffffffffffffff1603610c855760006040517f89c62b64000000000000000000000000000000000000000000000000000000008152600401610c7c919061285d565b60405180910390fd5b600360008373ffffffffffffffffffffffffffffffffffffffff1673ffffffffffffffffffffffffffffffffffffffff168152602001908152602001600020549050919050565b600860009054906101000a900473ffffffffffffffffffffffffffffffffffffffff1673ffffffffffffffffffffffffffffffffffffffff163373ffffffffffffffffffffffffffffffffffffffff1614610d5c576040517f08c379a0000000000000000000000000000000000000000000000000000000008152600401610d5390613507565b60405180910390fd5b6000600760009054906101000a900473ffffffffffffffffffffffffffffffffffffffff16905033600760006101000a81548173ffffffffffffffffffffffffffffffffffffffff021916908373ffffffffffffffffffffffffffffffffffffffff1602179055506000600860006101000a81548173ffffffffffffffffffffffffffffffffffffffff021916908373ffffffffffffffffffffffffffffffffffffffff1602179055503373ffffffffffffffffffffffffffffffffffffffff168173ffffffffffffffffffffffffffffffffffffffff167f8be0079c531659141344cd1fd0a4f28419497f9722a3daafe3b4186f6b6457e060405160405180910390a350565b600c60069054906101000a900463ffffffff1681565b600a5481565b6000600760009054906101000a900473ffffffffffffffffffffffffffffffffffffffff16905090565b610eb1610e7f565b73ffffffffffffffffffffffffffffffffffffffff163373ffffffffffffffffffffffffffffffffffffffff1614158015610f3a5750600960009054906101000a900473ffffffffffffffffffffffffffffffffffffffff1673ffffffffffffffffffffffffffffffffffffffff163373ffffffffffffffffffffffffffffffffffffffff1614155b15610fa95733610f48610e7f565b600960009054906101000a900473ffffffffffffffffffffffffffffffffffffffff166040517f061db9c1000000000000000000000000000000000000000000000000000000008152600401610fa093929190613527565b60405180910390fd5b600073ffffffffffffffffffffffffffffffffffffffff168173ffffffffffffffffffffffffffffffffffffffff160361100f576040517fd92e233d00000000000000000000000000000000000000000000000000000000815260040160405180910390fd5b80600960006101000a81548173ffffffffffffffffffffffffffffffffffffffff021916908373ffffffffffffffffffffffffffffffffffffffff1602179055507fd1a6a14209a385a964d036e404cb5cfb71f4000cdb03c9366292430787261be68160405161107f919061285d565b60405180910390a150565b60606001805461109990612f22565b80601f01602080910402602001604051908101604052809291908181526020018280546110c590612f22565b80156111125780601f106110e757610100808354040283529160200191611112565b820191906000526020600020905b8154815290600101906020018083116110f557829003601f168201915b5050505050905090565b600960009054906101000a900473ffffffffffffffffffffffffffffffffffffffff1681565b61115461114d61152c565b83836119c1565b5050565b600c60049054906101000a900461ffff1681565b600d6020528060005260406000206000915054906101000a900473ffffffffffffffffffffffffffffffffffffffff1681565b6111aa848484610859565b6111be6111b561152c565b85858585611b30565b50505050565b60606111cf82611467565b5060006006600084815260200190815260200160002080546111f090612f22565b80601f016020809104026020016040519081016040528092919081815260200182805461121c90612f22565b80156112695780601f1061123e57610100808354040283529160200191611269565b820191906000526020600020905b81548152906001019060200180831161124c57829003601f168201915b50505050509050600061127a611ce1565b9050600081510361128f5781925050506112d2565b6000825111156112c45780826040516020016112ac92919061359a565b604051602081830303815290604052925050506112d2565b6112cd84611cf8565b925050505b919050565b600e5481565b6000600560008473ffffffffffffffffffffffffffffffffffffffff1673ffffffffffffffffffffffffffffffffffffffff16815260200190815260200160002060008373ffffffffffffffffffffffffffffffffffffffff1673ffffffffffffffffffffffffffffffffffffffff16815260200190815260200160002060009054906101000a900460ff16905092915050565b61137961192f565b61138281611d61565b50565b60007f80ac58cd000000000000000000000000000000000000000000000000000000007bffffffffffffffffffffffffffffffffffffffffffffffffffffffff1916827bffffffffffffffffffffffffffffffffffffffffffffffffffffffff1916148061145057507f5b5e139f000000000000000000000000000000000000000000000000000000007bffffffffffffffffffffffffffffffffffffffffffffffffffffffff1916827bffffffffffffffffffffffffffffffffffffffffffffffffffffffff1916145b80611460575061145f82611e8f565b5b9050919050565b60008061147383611ef9565b9050600073ffffffffffffffffffffffffffffffffffffffff168173ffffffffffffffffffffffffffffffffffffffff16036114e657826040517f7e2732890000000000000000000000000000000000000000000000000000000081526004016114dd9190612a45565b60405180910390fd5b80915050919050565b60006004600083815260200190815260200160002060009054906101000a900473ffffffffffffffffffffffffffffffffffffffff169050919050565b600033905090565b6115418383836001611f36565b505050565b6000600d600085815260200190815260200160002060009054906101000a900473ffffffffffffffffffffffffffffffffffffffff169050600060058484600081811061159657611595613131565b5b905060200201356115a791906135ed565b90506115b582600e546120fb565b61165e600e54600f83600581106115cf576115ce613131565b5b0180546115db90612f22565b80601f016020809104026020016040519081016040528092919081815260200182805461160790612f22565b80156116545780601f1061162957610100808354040283529160200191611654565b820191906000526020600020905b81548152906001019060200180831161163757829003601f168201915b5050505050612119565b600e60008154809291906116719061364d565b91905055505050505050565b60008061168984611ef9565b9050600073ffffffffffffffffffffffffffffffffffffffff168373ffffffffffffffffffffffffffffffffffffffff16146116cb576116ca818486612175565b5b600073ffffffffffffffffffffffffffffffffffffffff168173ffffffffffffffffffffffffffffffffffffffff161461175c5761170d600085600080611f36565b6001600360008373ffffffffffffffffffffffffffffffffffffffff1673ffffffffffffffffffffffffffffffffffffffff168152602001908152602001600020600082825403925050819055505b600073ffffffffffffffffffffffffffffffffffffffff168573ffffffffffffffffffffffffffffffffffffffff16146117df576001600360008773ffffffffffffffffffffffffffffffffffffffff1673ffffffffffffffffffffffffffffffffffffffff168152602001908152602001600020600082825401925050819055505b846002600086815260200190815260200160002060006101000a81548173ffffffffffffffffffffffffffffffffffffffff021916908373ffffffffffffffffffffffffffffffffffffffff160217905550838573ffffffffffffffffffffffffffffffffffffffff168273ffffffffffffffffffffffffffffffffffffffff167fddf252ad1be2c89b69c2b068fc378daa952ba7f163c4a11628f55a4df523b3ef60405160405180910390a4809150509392505050565b60607f92fd13387c7fe7befbc38d303d6468778fb9731bc4583f17d92989c6fcfdeaaa826040516024016118cb91906136c0565b604051602081830303815290604052907bffffffffffffffffffffffffffffffffffffffffffffffffffffffff19166020820180517bffffffffffffffffffffffffffffffffffffffffffffffffffffffff83818316178352505050509050919050565b600760009054906101000a900473ffffffffffffffffffffffffffffffffffffffff1673ffffffffffffffffffffffffffffffffffffffff163373ffffffffffffffffffffffffffffffffffffffff16146119bf576040517f08c379a00000000000000000000000000000000000000000000000000000000081526004016119b690613727565b60405180910390fd5b565b600073ffffffffffffffffffffffffffffffffffffffff168273ffffffffffffffffffffffffffffffffffffffff1603611a3257816040517f5b08ba18000000000000000000000000000000000000000000000000000000008152600401611a29919061285d565b60405180910390fd5b80600560008573ffffffffffffffffffffffffffffffffffffffff1673ffffffffffffffffffffffffffffffffffffffff16815260200190815260200160002060008473ffffffffffffffffffffffffffffffffffffffff1673ffffffffffffffffffffffffffffffffffffffff16815260200190815260200160002060006101000a81548160ff0219169083151502179055508173ffffffffffffffffffffffffffffffffffffffff168373ffffffffffffffffffffffffffffffffffffffff167f17307eab39ab6107e8899845ad3d59bd9653f200f220920489ca2b5937696c3183604051611b2391906126ec565b60405180910390a3505050565b60008373ffffffffffffffffffffffffffffffffffffffff163b1115611cda578273ffffffffffffffffffffffffffffffffffffffff1663150b7a02868685856040518563ffffffff1660e01b8152600401611b8f9493929190613791565b6020604051808303816000875af1925050508015611bcb57506040513d601f19601f82011682018060405250810190611bc891906137f2565b60015b611c4f573d8060008114611bfb576040519150601f19603f3d011682016040523d82523d6000602084013e611c00565b606091505b506000815103611c4757836040517f64a0ae92000000000000000000000000000000000000000000000000000000008152600401611c3e919061285d565b60405180910390fd5b805181602001fd5b63150b7a0260e01b7bffffffffffffffffffffffffffffffffffffffffffffffffffffffff1916817bffffffffffffffffffffffffffffffffffffffffffffffffffffffff191614611cd857836040517f64a0ae92000000000000000000000000000000000000000000000000000000008152600401611ccf919061285d565b60405180910390fd5b505b5050505050565b606060405180602001604052806000815250905090565b6060611d0382611467565b506000611d0e611ce1565b90506000815111611d2e5760405180602001604052806000815250611d59565b80611d3884612239565b604051602001611d4992919061359a565b6040516020818303038152906040525b915050919050565b3373ffffffffffffffffffffffffffffffffffffffff168173ffffffffffffffffffffffffffffffffffffffff1603611dcf576040517f08c379a0000000000000000000000000000000000000000000000000000000008152600401611dc69061386b565b60405180910390fd5b80600860006101000a81548173ffffffffffffffffffffffffffffffffffffffff021916908373ffffffffffffffffffffffffffffffffffffffff1602179055508073ffffffffffffffffffffffffffffffffffffffff16600760009054906101000a900473ffffffffffffffffffffffffffffffffffffffff1673ffffffffffffffffffffffffffffffffffffffff167fed8889f560326eb138920d842192f0eb3dd22b4f139c87a2c57538e05bae127860405160405180910390a350565b60007f01ffc9a7000000000000000000000000000000000000000000000000000000007bffffffffffffffffffffffffffffffffffffffffffffffffffffffff1916827bffffffffffffffffffffffffffffffffffffffffffffffffffffffff1916149050919050565b60006002600083815260200190815260200160002060009054906101000a900473ffffffffffffffffffffffffffffffffffffffff169050919050565b8080611f6f5750600073ffffffffffffffffffffffffffffffffffffffff168273ffffffffffffffffffffffffffffffffffffffff1614155b156120a3576000611f7f84611467565b9050600073ffffffffffffffffffffffffffffffffffffffff168373ffffffffffffffffffffffffffffffffffffffff1614158015611fea57508273ffffffffffffffffffffffffffffffffffffffff168173ffffffffffffffffffffffffffffffffffffffff1614155b8015611ffd5750611ffb81846112dd565b155b1561203f57826040517fa9fbf51f000000000000000000000000000000000000000000000000000000008152600401612036919061285d565b60405180910390fd5b81156120a157838573ffffffffffffffffffffffffffffffffffffffff168273ffffffffffffffffffffffffffffffffffffffff167f8c5be1e5ebec7d5bd14f71427d1e84f3dd0314c0f7b2291e5b200ac8c7c3b92560405160405180910390a45b505b836004600085815260200190815260200160002060006101000a81548173ffffffffffffffffffffffffffffffffffffffff021916908373ffffffffffffffffffffffffffffffffffffffff16021790555050505050565b612115828260405180602001604052806000815250612307565b5050565b80600660008481526020019081526020016000209081612139919061388b565b507ff8e1a15aba9398e019f0b49df1a4fde98ee17ae345cb5f6b5e2c27f5033e8ce7826040516121699190612a45565b60405180910390a15050565b61218083838361232b565b61223457600073ffffffffffffffffffffffffffffffffffffffff168373ffffffffffffffffffffffffffffffffffffffff16036121f557806040517f7e2732890000000000000000000000000000000000000000000000000000000081526004016121ec9190612a45565b60405180910390fd5b81816040517f177e802f00000000000000000000000000000000000000000000000000000000815260040161222b92919061395d565b60405180910390fd5b505050565b606060006001612248846123ec565b01905060008167ffffffffffffffff81111561226757612266612d05565b5b6040519080825280601f01601f1916602001820160405280156122995781602001600182028036833780820191505090505b509050600082602001820190505b6001156122fc578080600190039150507f3031323334353637383961626364656600000000000000000000000000000000600a86061a8153600a85816122f0576122ef6135be565b5b049450600085036122a7575b819350505050919050565b612311838361253f565b61232661231c61152c565b6000858585611b30565b505050565b60008073ffffffffffffffffffffffffffffffffffffffff168373ffffffffffffffffffffffffffffffffffffffff16141580156123e357508273ffffffffffffffffffffffffffffffffffffffff168473ffffffffffffffffffffffffffffffffffffffff1614806123a457506123a384846112dd565b5b806123e257508273ffffffffffffffffffffffffffffffffffffffff166123ca836114ef565b73ffffffffffffffffffffffffffffffffffffffff16145b5b90509392505050565b600080600090507a184f03e93ff9f4daa797ed6e38ed64bf6a1f010000000000000000831061244a577a184f03e93ff9f4daa797ed6e38ed64bf6a1f01000000000000000083816124405761243f6135be565b5b0492506040810190505b6d04ee2d6d415b85acef81000000008310612487576d04ee2d6d415b85acef8100000000838161247d5761247c6135be565b5b0492506020810190505b662386f26fc1000083106124b657662386f26fc1000083816124ac576124ab6135be565b5b0492506010810190505b6305f5e10083106124df576305f5e10083816124d5576124d46135be565b5b0492506008810190505b61271083106125045761271083816124fa576124f96135be565b5b0492506004810190505b60648310612527576064838161251d5761251c6135be565b5b0492506002810190505b600a8310612536576001810190505b80915050919050565b600073ffffffffffffffffffffffffffffffffffffffff168273ffffffffffffffffffffffffffffffffffffffff16036125b15760006040517f64a0ae920000000000000000000000000000000000000000000000000000000081526004016125a8919061285d565b60405180910390fd5b60006125bf8383600061167d565b9050600073ffffffffffffffffffffffffffffffffffffffff168173ffffffffffffffffffffffffffffffffffffffff16146126335760006040517f73c6ac6e00000000000000000000000000000000000000000000000000000000815260040161262a919061285d565b60405180910390fd5b505050565b6000604051905090565b600080fd5b600080fd5b60007fffffffff0000000000000000000000000000000000000000000000000000000082169050919050565b6126818161264c565b811461268c57600080fd5b50565b60008135905061269e81612678565b92915050565b6000602082840312156126ba576126b9612642565b5b60006126c88482850161268f565b91505092915050565b60008115159050919050565b6126e6816126d1565b82525050565b600060208201905061270160008301846126dd565b92915050565b600081519050919050565b600082825260208201905092915050565b60005b83811015612741578082015181840152602081019050612726565b60008484015250505050565b6000601f19601f8301169050919050565b600061276982612707565b6127738185612712565b9350612783818560208601612723565b61278c8161274d565b840191505092915050565b600060208201905081810360008301526127b1818461275e565b905092915050565b6000819050919050565b6127cc816127b9565b81146127d757600080fd5b50565b6000813590506127e9816127c3565b92915050565b60006020828403121561280557612804612642565b5b6000612813848285016127da565b91505092915050565b600073ffffffffffffffffffffffffffffffffffffffff82169050919050565b60006128478261281c565b9050919050565b6128578161283c565b82525050565b6000602082019050612872600083018461284e565b92915050565b6128818161283c565b811461288c57600080fd5b50565b60008135905061289e81612878565b92915050565b600080604083850312156128bb576128ba612642565b5b60006128c98582860161288f565b92505060206128da858286016127da565b9150509250929050565b600080fd5b600080fd5b600080fd5b60008083601f840112612909576129086128e4565b5b8235905067ffffffffffffffff811115612926576129256128e9565b5b602083019150836020820283011115612942576129416128ee565b5b9250929050565b60008060006040848603121561296257612961612642565b5b6000612970868287016127da565b935050602084013567ffffffffffffffff81111561299157612990612647565b5b61299d868287016128f3565b92509250509250925092565b6000806000606084860312156129c2576129c1612642565b5b60006129d08682870161288f565b93505060206129e18682870161288f565b92505060406129f2868287016127da565b9150509250925092565b600063ffffffff82169050919050565b612a15816129fc565b82525050565b6000602082019050612a306000830184612a0c565b92915050565b612a3f816127b9565b82525050565b6000602082019050612a5a6000830184612a36565b92915050565b600081905082602060050282011115612a7c57612a7b6128ee565b5b92915050565b600060208284031215612a9857612a97612642565b5b600082013567ffffffffffffffff811115612ab657612ab5612647565b5b612ac284828501612a60565b91505092915050565b60008083601f840112612ae157612ae06128e4565b5b8235905067ffffffffffffffff811115612afe57612afd6128e9565b5b602083019150836001820283011115612b1a57612b196128ee565b5b9250929050565b600080600060408486031215612b3a57612b39612642565b5b6000612b48868287016127da565b935050602084013567ffffffffffffffff811115612b6957612b68612647565b5b612b7586828701612acb565b92509250509250925092565b6000819050919050565b612b9481612b81565b82525050565b6000602082019050612baf6000830184612b8b565b92915050565b600060208284031215612bcb57612bca612642565b5b6000612bd98482850161288f565b91505092915050565b6000819050919050565b6000612c07612c02612bfd8461281c565b612be2565b61281c565b9050919050565b6000612c1982612bec565b9050919050565b6000612c2b82612c0e565b9050919050565b612c3b81612c20565b82525050565b6000602082019050612c566000830184612c32565b92915050565b612c65816126d1565b8114612c7057600080fd5b50565b600081359050612c8281612c5c565b92915050565b60008060408385031215612c9f57612c9e612642565b5b6000612cad8582860161288f565b9250506020612cbe85828601612c73565b9150509250929050565b600061ffff82169050919050565b612cdf81612cc8565b82525050565b6000602082019050612cfa6000830184612cd6565b92915050565b600080fd5b7f4e487b7100000000000000000000000000000000000000000000000000000000600052604160045260246000fd5b612d3d8261274d565b810181811067ffffffffffffffff82111715612d5c57612d5b612d05565b5b80604052505050565b6000612d6f612638565b9050612d7b8282612d34565b919050565b600067ffffffffffffffff821115612d9b57612d9a612d05565b5b612da48261274d565b9050602081019050919050565b82818337600083830152505050565b6000612dd3612dce84612d80565b612d65565b905082815260208101848484011115612def57612dee612d00565b5b612dfa848285612db1565b509392505050565b600082601f830112612e1757612e166128e4565b5b8135612e27848260208601612dc0565b91505092915050565b60008060008060808587031215612e4a57612e49612642565b5b6000612e588782880161288f565b9450506020612e698782880161288f565b9350506040612e7a878288016127da565b925050606085013567ffffffffffffffff811115612e9b57612e9a612647565b5b612ea787828801612e02565b91505092959194509250565b60008060408385031215612eca57612ec9612642565b5b6000612ed88582860161288f565b9250506020612ee98582860161288f565b9150509250929050565b7f4e487b7100000000000000000000000000000000000000000000000000000000600052602260045260246000fd5b60006002820490506001821680612f3a57607f821691505b602082108103612f4d57612f4c612ef3565b5b50919050565b6000604082019050612f68600083018561284e565b612f75602083018461284e565b9392505050565b6000606082019050612f91600083018661284e565b612f9e6020830185612a36565b612fab604083018461284e565b949350505050565b612fbc81612b81565b82525050565b612fcb816127b9565b82525050565b612fda81612cc8565b82525050565b612fe9816129fc565b82525050565b600081519050919050565b600082825260208201905092915050565b600061301682612fef565b6130208185612ffa565b9350613030818560208601612723565b6130398161274d565b840191505092915050565b600060c08301600083015161305c6000860182612fb3565b50602083015161306f6020860182612fc2565b5060408301516130826040860182612fd1565b5060608301516130956060860182612fe0565b5060808301516130a86080860182612fe0565b5060a083015184820360a08601526130c0828261300b565b9150508091505092915050565b600060208201905081810360008301526130e78184613044565b905092915050565b6000815190506130fe816127c3565b92915050565b60006020828403121561311a57613119612642565b5b6000613128848285016130ef565b91505092915050565b7f4e487b7100000000000000000000000000000000000000000000000000000000600052603260045260246000fd5b600080fd5b600080fd5b600080fd5b6000808335600160200384360303811261318c5761318b613160565b5b80840192508235915067ffffffffffffffff8211156131ae576131ad613165565b5b6020830192506001820236038313156131ca576131c961316a565b5b509250929050565b600082905092915050565b60008190508160005260206000209050919050565b60006020601f8301049050919050565b600082821b905092915050565b60006008830261323f7fffffffffffffffffffffffffffffffffffffffffffffffffffffffffffffffff82613202565b6132498683613202565b95508019841693508086168417925050509392505050565b600061327c613277613272846127b9565b612be2565b6127b9565b9050919050565b6000819050919050565b61329683613261565b6132aa6132a282613283565b84845461320f565b825550505050565b600090565b6132bf6132b2565b6132ca81848461328d565b505050565b5b818110156132ee576132e36000826132b7565b6001810190506132d0565b5050565b601f82111561333357613304816131dd565b61330d846131f2565b8101602085101561331c578190505b613330613328856131f2565b8301826132cf565b50505b505050565b600082821c905092915050565b600061335660001984600802613338565b1980831691505092915050565b600061336f8383613345565b9150826002028217905092915050565b61338983836131d2565b67ffffffffffffffff8111156133a2576133a1612d05565b5b6133ac8254612f22565b6133b78282856132f2565b6000601f8311600181146133e657600084156133d4578287013590505b6133de8582613363565b865550613446565b601f1984166133f4866131dd565b60005b8281101561341c578489013582556001820191506020850194506020810190506133f7565b868310156134395784890135613435601f891682613345565b8355505b6001600288020188555050505b50505050505050565b7f696e76616c696420696e64657800000000000000000000000000000000000000600082015250565b6000613485600d83612712565b91506134908261344f565b602082019050919050565b600060208201905081810360008301526134b481613478565b9050919050565b7f4d7573742062652070726f706f736564206f776e657200000000000000000000600082015250565b60006134f1601683612712565b91506134fc826134bb565b602082019050919050565b60006020820190508181036000830152613520816134e4565b9050919050565b600060608201905061353c600083018661284e565b613549602083018561284e565b613556604083018461284e565b949350505050565b600081905092915050565b600061357482612707565b61357e818561355e565b935061358e818560208601612723565b80840191505092915050565b60006135a68285613569565b91506135b28284613569565b91508190509392505050565b7f4e487b7100000000000000000000000000000000000000000000000000000000600052601260045260246000fd5b60006135f8826127b9565b9150613603836127b9565b925082613613576136126135be565b5b828206905092915050565b7f4e487b7100000000000000000000000000000000000000000000000000000000600052601160045260246000fd5b6000613658826127b9565b91507fffffffffffffffffffffffffffffffffffffffffffffffffffffffffffffffff820361368a5761368961361e565b5b600182019050919050565b61369e816126d1565b82525050565b6020820160008201516136ba6000850182613695565b50505050565b60006020820190506136d560008301846136a4565b92915050565b7f4f6e6c792063616c6c61626c65206279206f776e657200000000000000000000600082015250565b6000613711601683612712565b915061371c826136db565b602082019050919050565b6000602082019050818103600083015261374081613704565b9050919050565b600082825260208201905092915050565b600061376382612fef565b61376d8185613747565b935061377d818560208601612723565b6137868161274d565b840191505092915050565b60006080820190506137a6600083018761284e565b6137b3602083018661284e565b6137c06040830185612a36565b81810360608301526137d28184613758565b905095945050505050565b6000815190506137ec81612678565b92915050565b60006020828403121561380857613807612642565b5b6000613816848285016137dd565b91505092915050565b7f43616e6e6f74207472616e7366657220746f2073656c66000000000000000000600082015250565b6000613855601783612712565b91506138608261381f565b602082019050919050565b6000602082019050818103600083015261388481613848565b9050919050565b61389482612707565b67ffffffffffffffff8111156138ad576138ac612d05565b5b6138b78254612f22565b6138c28282856132f2565b600060209050601f8311600181146138f557600084156138e3578287015190505b6138ed8582613363565b865550613955565b601f198416613903866131dd565b60005b8281101561392b57848901518255600182019150602085019450602081019050613906565b868310156139485784890151613944601f891682613345565b8355505b6001600288020188555050505b505050505050565b6000604082019050613972600083018561284e565b61397f6020830184612a36565b939250505056fea2646970667358221220a86546fd2d49aefa6539f9db428fdfee282b26067408cde69cc1937989e595e664736f6c634300081c0033",
  "linkReferences": {},
  "deployedLinkReferences": {}
}