{
  "_format": "hh-sol-artifact-1",
  "contractName": "OmikujiNFT",
  "sourceName": "contracts/OmikujiNFT.sol",
  "abi": [
    {
      "inputs": [
        {
          "internalType": "string[5]",
          "name": "_uris",
          "type": "string[5]"
        },
        {
          "internalType": "address",
          "name": "vrfCoordinator",
          "type": "address"
        },
        {
          "internalType": "uint256",
          "name": "subscriptionId",
          "type": "uint256"
        },
        {
          "internalType": "bytes32",
          "name": "_keyHash",
          "type": "bytes32"
        }
      ],
      "stateMutability": "nonpayable",
      "type": "constructor"
    },
    {
      "inputs": [
        {
          "internalType": "address",
          "name": "sender",
          "type": "address"
        },
        {
          "internalType": "uint256",
          "name": "tokenId",
          "type": "uint256"
        },
        {
          "internalType": "address",
          "name": "owner",
          "type": "address"
        }
      ],
      "name": "ERC721IncorrectOwner",
      "type": "error"
    },
    {
      "inputs": [
        {
          "internalType": "address",
          "name": "operator",
          "type": "address"
        },
        {
          "internalType": "uint256",
          "name": "tokenId",
          "type": "uint256"
        }
      ],
      "name": "ERC721InsufficientApproval",
      "type": "error"
    },
    {
      "inputs": [
        {
          "internalType": "address",
          "name": "approver",
          "type": "address"
        }
      ],
      "name": "ERC721InvalidApprover",
      "type": "error"
    },
    {
      "inputs": [
        {
          "internalType": "address",
          "name": "operator",
          "type": "address"
        }
      ],
      "name": "ERC721InvalidOperator",
      "type": "error"
    },
    {
      "inputs": [
        {
          "internalType": "address",
          "name": "owner",
          "type": "address"
        }
      ],
      "name": "ERC721InvalidOwner",
      "type": "error"
    },
    {
      "inputs": [
        {
          "internalType": "address",
          "name": "receiver",
          "type": "address"
        }
      ],
      "name": "ERC721InvalidReceiver",
      "type": "error"
    },
    {
      "inputs": [
        {
          "internalType": "address",
          "name": "sender",
          "type": "address"
        }
      ],
      "name": "ERC721InvalidSender",
      "type": "error"
    },
    {
      "inputs": [
        {
          "internalType": "uint256",
          "name": "tokenId",
          "type": "uint256"
        }
      ],
      "name": "ERC721NonexistentToken",
      "type": "error"
    },
    {
      "inputs": [
        {
          "internalType": "address",
          "name": "have",
          "type": "address"
        },
        {
          "internalType": "address",
          "name": "want",
          "type": "address"
        }
      ],
      "name": "OnlyCoordinatorCanFulfill",
      "type": "error"
    },
    {
      "inputs": [
        {
          "internalType": "address",
          "name": "have",
          "type": "address"
        },
        {
          "internalType": "address",
          "name": "owner",
          "type": "address"
        },
        {
          "internalType": "address",
          "name": "coordinator",
          "type": "address"
        }
      ],
      "name": "OnlyOwnerOrCoordinator",
      "type": "error"
    },
    {
      "inputs": [],
      "name": "ZeroAddress",
      "type": "error"
    },
    {
      "anonymous": false,
      "inputs": [
        {
          "indexed": true,
          "internalType": "address",
          "name": "owner",
          "type": "address"
        },
        {
          "indexed": true,
          "internalType": "address",
          "name": "approved",
          "type": "address"
        },
        {
          "indexed": true,
          "internalType": "uint256",
          "name": "tokenId",
          "type": "uint256"
        }
      ],
      "name": "Approval",
      "type": "event"
    },
    {
      "anonymous": false,
      "inputs": [
        {
          "indexed": true,
          "internalType": "address",
          "name": "owner",
          "type": "address"
        },
        {
          "indexed": true,
          "internalType": "address",
          "name": "operator",
          "type": "address"
        },
        {
          "indexed": false,
          "internalType": "bool",
          "name": "approved",
          "type": "bool"
        }
      ],
      "name": "ApprovalForAll",
      "type": "event"
    },
    {
      "anonymous": false,
      "inputs": [
        {
          "indexed": false,
          "internalType": "uint256",
          "name": "_fromTokenId",
          "type": "uint256"
        },
        {
          "indexed": false,
          "internalType": "uint256",
          "name": "_toTokenId",
          "type": "uint256"
        }
      ],
      "name": "BatchMetadataUpdate",
      "type": "event"
    },
    {
      "anonymous": false,
      "inputs": [
        {
          "indexed": false,
          "internalType": "address",
          "name": "vrfCoordinator",
          "type": "address"
        }
      ],
      "name": "CoordinatorSet",
      "type": "event"
    },
    {
      "anonymous": false,
      "inputs": [
        {
          "indexed": false,
          "internalType": "uint256",
          "name": "_tokenId",
          "type": "uint256"
        }
      ],
      "name": "MetadataUpdate",
      "type": "event"
    },
    {
      "anonymous": false,
      "inputs": [
        {
          "indexed": true,
          "internalType": "address",
          "name": "from",
          "type": "address"
        },
        {
          "indexed": true,
          "internalType": "address",
          "name": "to",
          "type": "address"
        }
      ],
      "name": "OwnershipTransferRequested",
      "type": "event"
    },
    {
      "anonymous": false,
      "inputs": [
        {
          "indexed": true,
          "internalType": "address",
          "name": "from",
          "type": "address"
        },
        {
          "indexed": true,
          "internalType": "address",
          "name": "to",
          "type": "address"
        }
      ],
      "name": "OwnershipTransferred",
      "type": "event"
    },
    {
      "anonymous": false,
      "inputs": [
        {
          "indexed": true,
          "internalType": "address",
          "name": "from",
          "type": "address"
        },
        {
          "indexed": true,
          "internalType": "address",
          "name": "to",
          "type": "address"
        },
        {
          "indexed": true,
          "internalType": "uint256",
          "name": "tokenId",
          "type": "uint256"
        }
      ],
      "name": "Transfer",
      "type": "event"
    },
    {
      "inputs": [],
      "name": "acceptOwnership",
      "outputs": [],
      "stateMutability": "nonpayable",
      "type": "function"
    },
    {
      "inputs": [
        {
          "internalType": "address",
          "name": "to",
          "type": "address"
        },
        {
          "internalType": "uint256",
          "name": "tokenId",
          "type": "uint256"
        }
      ],
      "name": "approve",
      "outputs": [],
      "stateMutability": "nonpayable",
      "type": "function"
    },
    {
      "inputs": [
        {
          "internalType": "address",
          "name": "owner",
          "type": "address"
        }
      ],
      "name": "balanceOf",
      "outputs": [
        {
          "internalType": "uint256",
          "name": "",
          "type": "uint256"
        }
      ],
      "stateMutability": "view",
      "type": "function"
    },
    {
      "inputs": [],
      "name": "callbackGasLimit",
      "outputs": [
        {
          "internalType": "uint32",
          "name": "",
          "type": "uint32"
        }
      ],
      "stateMutability": "view",
      "type": "function"
    },
    {
      "inputs": [
        {
          "internalType": "uint256",
          "name": "tokenId",
          "type": "uint256"
        }
      ],
      "name": "getApproved",
      "outputs": [
        {
          "internalType": "address",
          "name": "",
          "type": "address"
        }
      ],
      "stateMutability": "view",
      "type": "function"
    },
    {
      "inputs": [
        {
          "internalType": "address",
          "name": "owner",
          "type": "address"
        },
        {
          "internalType": "address",
          "name": "operator",
          "type": "address"
        }
      ],
      "name": "isApprovedForAll",
      "outputs": [
        {
          "internalType": "bool",
          "name": "",
          "type": "bool"
        }
      ],
      "stateMutability": "view",
      "type": "function"
    },
    {
      "inputs": [],
      "name": "keyHash",
      "outputs": [
        {
          "internalType": "bytes32",
          "name": "",
          "type": "bytes32"
        }
      ],
      "stateMutability": "view",
      "type": "function"
    },
    {
      "inputs": [],
      "name": "mintOmikuji",
      "outputs": [
        {
          "internalType": "uint256",
          "name": "requestId",
          "type": "uint256"
        }
      ],
      "stateMutability": "nonpayable",
      "type": "function"
    },
    {
      "inputs": [],
      "name": "name",
      "outputs": [
        {
          "internalType": "string",
          "name": "",
          "type": "string"
        }
      ],
      "stateMutability": "view",
      "type": "function"
    },
    {
      "inputs": [],
      "name": "numWords",
      "outputs": [
        {
          "internalType": "uint32",
          "name": "",
          "type": "uint32"
        }
      ],
      "stateMutability": "view",
      "type": "function"
    },
    {
      "inputs": [],
      "name": "owner",
      "outputs": [
        {
          "internalType": "address",
          "name": "",
          "type": "address"
        }
      ],
      "stateMutability": "view",
      "type": "function"
    },
    {
      "inputs": [
        {
          "internalType": "uint256",
          "name": "tokenId",
          "type": "uint256"
        }
      ],
      "name": "ownerOf",
      "outputs": [
        {
          "internalType": "address",
          "name": "",
          "type": "address"
        }
      ],
      "stateMutability": "view",
      "type": "function"
    },
    {
      "inputs": [
        {
          "internalType": "uint256",
          "name": "requestId",
          "type": "uint256"
        },
        {
          "internalType": "uint256[]",
          "name": "randomWords",
          "type": "uint256[]"
        }
      ],
      "name": "rawFulfillRandomWords",
      "outputs": [],
      "stateMutability": "nonpayable",
      "type": "function"
    },
    {
      "inputs": [],
      "name": "requestConfirmations",
      "outputs": [
        {
          "internalType": "uint16",
          "name": "",
          "type": "uint16"
        }
      ],
      "stateMutability": "view",
      "type": "function"
    },
    {
      "inputs": [
        {
          "internalType": "uint256",
          "name": "",
          "type": "uint256"
        }
      ],
      "name": "requestToSender",
      "outputs": [
        {
          "internalType": "address",
          "name": "",
          "type": "address"
        }
      ],
      "stateMutability": "view",
      "type": "function"
    },
    {
      "inputs": [],
      "name": "s_subscriptionId",
      "outputs": [
        {
          "internalType": "uint256",
          "name": "",
          "type": "uint256"
        }
      ],
      "stateMutability": "view",
      "type": "function"
    },
    {
      "inputs": [],
      "name": "s_vrfCoordinator",
      "outputs": [
        {
          "internalType": "contract IVRFCoordinatorV2Plus",
          "name": "",
          "type": "address"
        }
      ],
      "stateMutability": "view",
      "type": "function"
    },
    {
      "inputs": [
        {
          "internalType": "address",
          "name": "from",
          "type": "address"
        },
        {
          "internalType": "address",
          "name": "to",
          "type": "address"
        },
        {
          "internalType": "uint256",
          "name": "tokenId",
          "type": "uint256"
        }
      ],
      "name": "safeTransferFrom",
      "outputs": [],
      "stateMutability": "nonpayable",
      "type": "function"
    },
    {
      "inputs": [
        {
          "internalType": "address",
          "name": "from",
          "type": "address"
        },
        {
          "internalType": "address",
          "name": "to",
          "type": "address"
        },
        {
          "internalType": "uint256",
          "name": "tokenId",
          "type": "uint256"
        },
        {
          "internalType": "bytes",
          "name": "data",
          "type": "bytes"
        }
      ],
      "name": "safeTransferFrom",
      "outputs": [],
      "stateMutability": "nonpayable",
      "type": "function"
    },
    {
      "inputs": [
        {
          "internalType": "address",
          "name": "operator",
          "type": "address"
        },
        {
          "internalType": "bool",
          "name": "approved",
          "type": "bool"
        }
      ],
      "name": "setApprovalForAll",
      "outputs": [],
      "stateMutability": "nonpayable",
      "type": "function"
    },
    {
      "inputs": [
        {
          "internalType": "address",
          "name": "_vrfCoordinator",
          "type": "address"
        }
      ],
      "name": "setCoordinator",
      "outputs": [],
      "stateMutability": "nonpayable",
      "type": "function"
    },
    {
      "inputs": [
        {
          "internalType": "bytes4",
          "name": "interfaceId",
          "type": "bytes4"
        }
      ],
      "name": "supportsInterface",
      "outputs": [
        {
          "internalType": "bool",
          "name": "",
          "type": "bool"
        }
      ],
      "stateMutability": "view",
      "type": "function"
    },
    {
      "inputs": [],
      "name": "symbol",
      "outputs": [
        {
          "internalType": "string",
          "name": "",
          "type": "string"
        }
      ],
      "stateMutability": "view",
      "type": "function"
    },
    {
      "inputs": [],
      "name": "tokenCounter",
      "outputs": [
        {
          "internalType": "uint256",
          "name": "",
          "type": "uint256"
        }
      ],
      "stateMutability": "view",
      "type": "function"
    },
    {
      "inputs": [
        {
          "internalType": "uint256",
          "name": "tokenId",
          "type": "uint256"
        }
      ],
      "name": "tokenURI",
      "outputs": [
        {
          "internalType": "string",
          "name": "",
          "type": "string"
        }
      ],
      "stateMutability": "view",
      "type": "function"
    },
    {
      "inputs": [
        {
          "internalType": "address",
          "name": "from",
          "type": "address"
        },
        {
          "internalType": "address",
          "name": "to",
          "type": "address"
        },
        {
          "internalType": "uint256",
          "name": "tokenId",
          "type": "uint256"
        }
      ],
      "name": "transferFrom",
      "outputs": [],
      "stateMutability": "nonpayable",
      "type": "function"
    },
    {
      "inputs": [
        {
          "internalType": "address",
          "name": "to",
          "type": "address"
        }
      ],
      "name": "transferOwnership",
      "outputs": [],
      "stateMutability": "nonpayable",
      "type": "function"
    },
    {
      "inputs": [
        {
          "internalType": "uint256",
          "name": "",
          "type": "uint256"
        }
      ],
      "name": "uris",
      "outputs": [
        {
          "internalType": "string",
          "name": "",
          "type": "string"
        }
      ],
      "stateMutability": "view",
      "type": "function"
    }
  ],
  "bytecode": "0x6080604052622625a0600c60006101000a81548163ffffffff021916908363ffffffff1602179055506003600c60046101000a81548161ffff021916908361ffff1602179055506001600c60066101000a81548163ffffffff021916908363ffffffff16021790555034801561007457600080fd5b5060405161421f38038061421f83398181016040528101906100969190610807565b82338060006040518060400160405280600a81526020017f4f6d696b756a694e4654000000000000000000000000000000000000000000008152506040518060400160405280600381526020017f4f4d4b000000000000000000000000000000000000000000000000000000000081525081600090816101169190610aa1565b5080600190816101269190610aa1565b505050600073ffffffffffffffffffffffffffffffffffffffff168273ffffffffffffffffffffffffffffffffffffffff1603610198576040517f08c379a000000000000000000000000000000000000000000000000000000000815260040161018f90610bd0565b60405180910390fd5b81600760006101000a81548173ffffffffffffffffffffffffffffffffffffffff021916908373ffffffffffffffffffffffffffffffffffffffff160217905550600073ffffffffffffffffffffffffffffffffffffffff168173ffffffffffffffffffffffffffffffffffffffff161461021d5761021c816102f960201b60201c565b5b505050600073ffffffffffffffffffffffffffffffffffffffff168173ffffffffffffffffffffffffffffffffffffffff1603610286576040517fd92e233d00000000000000000000000000000000000000000000000000000000815260040160405180910390fd5b80600960006101000a81548173ffffffffffffffffffffffffffffffffffffffff021916908373ffffffffffffffffffffffffffffffffffffffff1602179055505083600f9060056102d9929190610427565b5081600a8190555080600b819055506000600e8190555050505050610c5c565b3373ffffffffffffffffffffffffffffffffffffffff168173ffffffffffffffffffffffffffffffffffffffff1603610367576040517f08c379a000000000000000000000000000000000000000000000000000000000815260040161035e90610c3c565b60405180910390fd5b80600860006101000a81548173ffffffffffffffffffffffffffffffffffffffff021916908373ffffffffffffffffffffffffffffffffffffffff1602179055508073ffffffffffffffffffffffffffffffffffffffff16600760009054906101000a900473ffffffffffffffffffffffffffffffffffffffff1673ffffffffffffffffffffffffffffffffffffffff167fed8889f560326eb138920d842192f0eb3dd22b4f139c87a2c57538e05bae127860405160405180910390a350565b8260058101928215610462579160200282015b828111156104615782518290816104519190610aa1565b509160200191906001019061043a565b5b50905061046f9190610473565b5090565b5b80821115610493576000818161048a9190610497565b50600101610474565b5090565b5080546104a3906108c4565b6000825580601f106104b557506104d4565b601f0160209004906000526020600020908101906104d391906104d7565b5b50565b5b808211156104f05760008160009055506001016104d8565b5090565b6000604051905090565b600080fd5b600080fd5b600080fd5b6000601f19601f8301169050919050565b7f4e487b7100000000000000000000000000000000000000000000000000000000600052604160045260246000fd5b6105568261050d565b810181811067ffffffffffffffff821117156105755761057461051e565b5b80604052505050565b60006105886104f4565b9050610594828261054d565b919050565b600067ffffffffffffffff8211156105b4576105b361051e565b5b602082029050919050565b600080fd5b600080fd5b600067ffffffffffffffff8211156105e4576105e361051e565b5b6105ed8261050d565b9050602081019050919050565b60005b838110156106185780820151818401526020810190506105fd565b60008484015250505050565b6000610637610632846105c9565b61057e565b905082815260208101848484011115610653576106526105c4565b5b61065e8482856105fa565b509392505050565b600082601f83011261067b5761067a610508565b5b815161068b848260208601610624565b91505092915050565b60006106a76106a284610599565b61057e565b905080602084028301858111156106c1576106c06105bf565b5b835b8181101561070857805167ffffffffffffffff8111156106e6576106e5610508565b5b8086016106f38982610666565b855260208501945050506020810190506106c3565b5050509392505050565b600082601f83011261072757610726610508565b5b6005610734848285610694565b91505092915050565b600073ffffffffffffffffffffffffffffffffffffffff82169050919050565b60006107688261073d565b9050919050565b6107788161075d565b811461078357600080fd5b50565b6000815190506107958161076f565b92915050565b6000819050919050565b6107ae8161079b565b81146107b957600080fd5b50565b6000815190506107cb816107a5565b92915050565b6000819050919050565b6107e4816107d1565b81146107ef57600080fd5b50565b600081519050610801816107db565b92915050565b60008060008060808587031215610821576108206104fe565b5b600085015167ffffffffffffffff81111561083f5761083e610503565b5b61084b87828801610712565b945050602061085c87828801610786565b935050604061086d878288016107bc565b925050606061087e878288016107f2565b91505092959194509250565b600081519050919050565b7f4e487b7100000000000000000000000000000000000000000000000000000000600052602260045260246000fd5b600060028204905060018216806108dc57607f821691505b6020821081036108ef576108ee610895565b5b50919050565b60008190508160005260206000209050919050565b60006020601f8301049050919050565b600082821b905092915050565b6000600883026109577fffffffffffffffffffffffffffffffffffffffffffffffffffffffffffffffff8261091a565b610961868361091a565b95508019841693508086168417925050509392505050565b6000819050919050565b600061099e6109996109948461079b565b610979565b61079b565b9050919050565b6000819050919050565b6109b883610983565b6109cc6109c4826109a5565b848454610927565b825550505050565b600090565b6109e16109d4565b6109ec8184846109af565b505050565b5b81811015610a1057610a056000826109d9565b6001810190506109f2565b5050565b601f821115610a5557610a26816108f5565b610a2f8461090a565b81016020851015610a3e578190505b610a52610a4a8561090a565b8301826109f1565b50505b505050565b600082821c905092915050565b6000610a7860001984600802610a5a565b1980831691505092915050565b6000610a918383610a67565b9150826002028217905092915050565b610aaa8261088a565b67ffffffffffffffff811115610ac357610ac261051e565b5b610acd82546108c4565b610ad8828285610a14565b600060209050601f831160018114610b0b5760008415610af9578287015190505b610b038582610a85565b865550610b6b565b601f198416610b19866108f5565b60005b82811015610b4157848901518255600182019150602085019450602081019050610b1c565b86831015610b5e5784890151610b5a601f891682610a67565b8355505b6001600288020188555050505b505050505050565b600082825260208201905092915050565b7f43616e6e6f7420736574206f776e657220746f207a65726f0000000000000000600082015250565b6000610bba601883610b73565b9150610bc582610b84565b602082019050919050565b60006020820190508181036000830152610be981610bad565b9050919050565b7f43616e6e6f74207472616e7366657220746f2073656c66000000000000000000600082015250565b6000610c26601783610b73565b9150610c3182610bf0565b602082019050919050565b60006020820190508181036000830152610c5581610c19565b9050919050565b6135b480610c6b6000396000f3fe608060405234801561001057600080fd5b50600436106101c45760003560e01c80637ccfd7fc116100f9578063b0fb162f11610097578063c87b56dd11610071578063c87b56dd146104e3578063d082e38114610513578063e985e9c514610531578063f2fde38b14610561576101c4565b8063b0fb162f14610479578063b678647a14610497578063b88d4fde146104c7576101c4565b80638ea98117116100d35780638ea981171461040557806395d89b41146104215780639eccacf61461043f578063a22cb4651461045d576101c4565b80637ccfd7fc146103ab5780638ac00021146103c95780638da5cb5b146103e7576101c4565b806324f746971161016657806361728f391161014057806361728f39146103235780636352211e1461034157806370a082311461037157806379ba5097146103a1576101c4565b806324f74697146102cb5780632e557e6a146102e957806342842e0e14610307576101c4565b8063095ea7b3116101a2578063095ea7b3146102475780631253c546146102635780631fe543e31461029357806323b872dd146102af576101c4565b806301ffc9a7146101c957806306fdde03146101f9578063081812fc14610217575b600080fd5b6101e360048036038101906101de9190612576565b61057d565b6040516101f091906125be565b60405180910390f35b6102016105de565b60405161020e9190612669565b60405180910390f35b610231600480360381019061022c91906126c1565b610670565b60405161023e919061272f565b60405180910390f35b610261600480360381019061025c9190612776565b61068c565b005b61027d600480360381019061027891906126c1565b6106a2565b60405161028a9190612669565b60405180910390f35b6102ad60048036038101906102a8919061281b565b610745565b005b6102c960048036038101906102c4919061287b565b61080b565b005b6102d361090d565b6040516102e091906128ed565b60405180910390f35b6102f1610923565b6040516102fe9190612917565b60405180910390f35b610321600480360381019061031c919061287b565b610aac565b005b61032b610acc565b604051610338919061294b565b60405180910390f35b61035b600480360381019061035691906126c1565b610ad2565b604051610368919061272f565b60405180910390f35b61038b60048036038101906103869190612966565b610ae4565b6040516103989190612917565b60405180910390f35b6103a9610b9e565b005b6103b3610d35565b6040516103c091906128ed565b60405180910390f35b6103d1610d4b565b6040516103de9190612917565b60405180910390f35b6103ef610d51565b6040516103fc919061272f565b60405180910390f35b61041f600480360381019061041a9190612966565b610d7b565b005b610429610f5c565b6040516104369190612669565b60405180910390f35b610447610fee565b60405161045491906129f2565b60405180910390f35b61047760048036038101906104729190612a39565b611014565b005b61048161102a565b60405161048e9190612a96565b60405180910390f35b6104b160048036038101906104ac91906126c1565b61103e565b6040516104be919061272f565b60405180910390f35b6104e160048036038101906104dc9190612be1565b611071565b005b6104fd60048036038101906104f891906126c1565b611096565b60405161050a9190612669565b60405180910390f35b61051b6111a9565b6040516105289190612917565b60405180910390f35b61054b60048036038101906105469190612c64565b6111af565b60405161055891906125be565b60405180910390f35b61057b60048036038101906105769190612966565b611243565b005b6000634906490660e01b7bffffffffffffffffffffffffffffffffffffffffffffffffffffffff1916827bffffffffffffffffffffffffffffffffffffffffffffffffffffffff191614806105d757506105d682611257565b5b9050919050565b6060600080546105ed90612cd3565b80601f016020809104026020016040519081016040528092919081815260200182805461061990612cd3565b80156106665780601f1061063b57610100808354040283529160200191610666565b820191906000526020600020905b81548152906001019060200180831161064957829003601f168201915b5050505050905090565b600061067b82611339565b50610685826113c1565b9050919050565b61069e82826106996113fe565b611406565b5050565b600f81600581106106b257600080fd5b0160009150905080546106c490612cd3565b80601f01602080910402602001604051908101604052809291908181526020018280546106f090612cd3565b801561073d5780601f106107125761010080835404028352916020019161073d565b820191906000526020600020905b81548152906001019060200180831161072057829003601f168201915b505050505081565b600960009054906101000a900473ffffffffffffffffffffffffffffffffffffffff1673ffffffffffffffffffffffffffffffffffffffff163373ffffffffffffffffffffffffffffffffffffffff16146107fb5733600960009054906101000a900473ffffffffffffffffffffffffffffffffffffffff166040517f1cf993f40000000000000000000000000000000000000000000000000000000081526004016107f2929190612d04565b60405180910390fd5b610806838383611418565b505050565b600073ffffffffffffffffffffffffffffffffffffffff168273ffffffffffffffffffffffffffffffffffffffff160361087d5760006040517f64a0ae92000000000000000000000000000000000000000000000000000000008152600401610874919061272f565b60405180910390fd5b6000610891838361088c6113fe565b61154f565b90508373ffffffffffffffffffffffffffffffffffffffff168173ffffffffffffffffffffffffffffffffffffffff1614610907578382826040517f64283d7b0000000000000000000000000000000000000000000000000000000081526004016108fe93929190612d2d565b60405180910390fd5b50505050565b600c60009054906101000a900463ffffffff1681565b6000806040518060c00160405280600b548152602001600a548152602001600c60049054906101000a900461ffff1661ffff168152602001600c60009054906101000a900463ffffffff1663ffffffff168152602001600c60069054906101000a900463ffffffff1663ffffffff1681526020016109b1604051806020016040528060001515815250611769565b8152509050600960009054906101000a900473ffffffffffffffffffffffffffffffffffffffff1673ffffffffffffffffffffffffffffffffffffffff16639b1c385e826040518263ffffffff1660e01b8152600401610a119190612e7e565b6020604051808303816000875af1158015610a30573d6000803e3d6000fd5b505050506040513d601f19601f82011682018060405250810190610a549190612eb5565b915033600d600084815260200190815260200160002060006101000a81548173ffffffffffffffffffffffffffffffffffffffff021916908373ffffffffffffffffffffffffffffffffffffffff1602179055505090565b610ac783838360405180602001604052806000815250611071565b505050565b600b5481565b6000610add82611339565b9050919050565b60008073ffffffffffffffffffffffffffffffffffffffff168273ffffffffffffffffffffffffffffffffffffffff1603610b575760006040517f89c62b64000000000000000000000000000000000000000000000000000000008152600401610b4e919061272f565b60405180910390fd5b600360008373ffffffffffffffffffffffffffffffffffffffff1673ffffffffffffffffffffffffffffffffffffffff168152602001908152602001600020549050919050565b600860009054906101000a900473ffffffffffffffffffffffffffffffffffffffff1673ffffffffffffffffffffffffffffffffffffffff163373ffffffffffffffffffffffffffffffffffffffff1614610c2e576040517f08c379a0000000000000000000000000000000000000000000000000000000008152600401610c2590612f2e565b60405180910390fd5b6000600760009054906101000a900473ffffffffffffffffffffffffffffffffffffffff16905033600760006101000a81548173ffffffffffffffffffffffffffffffffffffffff021916908373ffffffffffffffffffffffffffffffffffffffff1602179055506000600860006101000a81548173ffffffffffffffffffffffffffffffffffffffff021916908373ffffffffffffffffffffffffffffffffffffffff1602179055503373ffffffffffffffffffffffffffffffffffffffff168173ffffffffffffffffffffffffffffffffffffffff167f8be0079c531659141344cd1fd0a4f28419497f9722a3daafe3b4186f6b6457e060405160405180910390a350565b600c60069054906101000a900463ffffffff1681565b600a5481565b6000600760009054906101000a900473ffffffffffffffffffffffffffffffffffffffff16905090565b610d83610d51565b73ffffffffffffffffffffffffffffffffffffffff163373ffffffffffffffffffffffffffffffffffffffff1614158015610e0c5750600960009054906101000a900473ffffffffffffffffffffffffffffffffffffffff1673ffffffffffffffffffffffffffffffffffffffff163373ffffffffffffffffffffffffffffffffffffffff1614155b15610e7b5733610e1a610d51565b600960009054906101000a900473ffffffffffffffffffffffffffffffffffffffff166040517f061db9c1000000000000000000000000000000000000000000000000000000008152600401610e7293929190612f4e565b60405180910390fd5b600073ffffffffffffffffffffffffffffffffffffffff168173ffffffffffffffffffffffffffffffffffffffff1603610ee1576040517fd92e233d00000000000000000000000000000000000000000000000000000000815260040160405180910390fd5b80600960006101000a81548173ffffffffffffffffffffffffffffffffffffffff021916908373ffffffffffffffffffffffffffffffffffffffff1602179055507fd1a6a14209a385a964d036e404cb5cfb71f4000cdb03c9366292430787261be681604051610f51919061272f565b60405180910390a150565b606060018054610f6b90612cd3565b80601f0160208091040260200160405190810160405280929190818152602001828054610f9790612cd3565b8015610fe45780601f10610fb957610100808354040283529160200191610fe4565b820191906000526020600020905b815481529060010190602001808311610fc757829003601f168201915b5050505050905090565b600960009054906101000a900473ffffffffffffffffffffffffffffffffffffffff1681565b61102661101f6113fe565b8383611801565b5050565b600c60049054906101000a900461ffff1681565b600d6020528060005260406000206000915054906101000a900473ffffffffffffffffffffffffffffffffffffffff1681565b61107c84848461080b565b6110906110876113fe565b85858585611970565b50505050565b60606110a182611339565b5060006006600084815260200190815260200160002080546110c290612cd3565b80601f01602080910402602001604051908101604052809291908181526020018280546110ee90612cd3565b801561113b5780601f106111105761010080835404028352916020019161113b565b820191906000526020600020905b81548152906001019060200180831161111e57829003601f168201915b50505050509050600061114c611b21565b905060008151036111615781925050506111a4565b60008251111561119657808260405160200161117e929190612fc1565b604051602081830303815290604052925050506111a4565b61119f84611b38565b925050505b919050565b600e5481565b6000600560008473ffffffffffffffffffffffffffffffffffffffff1673ffffffffffffffffffffffffffffffffffffffff16815260200190815260200160002060008373ffffffffffffffffffffffffffffffffffffffff1673ffffffffffffffffffffffffffffffffffffffff16815260200190815260200160002060009054906101000a900460ff16905092915050565b61124b611ba1565b61125481611c33565b50565b60007f80ac58cd000000000000000000000000000000000000000000000000000000007bffffffffffffffffffffffffffffffffffffffffffffffffffffffff1916827bffffffffffffffffffffffffffffffffffffffffffffffffffffffff1916148061132257507f5b5e139f000000000000000000000000000000000000000000000000000000007bffffffffffffffffffffffffffffffffffffffffffffffffffffffff1916827bffffffffffffffffffffffffffffffffffffffffffffffffffffffff1916145b80611332575061133182611d61565b5b9050919050565b60008061134583611dcb565b9050600073ffffffffffffffffffffffffffffffffffffffff168173ffffffffffffffffffffffffffffffffffffffff16036113b857826040517f7e2732890000000000000000000000000000000000000000000000000000000081526004016113af9190612917565b60405180910390fd5b80915050919050565b60006004600083815260200190815260200160002060009054906101000a900473ffffffffffffffffffffffffffffffffffffffff169050919050565b600033905090565b6114138383836001611e08565b505050565b6000600d600085815260200190815260200160002060009054906101000a900473ffffffffffffffffffffffffffffffffffffffff169050600060058484600081811061146857611467612fe5565b5b905060200201356114799190613043565b905061148782600e54611fcd565b611530600e54600f83600581106114a1576114a0612fe5565b5b0180546114ad90612cd3565b80601f01602080910402602001604051908101604052809291908181526020018280546114d990612cd3565b80156115265780601f106114fb57610100808354040283529160200191611526565b820191906000526020600020905b81548152906001019060200180831161150957829003601f168201915b5050505050611feb565b600e6000815480929190611543906130a3565b91905055505050505050565b60008061155b84611dcb565b9050600073ffffffffffffffffffffffffffffffffffffffff168373ffffffffffffffffffffffffffffffffffffffff161461159d5761159c818486612047565b5b600073ffffffffffffffffffffffffffffffffffffffff168173ffffffffffffffffffffffffffffffffffffffff161461162e576115df600085600080611e08565b6001600360008373ffffffffffffffffffffffffffffffffffffffff1673ffffffffffffffffffffffffffffffffffffffff168152602001908152602001600020600082825403925050819055505b600073ffffffffffffffffffffffffffffffffffffffff168573ffffffffffffffffffffffffffffffffffffffff16146116b1576001600360008773ffffffffffffffffffffffffffffffffffffffff1673ffffffffffffffffffffffffffffffffffffffff168152602001908152602001600020600082825401925050819055505b846002600086815260200190815260200160002060006101000a81548173ffffffffffffffffffffffffffffffffffffffff021916908373ffffffffffffffffffffffffffffffffffffffff160217905550838573ffffffffffffffffffffffffffffffffffffffff168273ffffffffffffffffffffffffffffffffffffffff167fddf252ad1be2c89b69c2b068fc378daa952ba7f163c4a11628f55a4df523b3ef60405160405180910390a4809150509392505050565b60607f92fd13387c7fe7befbc38d303d6468778fb9731bc4583f17d92989c6fcfdeaaa8260405160240161179d9190613116565b604051602081830303815290604052907bffffffffffffffffffffffffffffffffffffffffffffffffffffffff19166020820180517bffffffffffffffffffffffffffffffffffffffffffffffffffffffff83818316178352505050509050919050565b600073ffffffffffffffffffffffffffffffffffffffff168273ffffffffffffffffffffffffffffffffffffffff160361187257816040517f5b08ba18000000000000000000000000000000000000000000000000000000008152600401611869919061272f565b60405180910390fd5b80600560008573ffffffffffffffffffffffffffffffffffffffff1673ffffffffffffffffffffffffffffffffffffffff16815260200190815260200160002060008473ffffffffffffffffffffffffffffffffffffffff1673ffffffffffffffffffffffffffffffffffffffff16815260200190815260200160002060006101000a81548160ff0219169083151502179055508173ffffffffffffffffffffffffffffffffffffffff168373ffffffffffffffffffffffffffffffffffffffff167f17307eab39ab6107e8899845ad3d59bd9653f200f220920489ca2b5937696c318360405161196391906125be565b60405180910390a3505050565b60008373ffffffffffffffffffffffffffffffffffffffff163b1115611b1a578273ffffffffffffffffffffffffffffffffffffffff1663150b7a02868685856040518563ffffffff1660e01b81526004016119cf949392919061317b565b6020604051808303816000875af1925050508015611a0b57506040513d601f19601f82011682018060405250810190611a0891906131dc565b60015b611a8f573d8060008114611a3b576040519150601f19603f3d011682016040523d82523d6000602084013e611a40565b606091505b506000815103611a8757836040517f64a0ae92000000000000000000000000000000000000000000000000000000008152600401611a7e919061272f565b60405180910390fd5b805181602001fd5b63150b7a0260e01b7bffffffffffffffffffffffffffffffffffffffffffffffffffffffff1916817bffffffffffffffffffffffffffffffffffffffffffffffffffffffff191614611b1857836040517f64a0ae92000000000000000000000000000000000000000000000000000000008152600401611b0f919061272f565b60405180910390fd5b505b5050505050565b606060405180602001604052806000815250905090565b6060611b4382611339565b506000611b4e611b21565b90506000815111611b6e5760405180602001604052806000815250611b99565b80611b788461210b565b604051602001611b89929190612fc1565b6040516020818303038152906040525b915050919050565b600760009054906101000a900473ffffffffffffffffffffffffffffffffffffffff1673ffffffffffffffffffffffffffffffffffffffff163373ffffffffffffffffffffffffffffffffffffffff1614611c31576040517f08c379a0000000000000000000000000000000000000000000000000000000008152600401611c2890613255565b60405180910390fd5b565b3373ffffffffffffffffffffffffffffffffffffffff168173ffffffffffffffffffffffffffffffffffffffff1603611ca1576040517f08c379a0000000000000000000000000000000000000000000000000000000008152600401611c98906132c1565b60405180910390fd5b80600860006101000a81548173ffffffffffffffffffffffffffffffffffffffff021916908373ffffffffffffffffffffffffffffffffffffffff1602179055508073ffffffffffffffffffffffffffffffffffffffff16600760009054906101000a900473ffffffffffffffffffffffffffffffffffffffff1673ffffffffffffffffffffffffffffffffffffffff167fed8889f560326eb138920d842192f0eb3dd22b4f139c87a2c57538e05bae127860405160405180910390a350565b60007f01ffc9a7000000000000000000000000000000000000000000000000000000007bffffffffffffffffffffffffffffffffffffffffffffffffffffffff1916827bffffffffffffffffffffffffffffffffffffffffffffffffffffffff1916149050919050565b60006002600083815260200190815260200160002060009054906101000a900473ffffffffffffffffffffffffffffffffffffffff169050919050565b8080611e415750600073ffffffffffffffffffffffffffffffffffffffff168273ffffffffffffffffffffffffffffffffffffffff1614155b15611f75576000611e5184611339565b9050600073ffffffffffffffffffffffffffffffffffffffff168373ffffffffffffffffffffffffffffffffffffffff1614158015611ebc57508273ffffffffffffffffffffffffffffffffffffffff168173ffffffffffffffffffffffffffffffffffffffff1614155b8015611ecf5750611ecd81846111af565b155b15611f1157826040517fa9fbf51f000000000000000000000000000000000000000000000000000000008152600401611f08919061272f565b60405180910390fd5b8115611f7357838573ffffffffffffffffffffffffffffffffffffffff168273ffffffffffffffffffffffffffffffffffffffff167f8c5be1e5ebec7d5bd14f71427d1e84f3dd0314c0f7b2291e5b200ac8c7c3b92560405160405180910390a45b505b836004600085815260200190815260200160002060006101000a81548173ffffffffffffffffffffffffffffffffffffffff021916908373ffffffffffffffffffffffffffffffffffffffff16021790555050505050565b611fe78282604051806020016040528060008152506121d9565b5050565b8060066000848152602001908152602001600020908161200b9190613483565b507ff8e1a15aba9398e019f0b49df1a4fde98ee17ae345cb5f6b5e2c27f5033e8ce78260405161203b9190612917565b60405180910390a15050565b6120528383836121fd565b61210657600073ffffffffffffffffffffffffffffffffffffffff168373ffffffffffffffffffffffffffffffffffffffff16036120c757806040517f7e2732890000000000000000000000000000000000000000000000000000000081526004016120be9190612917565b60405180910390fd5b81816040517f177e802f0000000000000000000000000000000000000000000000000000000081526004016120fd929190613555565b60405180910390fd5b505050565b60606000600161211a846122be565b01905060008167ffffffffffffffff81111561213957612138612ab6565b5b6040519080825280601f01601f19166020018201604052801561216b5781602001600182028036833780820191505090505b509050600082602001820190505b6001156121ce578080600190039150507f3031323334353637383961626364656600000000000000000000000000000000600a86061a8153600a85816121c2576121c1613014565b5b04945060008503612179575b819350505050919050565b6121e38383612411565b6121f86121ee6113fe565b6000858585611970565b505050565b60008073ffffffffffffffffffffffffffffffffffffffff168373ffffffffffffffffffffffffffffffffffffffff16141580156122b557508273ffffffffffffffffffffffffffffffffffffffff168473ffffffffffffffffffffffffffffffffffffffff161480612276575061227584846111af565b5b806122b457508273ffffffffffffffffffffffffffffffffffffffff1661229c836113c1565b73ffffffffffffffffffffffffffffffffffffffff16145b5b90509392505050565b600080600090507a184f03e93ff9f4daa797ed6e38ed64bf6a1f010000000000000000831061231c577a184f03e93ff9f4daa797ed6e38ed64bf6a1f010000000000000000838161231257612311613014565b5b0492506040810190505b6d04ee2d6d415b85acef81000000008310612359576d04ee2d6d415b85acef8100000000838161234f5761234e613014565b5b0492506020810190505b662386f26fc10000831061238857662386f26fc10000838161237e5761237d613014565b5b0492506010810190505b6305f5e10083106123b1576305f5e10083816123a7576123a6613014565b5b0492506008810190505b61271083106123d65761271083816123cc576123cb613014565b5b0492506004810190505b606483106123f957606483816123ef576123ee613014565b5b0492506002810190505b600a8310612408576001810190505b80915050919050565b600073ffffffffffffffffffffffffffffffffffffffff168273ffffffffffffffffffffffffffffffffffffffff16036124835760006040517f64a0ae9200000000000000000000000000000000000000000000000000000000815260040161247a919061272f565b60405180910390fd5b60006124918383600061154f565b9050600073ffffffffffffffffffffffffffffffffffffffff168173ffffffffffffffffffffffffffffffffffffffff16146125055760006040517f73c6ac6e0000000000000000000000000000000000000000000000000000000081526004016124fc919061272f565b60405180910390fd5b505050565b6000604051905090565b600080fd5b600080fd5b60007fffffffff0000000000000000000000000000000000000000000000000000000082169050919050565b6125538161251e565b811461255e57600080fd5b50565b6000813590506125708161254a565b92915050565b60006020828403121561258c5761258b612514565b5b600061259a84828501612561565b91505092915050565b60008115159050919050565b6125b8816125a3565b82525050565b60006020820190506125d360008301846125af565b92915050565b600081519050919050565b600082825260208201905092915050565b60005b838110156126135780820151818401526020810190506125f8565b60008484015250505050565b6000601f19601f8301169050919050565b600061263b826125d9565b61264581856125e4565b93506126558185602086016125f5565b61265e8161261f565b840191505092915050565b600060208201905081810360008301526126838184612630565b905092915050565b6000819050919050565b61269e8161268b565b81146126a957600080fd5b50565b6000813590506126bb81612695565b92915050565b6000602082840312156126d7576126d6612514565b5b60006126e5848285016126ac565b91505092915050565b600073ffffffffffffffffffffffffffffffffffffffff82169050919050565b6000612719826126ee565b9050919050565b6127298161270e565b82525050565b60006020820190506127446000830184612720565b92915050565b6127538161270e565b811461275e57600080fd5b50565b6000813590506127708161274a565b92915050565b6000806040838503121561278d5761278c612514565b5b600061279b85828601612761565b92505060206127ac858286016126ac565b9150509250929050565b600080fd5b600080fd5b600080fd5b60008083601f8401126127db576127da6127b6565b5b8235905067ffffffffffffffff8111156127f8576127f76127bb565b5b602083019150836020820283011115612814576128136127c0565b5b9250929050565b60008060006040848603121561283457612833612514565b5b6000612842868287016126ac565b935050602084013567ffffffffffffffff81111561286357612862612519565b5b61286f868287016127c5565b92509250509250925092565b60008060006060848603121561289457612893612514565b5b60006128a286828701612761565b93505060206128b386828701612761565b92505060406128c4868287016126ac565b9150509250925092565b600063ffffffff82169050919050565b6128e7816128ce565b82525050565b600060208201905061290260008301846128de565b92915050565b6129118161268b565b82525050565b600060208201905061292c6000830184612908565b92915050565b6000819050919050565b61294581612932565b82525050565b6000602082019050612960600083018461293c565b92915050565b60006020828403121561297c5761297b612514565b5b600061298a84828501612761565b91505092915050565b6000819050919050565b60006129b86129b36129ae846126ee565b612993565b6126ee565b9050919050565b60006129ca8261299d565b9050919050565b60006129dc826129bf565b9050919050565b6129ec816129d1565b82525050565b6000602082019050612a0760008301846129e3565b92915050565b612a16816125a3565b8114612a2157600080fd5b50565b600081359050612a3381612a0d565b92915050565b60008060408385031215612a5057612a4f612514565b5b6000612a5e85828601612761565b9250506020612a6f85828601612a24565b9150509250929050565b600061ffff82169050919050565b612a9081612a79565b82525050565b6000602082019050612aab6000830184612a87565b92915050565b600080fd5b7f4e487b7100000000000000000000000000000000000000000000000000000000600052604160045260246000fd5b612aee8261261f565b810181811067ffffffffffffffff82111715612b0d57612b0c612ab6565b5b80604052505050565b6000612b2061250a565b9050612b2c8282612ae5565b919050565b600067ffffffffffffffff821115612b4c57612b4b612ab6565b5b612b558261261f565b9050602081019050919050565b82818337600083830152505050565b6000612b84612b7f84612b31565b612b16565b905082815260208101848484011115612ba057612b9f612ab1565b5b612bab848285612b62565b509392505050565b600082601f830112612bc857612bc76127b6565b5b8135612bd8848260208601612b71565b91505092915050565b60008060008060808587031215612bfb57612bfa612514565b5b6000612c0987828801612761565b9450506020612c1a87828801612761565b9350506040612c2b878288016126ac565b925050606085013567ffffffffffffffff811115612c4c57612c4b612519565b5b612c5887828801612bb3565b91505092959194509250565b60008060408385031215612c7b57612c7a612514565b5b6000612c8985828601612761565b9250506020612c9a85828601612761565b9150509250929050565b7f4e487b7100000000000000000000000000000000000000000000000000000000600052602260045260246000fd5b60006002820490506001821680612ceb57607f821691505b602082108103612cfe57612cfd612ca4565b5b50919050565b6000604082019050612d196000830185612720565b612d266020830184612720565b9392505050565b6000606082019050612d426000830186612720565b612d4f6020830185612908565b612d5c6040830184612720565b949350505050565b612d6d81612932565b82525050565b612d7c8161268b565b82525050565b612d8b81612a79565b82525050565b612d9a816128ce565b82525050565b600081519050919050565b600082825260208201905092915050565b6000612dc782612da0565b612dd18185612dab565b9350612de18185602086016125f5565b612dea8161261f565b840191505092915050565b600060c083016000830151612e0d6000860182612d64565b506020830151612e206020860182612d73565b506040830151612e336040860182612d82565b506060830151612e466060860182612d91565b506080830151612e596080860182612d91565b5060a083015184820360a0860152612e718282612dbc565b9150508091505092915050565b60006020820190508181036000830152612e988184612df5565b905092915050565b600081519050612eaf81612695565b92915050565b600060208284031215612ecb57612eca612514565b5b6000612ed984828501612ea0565b91505092915050565b7f4d7573742062652070726f706f736564206f776e657200000000000000000000600082015250565b6000612f186016836125e4565b9150612f2382612ee2565b602082019050919050565b60006020820190508181036000830152612f4781612f0b565b9050919050565b6000606082019050612f636000830186612720565b612f706020830185612720565b612f7d6040830184612720565b949350505050565b600081905092915050565b6000612f9b826125d9565b612fa58185612f85565b9350612fb58185602086016125f5565b80840191505092915050565b6000612fcd8285612f90565b9150612fd98284612f90565b91508190509392505050565b7f4e487b7100000000000000000000000000000000000000000000000000000000600052603260045260246000fd5b7f4e487b7100000000000000000000000000000000000000000000000000000000600052601260045260246000fd5b600061304e8261268b565b91506130598361268b565b92508261306957613068613014565b5b828206905092915050565b7f4e487b7100000000000000000000000000000000000000000000000000000000600052601160045260246000fd5b60006130ae8261268b565b91507fffffffffffffffffffffffffffffffffffffffffffffffffffffffffffffffff82036130e0576130df613074565b5b600182019050919050565b6130f4816125a3565b82525050565b60208201600082015161311060008501826130eb565b50505050565b600060208201905061312b60008301846130fa565b92915050565b600082825260208201905092915050565b600061314d82612da0565b6131578185613131565b93506131678185602086016125f5565b6131708161261f565b840191505092915050565b60006080820190506131906000830187612720565b61319d6020830186612720565b6131aa6040830185612908565b81810360608301526131bc8184613142565b905095945050505050565b6000815190506131d68161254a565b92915050565b6000602082840312156131f2576131f1612514565b5b6000613200848285016131c7565b91505092915050565b7f4f6e6c792063616c6c61626c65206279206f776e657200000000000000000000600082015250565b600061323f6016836125e4565b915061324a82613209565b602082019050919050565b6000602082019050818103600083015261326e81613232565b9050919050565b7f43616e6e6f74207472616e7366657220746f2073656c66000000000000000000600082015250565b60006132ab6017836125e4565b91506132b682613275565b602082019050919050565b600060208201905081810360008301526132da8161329e565b9050919050565b60008190508160005260206000209050919050565b60006020601f8301049050919050565b600082821b905092915050565b6000600883026133437fffffffffffffffffffffffffffffffffffffffffffffffffffffffffffffffff82613306565b61334d8683613306565b95508019841693508086168417925050509392505050565b600061338061337b6133768461268b565b612993565b61268b565b9050919050565b6000819050919050565b61339a83613365565b6133ae6133a682613387565b848454613313565b825550505050565b600090565b6133c36133b6565b6133ce818484613391565b505050565b5b818110156133f2576133e76000826133bb565b6001810190506133d4565b5050565b601f82111561343757613408816132e1565b613411846132f6565b81016020851015613420578190505b61343461342c856132f6565b8301826133d3565b50505b505050565b600082821c905092915050565b600061345a6000198460080261343c565b1980831691505092915050565b60006134738383613449565b9150826002028217905092915050565b61348c826125d9565b67ffffffffffffffff8111156134a5576134a4612ab6565b5b6134af8254612cd3565b6134ba8282856133f6565b600060209050601f8311600181146134ed57600084156134db578287015190505b6134e58582613467565b86555061354d565b601f1984166134fb866132e1565b60005b82811015613523578489015182556001820191506020850194506020810190506134fe565b86831015613540578489015161353c601f891682613449565b8355505b6001600288020188555050505b505050505050565b600060408201905061356a6000830185612720565b6135776020830184612908565b939250505056fea264697066735822122098c1ee1114336c73f3fb6fd1c4e21b8a5731770bf4d94b9723b5f6bc12e20b9764736f6c634300081c0033",
  "linkReferences": {},
  "deployedLinkReferences": {}
}